:020000040800F2
:10000000008000204100000855000008550000084D
:10001000550000085500000855000008550000086C
:10002000550000085500000855000008550000085C
:10003000550000085500000855000008550000084C
:10004000054900BF012001300130086001324A60DB
:0C005000FFF7FCBFFEE700BF000100202E
:100200000160B0DE4100000845000008470000081A
:10021000490000084B0000084D00000800010020C4
:100220000401002000800020000000000000000009
:100230000000000000000000000000000D6EB0DEB5
:0400000508000041AE
:00000001FF
