:020000040800F2
:1000000000580020C5000008C1000008C100000819
:10001000C1000008C1000008C10000080000000085
:10002000000000000000000000000000C100000807
:10003000C100000800000000C1000008A501000880
:1000400000000000000000000000000000000000B0
:1000500000000000000000000000000000000000A0
:100060000000000000000000000000000000000090
:100070000000000000000000000000000000000080
:100080000000000000000000000000000000000070
:100090000000000000000000000000000000000060
:1000A0000000000000000000000000000000000050
:1000B00051010008C100000800000000000000001D
:1000C000FEE700BF1A4A1B498A4208B50CD2013923
:1000D000891A194B21F003010431194453F8040B18
:1000E00042F8040B8B42F9D1144A15498A420CD2CA
:1000F0000139891A134B21F003010431194453F8D3
:10010000040B42F8040B8B42F9D10F4B0F4A934278
:100110000AD2013AD21A22F0030204321A44002110
:1001200043F8041B9342FBD100F044F8FEE700BF04
:1001300000000020200000209C1D0008200000205E
:1001400024000020BC1D00082400002034000020F2
:100150004FF080430F4910486FF0010210B41A614C
:100160000A680E4B01320A601A680D4982F00102DA
:100170001A601B684269DB431B02D2B29BB2134375
:1001800004244FF4802243618C615DF8044B8A6142
:10019000704700BF2800002000080048240000200D
:1001A000000C0048024A136801331360704700BF17
:1001B0002C0000202DE9F04F4FF0E0234FF47002A7
:1001C00089B0C3F8882DBFF34F8FBFF36F8F934A69
:1001D000136843F48033136013689903FCD5904B84
:1001E000D36013688D4943F0807313600B689B01E3
:1001F000FCD58C4B894D02221A608B6843F00303B7
:100200008B60AB6803F00C030C2BFAD14FF0E027A6
:100210000026854A7A610723BE613B61EA6C834B05
:100220008348DFF83C8242F00802EA64EA6CEA6C38
:100230001A6822F030024FF4802142F010021A6056
:1002400099614269D2B242F47F42042442619C61C6
:10025000996100F071FC304600F0B6FB304600F0CA
:100260004DF94FF4FC6000F03DF97249724C1820D2
:1002700000F0F4FB4FF6FF7000F034F96F494820AE
:1002800000F0ECFB6E49602000F0E8FB6D4978203F
:1002900000F0E4FB4FF6E07000F024F96A49A82072
:1002A00000F0DCFB4FF090424FF08049136823F4DC
:1002B000404343F400431360136A23F0704343F058
:1002C00000531362AB6D4F2243F00203AB65C9F8D4
:1002D0000064C9F8282440F2E732C9F82C2440F21F
:1002E000EE22C9F838244FF4D042C9F8182401236B
:1002F0001022C9F82024C9F81434C9F81064C9F8C8
:100300000034D9F83824A261D9F80024E261AA6D3A
:100310001A43AA6541F63F72C9F800604FF0805158
:10032000C9F8282041F28732C9F82C20C9F80C30CE
:10033000C9F81430C9F81060C7F80011434FC9F864
:10034000003032460DF1100A01ADA3680133A360FD
:100350003B6863603E4B1B682361D7F800C03D4B90
:10036000A3FB0C13B2EB931F4FEA9316EDD03A4B5D
:1003700066611B68E360D9F83834A361D9F80034AA
:10038000E36172B63549504652230A4600F8013BF4
:1003900053780131002BF8D1BCF57A7F28D2302375
:1003A0008DF8043001232D49C1F1010C94440CF166
:1003B000FF315144EA1812F8010D01F8010FAA4269
:1003C000F9D1013B0CF101029C4413440CF12002D1
:1003D0000DEB020C47F220322AF80320514600238D
:1003E000A8200CF80D3C00F039FB62B63246ACE7B1
:1003F000AE46B446A8FB0C01C90801EB8100ACEB8A
:100400004000E3463030BBF1090F0EF8010B03F159
:1004100001038C46C7D90C2BECD1C4E70010024075
:1004200023140001002002407F380100000C004826
:10043000000800487C0B000800000020880B000822
:100440009C0B0008AC0B0008C00B00082C0000201F
:1004500024000020D34D621028000020740B0008F7
:10046000CDCCCCCC2DE9F0410C6800224FF0010E30
:100470004FF0030C0EFA02F8560014EA080F0CFABB
:1004800006F502F101021FD04B680768003B18BF58
:10049000012327EA0507B3403B43036047688B68A5
:1004A00027EA08074760876803F0030327EA050780
:1004B000B3403B438360CB68C76803F00303B3409A
:1004C00027EA05052B43C360102AD3D1BDE8F0818C
:1004D000034A116813685B1A8342FBD3704700BF5D
:1004E0002C00002082B0044AADF80600BDF80630AA
:1004F0009BB2138002B070473200002082B0044AE1
:10050000ADF80600BDF806309BB2138002B070470C
:1005100020000020184B9A6A42F4007210B49A62CC
:100520009A6A164C42F480729A629A6942F02002EA
:100530009A6160619A6A42F020029A6200BF00BF2D
:1005400000BF9A6942F020029A619A6942F480726F
:100550009A6161619A6A42F020029A6200BF00BF0C
:1005600000BF9A695DF8044B42F020029A619A69D3
:1005700042F480729A617047000400480008004805
:1005800008B500200121FFF7C5FF01460120FFF754
:10059000C1FF41F290711020FFF7BCFF4FF41C51D6
:1005A0006020FFF7B7FF01216120FFF7B3FF0221B1
:1005B0004620FFF7AFFF48F210011320FFF7AAFF14
:1005C00048F2FE011220FFF7A5FF4FF4A0610220C0
:1005D000FFF7A0FF41F230010320FFF79BFF40F23D
:1005E00003313020FFF796FF3120FFF793FF3220D1
:1005F000FFF790FF4FF440713320FFF78BFF03218B
:100600003420FFF787FF40F203313520FFF782FFE8
:1006100014213620FFF77EFF40F203313720FFF729
:1006200079FF3820FFF776FF3920FFF773FF4FF48B
:1006300040713A20FFF76EFF03213B20FFF76AFF6E
:1006400040F203313C20FFF765FF4FF4A0513D20FD
:10065000FFF760FF4FF400719220FFF75BFF40F25D
:1006600003319320FFF756FF40F60D019020FFF76E
:1006700051FF41F218010320FFF74CFFBDE808408D
:1006800040F273110720FFF745BF00BF08B543F2E2
:100690000801E320FFF73EFF1221E720FFF73AFFB2
:1006A00041F23121EF20FFF735FF00210120FFF754
:1006B00031FF4FF4E0610220FFF72CFF41F23001DF
:1006C0000320FFF727FF00210420FFF723FF40F25C
:1006D00007210820FFF71EFF00210920FFF71AFF5E
:1006E0000A20FFF717FF0C20FFF714FF0D20FFF77C
:1006F00011FF0F20FFF70EFF1020FFF70BFF072160
:100700001120FFF707FF00211220FFF703FF13203E
:10071000FFF700FFC820FFF7DBFE41F290611020D9
:10072000FFF7F8FE40F227211120FFF7F3FE3220F9
:10073000FFF7CEFE1D211220FFF7ECFE3220FFF75F
:10074000C7FE4FF400611320FFF7E4FE14212920B7
:10075000FFF7E0FE0B212B20FFF7DCFE3220FFF736
:10076000B7FE00212020FFF7D5FE2120FFF7D2FEA3
:1007700007213020FFF7CEFE40F207713120FFF74E
:10078000C9FE06213220FFF7C5FE40F20471352074
:10079000FFF7C0FE41F604713620FFF7BBFE0421CF
:1007A0003720FFF7B7FE00213820FFF7B3FE40F2F5
:1007B00006713920FFF7AEFE40F201713C20FFF7D1
:1007C000A9FE0F213D20FFF7A5FE00215020FFF7D5
:1007D000A1FEEF215120FFF79DFE00215220FFF7DF
:1007E00099FE40F23F115320FFF794FE4FF41C5145
:1007F0006020FFF78FFE01216120FFF78BFE0021B3
:100800006A20FFF787FE8020FFF784FE8120FFF734
:1008100081FE8220FFF77EFE8320FFF77BFE84208F
:10082000FFF778FE8520FFF775FE10219020FFF777
:1008300071FE00219220FFF76DFE03219320FFF748
:1008400069FE4FF488719520FFF764FE0021972020
:10085000FFF760FE9820FFF75DFE41F218010320CC
:10086000FFF758FEBDE8084040F273110720FFF77C
:1008700051BE00BF2DE9F041264C274DA36A43F439
:10088000007384B0A362A36A43F48073A362A36974
:1008900043F02003A3616861A36A43F02003A362CD
:1008A00000BF00BF00BFA36943F02003A361A36999
:1008B00043F48073A36100264FF6FF730327694654
:1008C00028460093019603960297FFF7CBFD4FF061
:1008D00090439A6A42F480729A6200BF00BF00BFE0
:1008E000D5F810809A6942F480729A6128464FF6D2
:1008F000FF7201236946CDE90023CDE90276FFF7B7
:10090000B1FDA3691FFA88F043F40073A36104B03A
:10091000BDE8F0810004004800080048134B14496A
:100920009A6A42F400729A629A6A42F480729A62F7
:100930009A69222042F020029A6148619A6A42F044
:1009400020029A6200BF00BF00BF9A6942F02002F5
:100950009A619A6942F480729A6100BF00BF00BF39
:100960009A6942F400729A61704700BF000400481F
:1009700000080048124B13499A6A42F400729A62C6
:100980009A6942F480729A619A6942F020029A61EF
:1009900048619A6A42F020029A6200BF00BF00BF1D
:1009A0009A6942F020029A619A6942F480729A61CF
:1009B00000BF00BF00BF9A6942F400729A6170479D
:1009C000000400480008004838B5002105462020F2
:1009D000FFF7A0FD2120FFF79DFDFFF79FFF4FF4DC
:1009E00096342846FFF7C6FF013CFAD138BD00BF58
:1009F0002DE9F04789468046014620201546FFF73D
:100A000089FD49462120FFF785FD124F124E05F161
:100A1000300AFFF783FF00242B882341DB0754BFF4
:100A200030883888013480B2FFF7A4FF102CF3D14E
:100A300008F101085FFA88F841462020FFF76AFDB7
:100A4000023549462120FFF765FD5545E1D1BDE856
:100A5000F08700BF32000020200000200A78EAB1B1
:100A60002DE9F0410E4E8846054640F23F144FF600
:100A7000FF7701E0BC420FD0203AD2B202EB420233
:100A800006EB021221462846FFF7B2FF18F8012FA5
:100A9000103CA4B2002AEDD1BDE8F081704700BF40
:100AA000CC0B0008F0B5002489B0CDE90444CDE9B1
:100AB00006441E4B1E4DDA6C42F00402DA64DA6C16
:100AC00042F00102DA64DA6C4FF4487142F002023B
:100AD000DA64032601270491284604A9CDE90576A6
:100AE0000794FFF7BFFC04A94FF480734FF09040C8
:100AF0000493CDE906640597FFF7B4FC4FF6FF7247
:100B000001230C486946CDE90023CDE90264FFF7D3
:100B1000A9FC4FF09042936943F480739361AB69F1
:100B200043F40873AB6109B0F0BD00BF0010024090
:100B3000000400480008004810B5FFF7B3FF00208C
:100B4000FFF798FE0A4C2080238848F230229BB29F
:100B5000934206D0FFF79AFD0020FFF78BFE20801E
:100B600010BDFFF70DFD0020FFF784FE208010BDB3
:100B70003000002052554E3A2000000054494D20CC
:100B8000746573740000000050574D20316B487A33
:100B900020373525205041370000000054494D339F
:100BA0005F43483220414632000000004C4544205B
:100BB000302E35732054494D3220495251000000E7
:100BC00052554E3A20302073000000000000000013
:100BD0000000000000000000000000000000000015
:100BE0000000000000000000000000000000000005
:100BF0000000000000000000000000000000800174
:100C000080018001800180018001800180018001DC
:100C100080018001800180010000000080018001CE
:100C200000000000000000000000000000000000C4
:100C3000CC00CC00CC00CC00CC00CC0000000000EC
:100C400000000000000000000000000000000000A4
:100C50000000000000000000000000000000000094
:100C60000000000000000000600C600C600C30060A
:100C70003006FE1FFE1F300638071803FE1FFE1F3A
:100C8000180318038C018C018C0100000000800007
:100C9000E003F80F9C0E8C1C8C188C009800F80157
:100CA000E007800E801C8C188C189C18B80CF00F74
:100CB000E003800080000000000000000000000051
:100CC00000000E181B0C110C110611061103110364
:100CD0009B018E01C038C06C604460443044304495
:100CE0001844186C0C380000000000000000E001FF
:100CF000F0033807180618063003F001F000F8007A
:100D00009C310E33061E061C061C063FFC73F021A8
:100D100000000000000000000000000000000000D3
:100D20000C000C000C000C000C000C00000000007B
:100D300000000000000000000000000000000000B3
:100D400000000000000000000000000000000002A1
:100D500000038001C000C00060006000300030006F
:100D600030003000300030003000300060006000A3
:100D7000C000C0008001000300020000000020004D
:100D80006000C0008001800100030003000600062F
:100D90000006000600060006000600060003000329
:100DA00080018001C0006000200000000000000001
:100DB0000000000000000000C000C000D806F807D6
:100DC000E0013003380700000000000000000000D0
:100DD0000000000000000000000000000000000013
:100DE00000000000000000008001800180018001FF
:100DF0008001FC3FFC3F8001800180018001800177
:100E000000000000000000000000000000000000E2
:100E100000000000000000000000000000000000D2
:100E20000000000000000000000000000000800141
:100E300080010001000180000000000000000000AF
:100E400000000000000000000000000000000000A2
:100E500000000000E007E0070000000000000000C4
:100E60000000000000000000000000000000000082
:100E70000000000000000000000000000000000072
:100E80000000000000000000000000000000C000A2
:100E9000C000000000000000000000000000000C86
:100EA000000C000600060006000300030003800398
:100EB000800180018001C000C000C00060006000AF
:100EC0000000000000000000000000000000E0033F
:100ED000F007380E180C0C180C180C180C180C18FD
:100EE0000C180C180C180C18180C380EF007E0032E
:100EF00000000000000000000000000000000001F1
:100F00008001C001F0019801880180018001800109
:100F100080018001800180018001800180018001C9
:100F20000000000000000000000000000000E003DE
:100F3000F80F180C0C180C1800180018000C0006FC
:100F400000038001C000600030001800FC1FFC1F7F
:100F50000000000000000000000000000000E001B0
:100F6000F807180E0C0C0C0C000C0006C003C00790
:100F7000000C001800180C180C18180CF807E003E7
:100F80000000000000000000000000000000000C55
:100F9000000E000F000F800DC00C600C600C300CB8
:100FA000180C0C0CFC3FFC3F000C000C000C000C5F
:100FB0000000000000000000000000000000F80F2A
:100FC000F80F180018000C00EC03FC071C0E001CA6
:100FD0000018001800180C181C0C180EF807E00375
:100FE0000000000000000000000000000000C0073A
:100FF000F00F381C181818000C00CC03EC0F3C0E36
:101000001C1C0C180C180C18181C380EF007E003E8
:101010000000000000000000000000000000FC1FB5
:10102000FC1F000C00060006000380038001C001C5
:10103000C000E00060006000700030003000300050
:101040000000000000000000000000000000E003BD
:10105000F007380E180C180C180C3806F007F007BB
:10106000180C0C180C180C180C18380CF80FE0039E
:101070000000000000000000000000000000E0038D
:10108000F007380E1C0C0C180C180C181C1C381E01
:10109000F81BE0190018000C000C1C0EF807F001FA
:1010A0000000000000000000000000000000000040
:1010B000000000000000000080018001000000002E
:1010C000000000000000000000000000800180011E
:1010D0000000000000000000000000000000000010
:1010E00000000000000000008001800100000000FE
:1010F00000000000000000000000000080018001EE
:10110000000100018000000000000000000000005D
:101110000000000000000000000000000010001CA3
:10112000800FE003F8001800F800E003800F001CB7
:10113000001000000000000000000000000000009F
:10114000000000000000000000000000F81F000088
:1011500000000000F81F0000000000000000000078
:10116000000000000000000000000000000000007F
:10117000000000000000000000000000080038002F
:10118000F001C007001F0018001FC007F001380061
:101190000800000000000000000000000000E00364
:1011A000F80F180C0C180C180018000C000600039F
:1011B0008001C000C000C00000000000C000C000EE
:1011C000000000000000000000000000000000001F
:1011D000E00718180420C229224A1144094409448E
:1011E000094409221113E20C024004201818E007F8
:1011F000000000000000000000000000000080036C
:101200008003C006C006C006600C600C30183018A1
:101210003018F83FF83F1C700C600C6006C006C028
:101220000000000000000000000000000000FC03BF
:10123000FC0F0C0C0C180C180C180C0CFC07FC0FF9
:101240000C180C300C300C300C300C18FC1FFC0748
:101250000000000000000000000000000000C007C7
:10126000F01F38381C300C700660060006000600BF
:1012700006000600060006600C701C30F01FE00738
:101280000000000000000000000000000000FE035D
:10129000FE0F060E06180618063006300630063019
:1012A00006300630063006180618060EFE0FFE033E
:1012B0000000000000000000000000000000FC3FF3
:1012C000FC3F0C000C000C000C000C00FC1FFC1F71
:1012D0000C000C000C000C000C000C00FC3FFC3F50
:1012E0000000000000000000000000000000F83FC7
:1012F000F83F18001800180018001800F81FF81F11
:10130000180018001800180018001800180018001D
:101310000000000000000000000000000000E00FDE
:10132000F83F3C780E6006E007C00300030003FEB0
:1013300003FE03C007C006C00EC03CF0F83FE00F3C
:1013400000000000000000000000000000000C3061
:101350000C300C300C300C300C300C30FC3FFC3FAF
:101360000C300C300C300C300C300C300C300C309D
:1013700000000000000000000000000000008001EC
:101380008001800180018001800180018001800155
:101390008001800180018001800180018001800145
:1013A0000000000000000000000000000000000637
:1013B00000060006000600060006000600060006FD
:1013C000000600060006180618063807F003E001BC
:1013D00000000000000000000000000000000630D7
:1013E0000618060C060606038601C600660076008F
:1013F000DE008E0106030606060C0618063006609F
:1014000000000000000000000000000000001800C4
:10141000180018001800180018001800180018000C
:10142000180018001800180018001800F81FF81FFE
:1014300000000000000000000000000000000EE0BE
:101440001EF01EF01EF036D836D836D836D866CC08
:1014500066CC66CCC6C6C6C6C6C6C6C686C386C366
:1014600000000000000000000000000000000C3040
:101470001C303C303C306C306C30CC30CC308C315B
:101480000C330C330C360C360C3C0C3C0C380C304A
:101490000000000000000000000000000000E00765
:1014A000F81F1C380E70066003C003C003C003C0E1
:1014B00003C003C003C006600E701C38F81FE007AD
:1014C0000000000000000000000000000000FC0F11
:1014D000FC1F0C380C300C300C300C300C18FC1F7E
:1014E000FC070C000C000C000C000C000C000C00A5
:1014F0000000000000000000000000000000E00705
:10150000F81F1C380E70066003E003C003C003C060
:1015100003C003C007E006630E3F1C3CF83FE0F742
:1015200000C0000000000000000000000000FE0FEE
:10153000FE1F06380630063006300638FE1FFE074E
:1015400006030606060C0618061806300630066066
:101550000000000000000000000000000000E003A8
:10156000F80F1C0C0C180C180C001C00F803E00FF2
:10157000001E0038063006300E301C1CF80FE00745
:101580000000000000000000000000000000FE7FDE
:10159000FE7F800180018001800180018001800147
:1015A0008001800180018001800180018001800133
:1015B00000000000000000000000000000000C30EF
:1015C0000C300C300C300C300C300C300C300C303B
:1015D0000C300C300C300C300C301818F81FE007B1
:1015E0000000000000000000000000000000036098
:1015F0000630063006300C180C180C18180C180C95
:10160000380E30063006700760036003C001C00169
:101610000000000000000000000000000000036067
:10162000C361C361C3616633663366336633663351
:1016300066336C1B6C1B6C1B2C1A3C1E380E380E50
:1016400000000000000000000000000000000FE0AB
:101650000C7018303018700C600EC00780038003C7
:10166000C003E006700C301C18180C300E6007E048
:10167000000000000000000000000000000003C0A7
:1016800006600C301C383818300C6006E007C003C8
:101690008001800180018001800180018001800142
:1016A0000000000000000000000000000000FC7FBF
:1016B000FC7F006000300018000C00060003800171
:1016C000C0006000300018000C000600FE7FFE7FA6
:1016D0000000000000000000000000000000E00327
:1016E000E003600060006000600060006000600077
:1016F00060006000600060006000600060006000EA
:10170000600060006000E003E003000000003000C3
:101710003000600060006000C000C000C000C00178
:101720008001800180010003000300030006000621
:101730000000000000000000000000000000E003C6
:10174000E0030003000300030003000300030003A1
:101750000003000300030003000300030003000371
:10176000000300030003E003E003000000000000AA
:10177000C001C00160036003600330063006180C2E
:10178000180C000000000000000000000000000035
:101790000000000000000000000000000000000049
:1017A0000000000000000000000000000000000039
:1017B0000000000000000000000000000000FFFF2B
:1017C000FFFF0000000000000000000000000C000F
:1017D0000C000C000C000C000C00000000000000CD
:1017E00000000000000000000000000000000000F9
:1017F00000000000000000000000000000000000E9
:101800000000000000000000F003F8071C0C0C0CA6
:10181000000FF00FF80C0C0C0C0C1C0FF80FF0184C
:1018200000000000000000000000000000001800A0
:101830001800180018001800D803F80F380C1818F2
:1018400018181818181818181818380CF80FD80382
:101850000000000000000000000000000000000088
:101860000000000000000000C003F007300E180C5C
:101870001800180018001800180C300EF007C003EC
:101880000000000000000000000000000000001840
:101890000018001800180018C01BF01F301C181882
:1018A00018181818181818181818301CF01FC01B12
:1018B0000000000000000000000000000000000028
:1018C0000000000000000000C003F00F300C1818EA
:1018D000F81FF81F180018003818301CF00FC00748
:1018E0000000000000000000000000000000800F69
:1018F000C00FC000C000C000F007F007C000C0006B
:10190000C000C000C000C000C000C000C000C000D7
:1019100000000000000000000000000000000000C7
:101920000000000000000000E00DF80F180E0C0C85
:101930000C0C0C0C0C0C0C0C0C0C180EF80FE00D15
:10194000000C0C0C1C06F807F00100000000180049
:101950001800180018001800D807F80F381C1818BD
:1019600018181818181818181818181818181818F7
:101970000000000000000000000000000000C000A7
:10198000C000000000000000C000C000C000C00097
:10199000C000C000C000C000C000C000C000C00047
:1019A0000000000000000000000000000000C00077
:1019B000C000000000000000C000C000C000C00067
:1019C000C000C000C000C000C000C000C000C00017
:1019D000C000C000C000F8007800000000000C004B
:1019E0000C000C000C000C000C0C0C060C038C0101
:1019F000CC006C00FC009C018C030C030C060C0C4E
:101A00000000000000000000000000000000C00016
:101A1000C000C000C000C000C000C000C000C000C6
:101A2000C000C000C000C000C000C000C000C000B6
:101A300000000000000000000000000000000000A6
:101A400000000000000000007C3CFF7EC7E383C173
:101A500083C183C183C183C183C183C183C183C166
:101A60000000000000000000000000000000000076
:101A700000000000000000009807F80F381C18183C
:101A800018181818181818181818181818181818D6
:101A90000000000000000000000000000000000046
:101AA0000000000000000000C003F00F300C181808
:101AB00018181818181818181818300CF00FC00338
:101AC0000000000000000000000000000000000016
:101AD0000000000000000000D803F80F380C1818B0
:101AE00018181818181818181818380CF80FD803E0
:101AF000180018001800180018000000000000006E
:101B00000000000000000000C01BF01F301C18186F
:101B100018181818181818181818301CF01FC01B9F
:101B2000001800180018001800180000000000003D
:101B30000000000000000000B007F003700030005B
:101B40003000300030003000300030003000300015
:101B50000000000000000000000000000000000085
:101B60000000000000000000E003F003380E180C35
:101B70003800F003C007000C180C380EF007E00323
:101B80000000000000000000000000000000000055
:101B90008000C000C000C000F007F007C000C00017
:101BA000C000C000C000C000C000C000C007800767
:101BB0000000000000000000000000000000000025
:101BC0000000000000000000181818181818181855
:101BD00018181818181818181818381CF01FE019B9
:101BE00000000000000000000000000000000000F5
:101BF00000000000000000000C18180C180C180C55
:101C0000300630063006600360036003C001C00187
:101C100000000000000000000000000000000000C4
:101C20000000000000000000C141C141C3616363C6
:101C3000636363633636363636361C1C1C1C1C1C2C
:101C40000000000000000000000000000000000094
:101C500000000000000000001C38381C300C60063A
:101C600060036003600360036006300C381C1C389E
:101C70000000000000000000000000000000000064
:101C800000000000000000001830301830187018F4
:101C9000600C600CE00CC006C0068003800380036B
:101CA00080018001C001F000700000000000000011
:101CB0000000000000000000FC1FFC1F000C0006DC
:101CC00000038001C000600030001800FC1FFC1FF2
:101CD0000000000000000000000000000000000301
:101CE0008001C000C000C000C000C000C000600093
:101CF0006000300060004000C000C000C000C000B4
:101D0000C000C0008001000300000000000080014E
:101D100080018001800180018001800180018001BB
:101D200080018001800180018001800180018001AB
:101D300080018001800180018001000000006000BE
:101D4000C000C0018001800180018001800100038A
:101D50000003000600030001800180018001800172
:101D600080018001C0006000000000000000000051
:101D7000000000000000000000000000F010F81F4C
:101D8000080F00000000000000000000000000003C
:0C1D900000000000000000000000000047
:101D9C000100D071000000000000000000000000F5
:101DAC000000000000000000000000000000000027
:041DBC00FFFF000025
:04000005080000C52A
:00000001FF
