:020000040800F2
:1000000000580020E5000008E1000008E1000008B9
:10001000E1000008E1000008E10000080000000025
:10002000000000000000000000000000E1000008E7
:10003000E100000800000000E100000835050008AC
:1000400000000000000000000000000000000000B0
:1000500000000000000000000000000000000000A0
:100060000000000000000000000000000000000090
:100070000000000000000000000000000000000080
:100080000000000000000000000000000000000070
:100090000000000000000000000000000000000060
:1000A0000000000000000000000000000000000050
:1000B0000000000000000000000000000000000040
:1000C0000000000000000000000000000000000030
:1000D00000000000450500080000000000000000CE
:1000E000FEE700BF1A4A1B498A4208B50CD2013903
:1000F000891A194B21F003010431194453F8040BF8
:1001000042F8040B8B42F9D1144A15498A420CD2A9
:100110000139891A134B21F003010431194453F8B2
:10012000040B42F8040B8B42F9D10F4B0F4A934258
:100130000AD2013AD21A22F0030204321A440021F0
:1001400043F8041B9342FBD100F036FAFEE700BFF0
:1001500000000020500000200C0900085000002082
:10016000500000205C09000850000020A80000207A
:10017000F1B170B500EB010E0E4D0F490F4E013875
:100180000EF1FF3E10F8014F0D4B01E0013B0BD08B
:10019000CA691206FAD58C6233680133336033685A
:1001A000EB607045EED170BD2B6C01332B64F8E72A
:1001B000704700BF0000002000380140A000002070
:1001C0008196980030B587B040B930230121684648
:1001D0008DF80030FFF7CCFF07B030BD03AC104DF9
:1001E000A4460021A5FB0023DB0803EB8302A0EB60
:1001F000420286463032BEF1090F0CF8012B01F1A4
:1002000001011846EED868466318024613F801CD7E
:1002100002F801CB9C42F9D1FFF7AAFF07B030BD2D
:10022000CDCCCCCC2049214A10B40C6E44F480448F
:100230000C660C6ECC6C4FF0904344F00104CC641F
:10024000C96C196821F4402141F4002119605968F2
:1002500021F400715960596A21F0F00141F07001F8
:100260005962196821F4401141F40011196059686C
:1002700021F480615960596A21F4706141F4E061B0
:10028000596200244FF0FF314FF0E0231460D0603A
:1002900054602D209460D4621162202110605DF8BA
:1002A000044BC3F8041170470010024000380140AD
:1002B000F8B5924B1968002929D0914A1378282B58
:1002C00079D0012924D08E48FFF752FF8D4B8E49FB
:1002D00001E0013B6AD0CA691006FAD58B4B8C4C01
:1002E0000D228A621A6801321A601B68E360854B2E
:1002F000854901E0013B55D0CA691206FAD5834B06
:100300000A228A621A6801321A601B68E360F8BD2B
:100310003F2B00F0D780232BD5D17A4B7A4902E0CE
:10032000013B00F0CA80CA691406F9D5774B784CB6
:1003300028228A621A6801321A601B68E360754BD2
:100340001868FFF73FFF6F4B6F4902E0013B00F079
:10035000AC80CA691006F9D56C4B2C228A621A68E7
:1003600001321A601B68E3606B4B684E1868FFF738
:1003700029FF6A486449C51C10F8017B614B02E003
:10038000013B00F09680CA691206F9D58F62336886
:10039000013333603368E360A842EDD1236B01334E
:1003A0002363F8BD236C01332364F8BD584C236CE0
:1003B000013323649BE704295CD90024964601237A
:1003C000A44606E00133994200EB460C04F1010417
:1003D00050D01EF8010F3038C5B2092D0CEB8C0639
:1003E000F0D9002C46D0994244D9D05C2C2802EB9D
:1003F00003043FD1013399423CD90020864606E0F0
:100400000133994205EB470E00F1010032D914F88F
:10041000015F303DEEB2092E0EEB8E07F0D948B3E6
:10042000994227D9D25C292A24D10133994221D17A
:10043000374C384A384B3A483349344EC4F834C004
:10044000C2F800C0C3F800E0C4F838E000F10805C5
:1004500010F8017F2B4B01E0013B67D0CA691206FF
:10046000FAD58F623368013333603368E360A842A2
:10047000EED193E72B48264C2349244E451D10F816
:10048000017B204B01E0013B0BD0CA691206FAD573
:100490008F623368013333603368E360A842EED182
:1004A000F8BD236C01332364F8E7236C0133236424
:1004B0005AE7236C013323646EE7154C236C013338
:1004C00023643CE71848124C0F49104F861D10F862
:1004D000015B0C4B01E0013B0BD0CA691206FAD557
:1004E0008D623B6801333B603B68E360B042EED114
:1004F00054E7236C01332364F8E700BF5C0000205D
:10050000600000208196980000380140A000002083
:10051000000000205800002054000020EC080008D3
:10052000FF080008E4080008F8080008236C0133FD
:1005300023649CE7024A136801331360704700BFCD
:10054000A4000020184AD36998060AD4190744BFAA
:10055000082111625B0603D5134B40221A627047D3
:1005600070471249536A4A69DBB2013210B54A61D9
:100570008B610A690E4C01320D2B0A6122680BD087
:100580000A2B09D03E2A04D80A48511C8354216002
:100590000A463F2A02D010BD002AFCD0FFF788FE91
:1005A0000023236010BD00BF003801400000002080
:1005B0005C000020600000202DE9F04F4FF0E023A8
:1005C0004FF470029DB0C3F8882DBFF34F8FBFF377
:1005D0006F8F9C4A136843F48033136013689D0344
:1005E000FCD5994BD3601368964943F08073136030
:1005F0000B689C01FCD5954B02221A608B68914ACE
:1006000043F003038B60936803F00C030C2BFAD1C7
:100610004FF0E0238E485861002407219C61196146
:10062000D16C8C4B8C488D4E41F00C01D164D26C56
:100630001A6822F030024FF4802142F010021A6052
:1006400099614269D2B242F47F42426104229A61C6
:1006500042F28D009961FFF7E5FD814BDB68F361A4
:10066000804B214613F8014F0131002CFAD17E4F07
:100670007C48DFF800B27A4DDFF8DC91FFF778FDB7
:100680003B68F3602246B460784C11460DF16F0A66
:10069000F36B0133F363D6F80480414500F08F809B
:1006A0003369B36408F1FF33C6F808800192062B62
:1006B00000F2BD80DFE813F0E000A3007600330015
:1006C000BB00BB00070040F2B720FFF7ABFDEB68B3
:1006D000019AF3614FF0553103AB43F8041B1CA89A
:1006E0008342FAD10DF10B00216884461CF801EF1A
:1006F0005F4B02E0013B00F0EE80E8690006F9D5AF
:10070000C5F828E03B6801333B603B68F360D445A3
:10071000ECD13B68F36023685B1A73644DE042F2EE
:100720008D00FFF77FFD2B68019A23F020032B60DB
:10073000EB6913F0200F18BF6B6A082100232962B0
:100740007362B362F362EB6999060AD44FF4C8701E
:10075000216823689942FCD0EB699B0601D40138DB
:10076000F6D1EB69190758BF4FF4C87008D4216857
:1007700023689942FCD0EB691B0701D40138F6D1FC
:10078000EB69C3F3C003736208232B62EB69C3F305
:10079000C003B3626B6ADBB2F3622B6843F02003E1
:1007A0002B600AE042F28D00FFF73CFD4FF09041D4
:1007B000019A0B6823F440130B60C6F808803B686D
:1007C000F36023689B1AB3F5FA7F16D3DBF8003089
:1007D0002268B3FA83F35B09CBF80030D9F8141020
:1007E0001B02C9B283F47F430B43C9F81430194B81
:1007F000042199614FF480219961414648E742F212
:100800008D00FFF70FFD4FF09040019A036823F42D
:1008100040230360134B002113F8010F013100281E
:10082000FAD110480192FFF7A3FC019AC5E742F202
:100830008D00FFF7F7FCEB68019AF3614FF00008B9
:10084000BBE700BF0010024023140001002002405B
:100850007F380100000C004800080048000000201C
:1008600000380140F0080008A0000020A40000208B
:10087000819698005000002042F28D00FFF7D2FCD4
:10088000EB68019AF3614FF0543103AB43F8041B5A
:100890001CA88342FAD10DF10B00216884461CF894
:1008A00001EF0F4B01E0013B11D0E8690006FAD5DA
:1008B000C5F828E03B6801333B603B68F360E245E4
:1008C000EDD13B68F36023685B1A336275E7336CE4
:1008D00001333364F3E7336C0133336417E700BF4C
:1008E000819698004572720D0A000000290D0A00D9
:1008F00048454C4C4F0D0A0049646C650D0A0000D8
:0C090000476F742069740D0A00000000AD
:10090C0005EEFFC000000000000000000000000029
:10091C0000000000000000000000000000000000CB
:10092C0000000000000000000000000000000000BB
:10093C0000000000000000000000000000000000AB
:10094C00000000000000000000000000000000009B
:04000005080000E50A
:00000001FF
