:020000040800F2
:1000000000580020C5000008C1000008C100000819
:10001000C1000008C1000008C10000080000000085
:10002000000000000000000000000000C100000807
:10003000C100000800000000C10000088D02000897
:1000400000000000000000000000000000000000B0
:1000500000000000000000000000000000000000A0
:100060000000000000000000000000000000000090
:100070000000000000000000000000000000000080
:1000800000000000000000009504000800000000CF
:100090000000000000000000000000000000000060
:1000A00000000000ED030008000000000000000058
:1000B00049030008390300080000000000000000A8
:1000C000FEE700BF1A4A1B498A4208B50CD2013923
:1000D000891A194B21F003010431194453F8040B18
:1000E00042F8040B8B42F9D1144A15498A420CD2CA
:1000F0000139891A134B21F003010431194453F8D3
:10010000040B42F8040B8B42F9D10F4B0F4A934278
:100110000AD2013AD21A22F0030204321A44002110
:1001200043F8041B9342FBD100F0B6F9FEE700BF91
:100130000000002044000020B42D000844000020EE
:1001400050000020F82D000850000020C0010020C1
:10015000F0B5864685B0A9B930238DF8043001206A
:1001600001AE824203DD30238DF8053002203318C2
:100170000EF1FF3213F8011D02F8011F9E42F9D162
:1001800005B0F0BD01AE0A4F34460020A7FB015375
:10019000DB0803EB830CA1EB4C0C0D460CF1300C8F
:1001A000092D04F801CB00F101001946EED8D8E77B
:1001B000CDCCCCCCF8B5214F214E3B88C34000EBD1
:1001C0004002DB07054606EBC2060C4610D50B467F
:1001D000324604E012F8010B38B1814208D19C4646
:1001E00013F8011B96460029F4D19CF80030FBB1AE
:1001F000144B2146585D01F041FA237873B1214632
:1002000006F1FF3C002201E0172A0FD00CF8013F55
:1002100011F8013F0132002BF6D116443988012331
:10022000AB4000220B4332703B80F8BD1736F5E738
:100230009EF80030002BDBD1F8BD00BF5400002039
:1002400058000020A81B000810B50446002000F04C
:1002500065FF4FF4FC6000F055FF4FF4FC6000F0C8
:1002600051FF21460020FFF7A5FF4FF6FF7000F079
:1002700049FF04490120FFF79DFF034A136C013336
:10028000136410BDA81A000800000020234A244966
:1002900013680133136009694FF09040CB4303F0BA
:1002A000010311F0020F006908BF43F00203490780
:1002B00058BF43F00403C1071A49086858BF43F008
:1002C0000803984206D0184812680B600260174A6B
:1002D00053617047144912680968521A072AF6D9FF
:1002E000134A11689942F2D010B4124C136023EAF9
:1002F000010100224FF0010C0CFA02F0084204D078
:1003000054F82200013044F822000132042AF3D1CB
:10031000064A5DF8044B5361704700BFB8010020E6
:100320000004004880010020780100200000002027
:100330007C010020840100204FF080436FF0010217
:10034000C3F81024704700BF4FF080431B69D907E2
:1003500005D49A0725D51E4A6FF0020108E01C4A11
:1003600011689B0701F10101116014D56FF00301C1
:100370004FF080431748F0B45E6B036893B9164C96
:10038000164D2E6012682260012303604FF08043F7
:10039000F0BC196170474FF080436FF001011961A3
:1003A000704770470C4C13680C4D2768A3EB070C83
:1003B0002B680B4FF31A03EB0C433B60002BE0D090
:1003C000DFF824C0074FB7FBF3F3CCF80030D8E7D1
:1003D00070010020600100206401002068010020FD
:1003E0006C01002040420F0074010020214BD3F823
:1003F0001034D90705D49A0725D51F4A6FF002019A
:1004000008E01D4A11689B0701F10101116014D534
:100410006FF00301174B1948F0B4D3F83464036844
:1004200093B9174C174D2E601268226001230360A8
:10043000104BF0BCC3F8101470470E4B6FF0010165
:10044000C3F81014704770470D4C13680D4D2768A2
:10045000A3EB070C2B680C4FF31A03EB0C433B6028
:10046000002BE0D0DFF828C0084FB7FBF3F3CCF83F
:100470000030D8E70040014058010020480100202A
:100480004C010020500100205401002040420F0088
:100490005C010020704700BF2DE9F04F4FF0E023D2
:1004A0004FF4700293B0C3F8882DBFF34F8FBFF3A2
:1004B0006F8F03F1C04303F598331A6842F480321A
:1004C0001A601A689203FCD5B34ADA601A68B34915
:1004D00042F080721A600B689B01FCD5B04B02227F
:1004E0001A608B68AD4A43F003038B60936803F096
:1004F0000C030C2BFAD14FF0E0230020A94C5C61D7
:10050000072198611961D16CA74BA84C41F00F01EC
:10051000D164D26C1A6822F030024FF4802142F08C
:1005200010021A6099616269D2B242F47F4262613C
:100530009F4C4FF0904204259D619961E0601368E3
:100540009C4D23F0030313602B6823F03F032B60C3
:1005500001F08CFA2A684FF0A043012142F0434297
:100560002A6099601A68D707FCD54FF010429A604C
:100570004FF0A0439A68002AFCDB01229A604FF0FA
:10058000A0431A68D607FCD507210020D8604FF495
:100590003072596101211A634FF0A042C3F808116B
:1005A000D2F80031DD07FBD54FF01043C2F8083117
:1005B0004FF0A043D3F80821002AFBDB0122C3F847
:1005C00008214FF0A043D3F8002112F00102FAD025
:1005D000099200210722C3F80C11704DC3F81421B1
:1005E0004FF47072C3F83021AB6DDFF8FC91DFF887
:1005F000FC81DFF8FCA1DFF8FCB14FF0904043F044
:100600000203AB65026822F4404242F400420260F9
:10061000026A4FF0804322F070424F2742F00052AE
:1006200040F2E73C0262C3F80014C3F82874C3F830
:100630002CC44FF4FA7CC3F838C44FF4D04CC3F840
:1006400018C44FF0E0264FF0100CC3F820C401226C
:100650004FF0005CC3F81424C3F81014C3F80C2442
:10066000C6F800C1C3F80024D5F858C04CEA020C03
:10067000C5F858C0D0F800C02CF0404C4CF0004CED
:10068000C0F800C0D0F824C02CF0704C4CF0805C56
:10069000C0F824C0484819604FF6FF7E4FF0030CA5
:1006A0009F62C3F82CE09A611A62C3F80CC05A61C9
:1006B0001961CAF80010C9F80010C8F800100160EC
:1006C0004FF08050C6F800011A602B6EDFF82891B9
:1006D000DFF8288143F480332B66364D374B28688A
:1006E00020F4407040F400702860286A20F47020E4
:1006F00040F4803028623248C3F80014C3F82874EC
:10070000C3F82CE4C3F81824C3F82024C3F80CC49D
:10071000C3F81424C3F8101401602A482A4D01605C
:100720002A4801602A4801604FF00070C6F80001B5
:10073000C3F80024D9F80030A16058F82300DBF892
:100740000030A361CDE90511CDE90711214EE0612B
:100750000A46A16204910291E36B0133E36361688D
:1007600001918A420CD01C4B00221A601B4BA3FB48
:10077000013222F0010303EB5203194ACB1A136032
:1007800000234FF0804C55F82320002A00F0B6805B
:10079000144A126848E000BF231400010010024010
:1007A000002002407F380100000C0048000800488B
:1007B00000000020000400486001002000400140CB
:1007C000500100204C01002084010020580100202D
:1007D0004801002094010020B0010020ABAAAAAA81
:1007E000B4010020A8010020640100207001002055
:1007F000680100204800002044000020D41B0008AD
:10080000022B4ED03BBBDBF80000D9F8001080F083
:100810000100CBF8000058F82110A061E161A2624C
:1008200055F82310002963D055F82310013945F8F5
:10083000231056F82310012B01F1010146F8231073
:10084000DED1D9F80010DBF80000013101F003011E
:10085000C9F80010DFE7A849A84F096800203860F0
:10086000A74F0131A7FB0107D9F8000058F820E095
:10087000DBF80000A06127F0010000EB5700091A27
:100880009D48C4F81CE0A2620160E968002939D0E3
:10089000E9680139E960F168022B01F10101F160B9
:1008A000B0D1013202F00301964F9748974A396060
:1008B00052F8212050F821109548B0FBF1F102299F
:1008C00038BF0221934801FB02F202F5FA72A0FB45
:1008D0000202013992098A4228BF0A46CCF82C1438
:1008E000CCF83824DBF80000D9F800103A6892E719
:1008F000013355F82320002A7FF44AAF0133042B3B
:100900007FF441AF32687168B3681B0443EA012386
:100910001343F26843EA026323617F4B029A1B6828
:100920009B1A092B61D8754A1768002F3CD1012307
:100930003846136000F058FE784B1F806E4B1B68E2
:10094000002B00F0D580012B00F02C83744B1B682A
:10095000012B00F03781734F734A022B18BF1746E3
:10096000002000F041FE7148FFF76EFC4FF6E0708A
:1009700000F0C8FB6E490320FFF71CFC4FF6FF7028
:1009800000F0C0FB39460520FFF714FC47F6FF7066
:1009900000F0B8FB08206749FFF70CFC4FF6FF702A
:1009A00000F0B0FB019AD7E65B4A049913685B1A22
:1009B000B3F5FA7FF6D3504BD3F800A01368049335
:1009C000BAF1000F00F00C81BAF1020FEAD1544BDA
:1009D0001B68012B00F039835249534A022B18BF80
:1009E00011460520FFF7E6FBDCE74B4A4FF0A0413C
:1009F000126802920523C1F808314F4B01E0013B18
:100A000003D0D1F800215007F9D54FF0A0410523BC
:100A1000D1F840018B60484B01E0013B02D00A68ED
:100A20005207FAD54FF0A04340F6E4411B6C434F08
:100A300001FB00F201FB03F3A7FB0201A7FB03701C
:100A4000521A1B1A01EB520100EB5303CA0ADB0ACC
:100A500062630693A3633A4B05921B682362394B8A
:100A60002B481B6863624FF08041234B1A68D1F812
:100A70002C340133B0FBF3F3E362D1F83834D1F80E
:100A80002C144FF47A70022A01F1010100FB03F3E8
:100A9000B3FBF1F32363A2605ED0D9F800301E48A7
:100AA00058F82320079903685B1A9342FFF43BAF81
:100AB000DBF800302449002B0A68099B08BF072394
:100AC000134403F007030B60204A01219940036897
:100AD00007935069CB431B029BB2C0B203435361DF
:100AE0001B4B04229A614FF480229A61E1601AE75D
:100AF0001848FFF7A9FB55E7B4010020B00100201A
:100B0000ABAAAAAAA8010020C41B0008B41B0008B5
:100B100040420F00D34D6210B80100205400002065
:100B2000A4010020C01A0008CC1A0008081B000805
:100B3000181B0008201B0008A186010001011000FD
:100B4000740100205C010020AC0100200008004876
:100B5000000C0048DC1A00081B48089B02681B4F69
:100B6000D21AB2F5C87F3B68C0F06882184A0133D8
:100B7000A2FB032121F0010202EB51029B1A012B7F
:100B800002683B60089200F06282002B85D00E4A1A
:100B9000079913685B1AC72B7FF6C5AE0D490E483F
:100BA0000B68012B83F001030B6013684269079304
:100BB0000CBF5521AA210B02D2B283F47F43134309
:100BC00043618DE7054FCBE6B8010020A40100206A
:100BD000ABAAAAAA5000002000080048B81A0008D2
:100BE000CD4BCE481B6803930CAB0A9319464C229D
:100BF000574601F8012B10F8012F0137002AF8D1D0
:100C0000C74B196807F13003013101220DEB0300D6
:100C1000FFF79EFADBF800103A18C24FC2480CAB3F
:100C200000290CBFBE468646571E1F447046202131
:100C300007F8011F844610F8011F0029F8D1571C3E
:100C4000A7EB0E076744D9F8002007F1300358F8E6
:100C500022100DEB03000122FFF77AFA3A18511E19
:100C60000CABB24819446D2701F8017F10F8017FE1
:100C70000132002FF8D102F148030DEB03020CA959
:100C8000022002F8187CFFF795FAA9483B460CA908
:100C90004B2701F8017B10F8017F0133002FF8D1B9
:100CA000CDF82CA09A460AF1300356F827100122FD
:100CB0000DEB0300FFF74CFA00EB0A0303F14802C7
:100CC00001376A444FF02001042F02F8181C03F189
:100CD000010AE8D1534648330DEB03020CA94FF04B
:100CE0000003032002F8183CDDF82CA0FFF762FA9D
:100CF000904B4B210CAF002207F8011B13F8011F8A
:100D0000104601320029F7D10CAB03991A44012790
:100D100007FA0AF30B420AF1010A0CBF2D23312313
:100D2000BAF1040F02F8013BF2D100F148030DEBD8
:100D300003004FF0000300F8133C0CA95046FFF7E6
:100D400039FA7D4949230CAA002702F8013B11F822
:100D5000013F0137002BF8D1784BDFF80CA219685E
:100D600007F1300301220DEB0300FFF7F1F93B1807
:100D70000CA95A1E0A444827514602F8017F11F86F
:100D8000017F0133002FF8D148336B440CA90520B3
:100D900003F8187CFFF70EFA69490CAA492302F8F8
:100DA000013B11F8013F0137002BF8D1654B196861
:100DB00007F1300301220DEB0300FFF7C9F93B18DF
:100DC0005A1E0CA90A44482702F8017F1AF8017F2D
:100DD0000133002FF8D148336B440CA9062003F8E7
:100DE000187CFFF7E7F958490CAA4F2302F8013B9A
:100DF00011F8013F0137002BF8D14FF08043012259
:100E0000D3F82C14514B0131B3FBF1F107F130034E
:100E10000DEB0300FFF79CF907440CAA7B1E13445B
:100E20004FF0480A4A4A514603F8011F12F8011FC1
:100E300001370029F8D1474B8A46196807F130037A
:100E4000012201310DEB0300FFF782F907F148039E
:100E50000DEB030707440CA9072007F818ACFFF7B0
:100E6000A9F93D4A0A99522301F8013B12F8013FC2
:100E70000AF1010A002BF7D1059B384AA2FB033780
:100E8000BF090AF13003394601220DEB0300FFF7D9
:100E90005FF90AEB00030598314A03F1010A4FF4A8
:100EA0007A71483301FB17016B44A2FB01212E220A
:100EB00003F8182C0AF1300302220DEB0300C908D5
:100EC000FFF746F982440CAA0AF1FF331344254A7E
:100ED000562703F8017F12F8017F0AF1010A002F5B
:100EE000F7D1069A1D4BA3FB02310AF130038909A1
:100EF0000DEB030001220391FFF72AF9069A0399EB
:100F0000DFF85CC00AEB000303F1010A4FF47A70CA
:100F1000483300FB112129E07C010020341B00082C
:100F2000AC010020D81A0008D41A00083C1B0008A5
:100F3000401B00084C1B0008581B000874010020CF
:100F4000681B00085C010020741B000840420F0071
:100F5000801B0008A8010020881B0008D34D6210E8
:100F6000CDCCCCCC901B0008641B00086B44ACFBC0
:100F700001212E2203F8182C0AF130030DEB030097
:100F8000C9080222FFF7E4F80AEB000348336B4478
:100F9000562203F8182C0CA9082003F8177CFFF739
:100FA00009F9FFE4384600F01FFB2F48FFF74CF922
:100FB0002E4B039340F23F17039B33F8020F03932A
:100FC00000F0A0F84FF0340A50460AF1010A00235D
:100FD000242239465FFA8AFA00F074FBBAF1580FFE
:100FE000F2D1283FBFB24FF6FF739F42E4D138469B
:100FF00000F088F87823282240F23B11642000F0AA
:101000005BFC47F6FF7000F07DF822224F21BE20E6
:1010100000F094FB4FF4784000F074F81449062077
:10102000FFF7C8F84FF6E07000F06CF811490720A0
:10103000FFF7C0F8384600F065F8B3E4002B3FF442
:101040002CAD022B7FF46FACA1E50B49C9E40B4931
:101050000B4A4B69DBB24B61042393614FF480234D
:101060009361FF23E3605EE4EC1A0008961B00081E
:10107000FC1A0008001B0008B81A00080008004805
:10108000000C00482DE9F0410C6800224FF0010EE1
:101090004FF0030C0EFA02F8560014EA080F0CFA8F
:1010A00006F502F101021FD04B680768003B18BF2C
:1010B000012327EA0507B3403B43036047688B6879
:1010C00027EA08074760876803F0030327EA050754
:1010D000B3403B438360CB68C76803F00303B3406E
:1010E00027EA05052B43C360102AD3D1BDE8F08160
:1010F000034A116813685B1A8342FBD3704700BF31
:10110000B801002082B0044AADF80600BDF80630F0
:101110009BB2138002B07047BE01002082B0044A27
:10112000ADF80600BDF806309BB2138002B07047E0
:101130004C000020184B9A6A42F4007210B49A6274
:101140009A6A164C42F480729A629A6942F02002BE
:101150009A6160619A6A42F020029A6200BF00BF01
:1011600000BF9A6942F020029A619A6942F4807243
:101170009A6161619A6A42F020029A6200BF00BFE0
:1011800000BF9A695DF8044B42F020029A619A69A7
:1011900042F480729A6170470004004800080048D9
:1011A00008B500200121FFF7C5FF01460120FFF728
:1011B000C1FF41F290711020FFF7BCFF4FF41C51AA
:1011C0006020FFF7B7FF01216120FFF7B3FF022185
:1011D0004620FFF7AFFF48F210011320FFF7AAFFE8
:1011E00048F2FE011220FFF7A5FF4FF4A061022094
:1011F000FFF7A0FF41F230010320FFF79BFF40F211
:1012000003313020FFF796FF3120FFF793FF3220A4
:10121000FFF790FF4FF440713320FFF78BFF03215E
:101220003420FFF787FF40F203313520FFF782FFBC
:1012300014213620FFF77EFF40F203313720FFF7FD
:1012400079FF3820FFF776FF3920FFF773FF4FF45F
:1012500040713A20FFF76EFF03213B20FFF76AFF42
:1012600040F203313C20FFF765FF4FF4A0513D20D1
:10127000FFF760FF4FF400719220FFF75BFF40F231
:1012800003319320FFF756FF40F60D019020FFF742
:1012900051FF41F218010320FFF74CFFBDE8084061
:1012A00040F273110720FFF745BF00BF08B543F2B6
:1012B0000801E320FFF73EFF1221E720FFF73AFF86
:1012C00041F23121EF20FFF735FF00210120FFF728
:1012D00031FF4FF4E0610220FFF72CFF41F23001B3
:1012E0000320FFF727FF00210420FFF723FF40F230
:1012F00007210820FFF71EFF00210920FFF71AFF32
:101300000A20FFF717FF0C20FFF714FF0D20FFF74F
:1013100011FF0F20FFF70EFF1020FFF70BFF072133
:101320001120FFF707FF00211220FFF703FF132012
:10133000FFF700FFC820FFF7DBFE41F290611020AD
:10134000FFF7F8FE40F227211120FFF7F3FE3220CD
:10135000FFF7CEFE1D211220FFF7ECFE3220FFF733
:10136000C7FE4FF400611320FFF7E4FE142129208B
:10137000FFF7E0FE0B212B20FFF7DCFE3220FFF70A
:10138000B7FE00212020FFF7D5FE2120FFF7D2FE77
:1013900007213020FFF7CEFE40F207713120FFF722
:1013A000C9FE06213220FFF7C5FE40F20471352048
:1013B000FFF7C0FE41F604713620FFF7BBFE0421A3
:1013C0003720FFF7B7FE00213820FFF7B3FE40F2C9
:1013D00006713920FFF7AEFE40F201713C20FFF7A5
:1013E000A9FE0F213D20FFF7A5FE00215020FFF7A9
:1013F000A1FEEF215120FFF79DFE00215220FFF7B3
:1014000099FE40F23F115320FFF794FE4FF41C5118
:101410006020FFF78FFE01216120FFF78BFE002186
:101420006A20FFF787FE8020FFF784FE8120FFF708
:1014300081FE8220FFF77EFE8320FFF77BFE842063
:10144000FFF778FE8520FFF775FE10219020FFF74B
:1014500071FE00219220FFF76DFE03219320FFF71C
:1014600069FE4FF488719520FFF764FE00219720F4
:10147000FFF760FE9820FFF75DFE41F218010320A0
:10148000FFF758FEBDE8084040F273110720FFF750
:1014900051BE00BF2DE9F041264C274DA36A43F40D
:1014A000007384B0A362A36A43F48073A362A36948
:1014B00043F02003A3616861A36A43F02003A362A1
:1014C00000BF00BF00BFA36943F02003A361A3696D
:1014D00043F48073A36100264FF6FF730327694628
:1014E00028460093019603960297FFF7CBFD4FF035
:1014F00090439A6A42F480729A6200BF00BF00BFB4
:10150000D5F810809A6942F480729A6128464FF6A5
:10151000FF7201236946CDE90023CDE90276FFF78A
:10152000B1FDA3691FFA88F043F40073A36104B00E
:10153000BDE8F0810004004800080048134B14493E
:101540009A6A42F400729A629A6A42F480729A62CB
:101550009A69222042F020029A6148619A6A42F018
:1015600020029A6200BF00BF00BF9A6942F02002C9
:101570009A619A6942F480729A6100BF00BF00BF0D
:101580009A6942F400729A61704700BF00040048F3
:1015900000080048124B13499A6A42F400729A629A
:1015A0009A6942F480729A619A6942F020029A61C3
:1015B00048619A6A42F020029A6200BF00BF00BFF1
:1015C0009A6942F020029A619A6942F480729A61A3
:1015D00000BF00BF00BF9A6942F400729A61704771
:1015E000000400480008004838B5002105462020C6
:1015F000FFF7A0FD2120FFF79DFDFFF79FFF4FF4B0
:1016000096342846FFF7C6FF013CFAD138BD00BF2B
:101610002DE9F04789468046014620201546FFF710
:1016200089FD49462120FFF785FD124F124E05F135
:10163000300AFFF783FF00242B882341DB0754BFC8
:1016400030883888013480B2FFF7A4FF102CF3D122
:1016500008F101085FFA88F841462020FFF76AFD8B
:10166000023549462120FFF765FD5545E1D1BDE82A
:10167000F08700BFBE0100204C0000200A78EAB1CC
:101680002DE9F0410E4E8846054640F23F144FF6D4
:10169000FF7701E0BC420FD0203AD2B202EB420207
:1016A00006EB021221462846FFF7B2FF18F8012F79
:1016B000103CA4B2002AEDD1BDE8F081704700BF14
:1016C000E41B00082DE9F0410F46064601462020A4
:1016D0001C461546FFF72EFD39462120FFF72AFD4F
:1016E000D4B1BDB10136DFF850800024F6B2FFF767
:1016F00025FFB8F8000080B2FFF74CFF3119202019
:10170000C9B2FFF717FD013439462120FFF712FD5A
:10171000AC42ECD1BDE8F081FFF710FF002DF9D00D
:10172000DFF81480B8F80000013480B2FFF732FF10
:10173000AC42F7D1BDE8F081BE0100202DE9F04FA9
:1017400053005C4D83B0904682468946C3F1030343
:1017500000270AE0A7EB080208F1FF3801370A3337
:10176000B84503EB8203C0F0A1805FFA87FB0AEB68
:101770000B021FFA88F4D2B204EB09061146B6B286
:10178000202001930092FFF7D5FC31462120FFF77E
:10179000D1FCFFF7D3FE288880B2FFF7FBFE009A4A
:1017A000A9EB04041146A4B22020FFF7C3FC214694
:1017B0002120FFF7BFFCFFF7C1FE2888AAEB0B0B27
:1017C0005FFA8BFB80B2FFF7E5FE59462020FFF75A
:1017D000B1FC31462120FFF7ADFCFFF7AFFE2888B2
:1017E00080B2FFF7D7FE59462020FFF7A3FC214621
:1017F0002120FFF79FFCFFF7A1FE28885FFA88F6FB
:1018000080B2FFF7C7FEBCB206EB0A02D2B209EB08
:10181000040B114620201FFA8BFB0092FFF78AFC75
:1018200059462120FFF786FCFFF788FE288880B202
:10183000FFF7B0FE009AA9EB040411462020A4B2E1
:10184000FFF778FC21462120FFF774FCFFF776FEB6
:101850002888AAEB060680B2F6B2FFF79BFE20208E
:101860003146FFF767FC59462120FFF763FCFFF77D
:1018700065FE288880B2FFF78DFE31462020FFF7F5
:1018800059FC21462120FFF755FCFFF757FE288819
:1018900080B2FFF77FFE019B002BBFF65BAF0633E4
:1018A00003EB87030137B845BFF45FAF03B0BDE872
:1018B000F08F00BFBE0100202DE9F84F8346894616
:1018C0000146202092461C46FFF734FC4946212061
:1018D000FFF730FCFFF732FE0BEB0A01CFB2002C12
:1018E00062D03C4D00262888013680B2FFF752FEB8
:1018F000A642F8D139462020FFF71CFC494621209A
:10190000FFF718FCFFF71AFE00262888013680B280
:10191000FFF740FEA642F8D159462020A9EB040467
:10192000FFF708FC013449462120FFF703FCA4B26D
:10193000BAF1000F43D00BF10108264D00265FFAE3
:1019400088F8FFF7FBFD288880B2FFF723FE08EB3D
:1019500006012020C9B2FFF7EDFB3746494621209A
:101960000136FFF7E7FBB245EBD159462020FFF7E0
:10197000E1FB21462120FFF7DDFB0026FFF7DEFD1E
:10198000288880B2FFF706FE08EB06012020C9B2C6
:10199000FFF7D0FB21462120FFF7CCFBBE4206F12A
:1019A0000106EBD1BDE8F88F39462020FFF7C2FBD6
:1019B00049462120FFF7BEFBFFF7C0FDACE75946C3
:1019C0002020FFF7B7FB21462120BDE8F84FFFF7A5
:1019D000B1BB00BFBE010020F0B5002489B0CDE945
:1019E0000444CDE906441E4B1E4DDA6C42F004025D
:1019F000DA64DA6C42F00102DA64DA6C4FF44871AE
:101A000042F00202DA64032601270491284604A961
:101A1000CDE905760794FFF735FB04A94FF48073F1
:101A20004FF090400493CDE906640597FFF72AFB39
:101A30004FF6FF7201230C486946CDE90023CDE93A
:101A40000264FFF71FFB4FF09042936943F48073E9
:101A50009361AB6943F40873AB6109B0F0BD00BF9B
:101A600000100240000400480008004810B5FFF7CD
:101A7000B3FF0020FFF70EFD0A4C2080238848F2B8
:101A800030229BB2934206D0FFF710FC0020FFF7F4
:101A900001FD208010BDFFF783FB0020FFF7FAFC5B
:101AA000208010BDBC01002042343A206E6578745D
:101AB0002070616765000000414C4C204F4E0000D3
:101AC000414C542035352F414100000057414C4BCB
:101AD00000000000203E2000203C200053454C46E2
:101AE0002054455354202050302F32004C43442082
:101AF00054455354202050312F32000052454400A9
:101B000059454C4C4F5700004C45442054455354C4
:101B1000202050322F3200005041545445524E0084
:101B200042323A207370656564202042313A206465
:101B3000697200004C454420700000006D73000085
:101B40004B455920434E5420000000004B4559207E
:101B50004E4F572000000000494E205041313520A3
:101B600000000000487A0000494E205042342020F6
:101B7000000000004F555420504137200000000065
:101B8000487A205000000000523337200000000047
:101B90005620523338200000FFFF00F8E0071F00F6
:101BA000E0FF1FF8FF7FDEF700183048607890A84C
:101BB000C0D80000F4010000FA000000EE020000AE
:101BC00064000000E8030000D00700008813000054
:101BD0001027000090010000C80000006400000011
:101BE00032000000000000000000000000000000C3
:101BF00000000000000000000000000000000000E5
:101C000000000000000000000000000000000000D4
:101C1000000000000000800180018001800180013F
:101C200080018001800180018001800180018001AC
:101C300000000000800180010000000000000000A2
:101C40000000000000000000CC00CC00CC00CC0064
:101C5000CC00CC00000000000000000000000000EC
:101C60000000000000000000000000000000000074
:101C70000000000000000000000000000000000064
:101C8000600C600C600C30063006FE1FFE1F300634
:101C900038071803FE1FFE1F180318038C018C0160
:101CA0008C01000000008000E003F80F9C0E8C1CEB
:101CB0008C188C009800F801E007800E801C8C18AE
:101CC0008C189C18B80CF00FE00380008000000016
:101CD000000000000000000000000E181B0C110C9A
:101CE00011061106110311039B018E01C038C06C4F
:101CF00060446044304430441844186C0C38000090
:101D0000000000000000E001F00338071806180684
:101D10003003F001F000F8009C310E33061E061C63
:101D2000061C063FFC73F0210000000000000000CC
:101D300000000000000000000C000C000C000C0073
:101D40000C000C000000000000000000000000007B
:101D50000000000000000000000000000000000083
:101D6000000000000000000200038001C000C0006D
:101D70006000600030003000300030003000300083
:101D80003000300060006000C000C000800100032F
:101D900000020000000020006000C00080018001FF
:101DA0000003000300060006000600060006000609
:101DB000000600060003000380018001C0006000EF
:101DC00020000000000000000000000000000000F3
:101DD000C000C000D806F807E00130033807000053
:101DE00000000000000000000000000000000000F3
:101DF00000000000000000000000000000000000E3
:101E000080018001800180018001FC3FFC3F800156
:101E100080018001800180010000000000000000BE
:101E200000000000000000000000000000000000B2
:101E300000000000000000000000000000000000A2
:101E4000000000000000800180010001000180000E
:101E50000000000000000000000000000000000082
:101E6000000000000000000000000000E007E007A4
:101E70000000000000000000000000000000000062
:101E80000000000000000000000000000000000052
:101E90000000000000000000000000000000000042
:101EA000000000000000C000C000000000000000B2
:101EB000000000000000000C000C000600060006F8
:101EC0000003000300038003800180018001C00043
:101ED000C000C000600060000000000000000000C2
:101EE000000000000000E003F007380E180C0C188A
:101EF0000C180C180C180C180C180C180C180C18C2
:101F0000180C380EF007E00300000000000000008D
:101F100000000000000000018001C001F0019801F4
:101F200088018001800180018001800180018001A1
:101F3000800180018001800100000000000000009D
:101F4000000000000000E003F80F180C0C180C183B
:101F500000180018000C000600038001C00060009B
:101F600030001800FC1FFC1F0000000000000000F3
:101F7000000000000000E001F807180E0C0C0C0C2B
:101F8000000C0006C003C007000C001800180C1855
:101F90000C18180CF807E003000000000000000017
:101FA000000000000000000C000E000F000F800D6C
:101FB000C00C600C600C300C180C0C0CFC3FFC3F8F
:101FC000000C000C000C000C0000000000000000E1
:101FD000000000000000F80FF80F180018000C00B7
:101FE000EC03FC071C0E001C0018001800180C184D
:101FF0001C0C180EF807E0030000000000000000B1
:10200000000000000000C007F00F381C181818006E
:102010000C00CC03EC0F3C0E1C1C0C180C180C18FC
:10202000181C380EF007E00300000000000000005C
:10203000000000000000FC1FFC1F000C0006000652
:10204000000380038001C001C000E0006000600068
:102050007000300030003000000000000000000080
:10206000000000000000E003F007380E180C180C08
:10207000180C3806F007F007180C0C180C180C1880
:102080000C18380CF80FE0030000000000000000FE
:10209000000000000000E003F007380E1C0C0C18D4
:1020A0000C180C181C1C381EF81BE0190018000C2A
:1020B000000C1C0EF807F0010000000000000000FA
:1020C0000000000000000000000000000000000010
:1020D00080018001000000000000000000000000FE
:1020E00000000000800180010000000000000000EE
:1020F00000000000000000000000000000000000E0
:1021000080018001000000000000000000000000CD
:10211000000000008001800100010001800000003B
:1021200000000000000000000000000000000000AF
:10213000000000000010001C800FE003F8001800F1
:10214000F800E003800F001C0010000000000000F9
:10215000000000000000000000000000000000007F
:1021600000000000F81F000000000000F81F000041
:10217000000000000000000000000000000000005F
:10218000000000000000000000000000000000004F
:102190000000000008003800F001C007001F001810
:1021A000001FC007F0013800080000000000000018
:1021B000000000000000E003F80F180C0C180C18C9
:1021C0000018000C000600038001C000C000C00021
:1021D00000000000C000C00000000000000000007F
:1021E0000000000000000000E00718180420C229C9
:1021F000224A114409440944094409221113E20CFA
:10220000024004201818E007000000000000000051
:1022100000000000000080038003C006C006C00666
:10222000600C600C301830183018F83FF83F1C7004
:102230000C600C6006C006C000000000000000003A
:10224000000000000000FC03FC0F0C0C0C180C1824
:102250000C180C0CFC07FC0F0C180C300C300C305C
:102260000C300C18FC1FFC070000000000000000F0
:10227000000000000000C007F01F38381C300C7050
:10228000066006000600060006000600060006605E
:102290000C701C30F01FE007000000000000000080
:1022A000000000000000FE03FE0F060E06180618D0
:1022B0000630063006300630063006300630061886
:1022C0000618060EFE0FFE030000000000000000CE
:1022D000000000000000FC3FFC3F0C000C000C0064
:1022E0000C000C00FC1FFC1F0C000C000C000C0070
:1022F0000C000C00FC3FFC3F000000000000000050
:10230000000000000000F83FF83F18001800180017
:1023100018001800F81FF81F1800180018001800FF
:10232000180018001800180000000000000000004D
:10233000000000000000E00FF83F3C780E6006E06F
:1023400007C00300030003FE03FE03C007C006C06E
:102350000EC03CF0F83FE00F00000000000000005D
:102360000000000000000C300C300C300C300C3041
:102370000C300C30FC3FFC3F0C300C300C300C307F
:102380000C300C300C300C3000000000000000005D
:1023900000000000000080018001800180018001B8
:1023A0008001800180018001800180018001800125
:1023B0008001800180018001000000000000000019
:1023C00000000000000000060006000600060006EF
:1023D00000060006000600060006000600061806B5
:1023E00018063807F003E0010000000000000000BC
:1023F00000000000000006300618060C0606060362
:102400008601C60066007600DE008E010603060621
:10241000060C0618063006600000000000000000F0
:102420000000000000001800180018001800180034
:1024300018001800180018001800180018001800DC
:1024400018001800F81FF81F00000000000000002E
:102450000000000000000EE01EF01EF01EF036D856
:1024600036D836D836D866CC66CC66CCC6C6C6C694
:10247000C6C6C6C686C386C30000000000000000B2
:102480000000000000000C301C303C303C306C3050
:102490006C30CC30CC308C310C330C330C360C36E9
:1024A0000C3C0C3C0C380C3000000000000000001C
:1024B000000000000000E007F81F1C380E700660E6
:1024C00003C003C003C003C003C003C003C0066051
:1024D0000E701C38F81FE00700000000000000002C
:1024E000000000000000FC0FFC1F0C380C300C300A
:1024F0000C300C300C18FC1FFC070C000C000C00FE
:102500000C000C000C000C0000000000000000009B
:10251000000000000000E007F81F1C380E70066085
:1025200003E003C003C003C003C003C007E00663A9
:102530000E3F1C3CF83FE0F700C000000000000028
:10254000000000000000FE0FFE1F063806300630B7
:1025500006300638FE1FFE0706030606060C0618A0
:10256000061806300630066000000000000000007B
:10257000000000000000E003F80F1C0C0C180C1801
:102580000C001C00F803E00F001E00380630063077
:102590000E301C1CF80FE0070000000000000000D7
:1025A000000000000000FE7FFE7F800180018001AE
:1025B0008001800180018001800180018001800113
:1025C0008001800180018001000000000000000007
:1025D0000000000000000C300C300C300C300C30CF
:1025E0000C300C300C300C300C300C300C300C300B
:1025F0000C301818F81FE007000000000000000071
:1026000000000000000003600630063006300C18A1
:102610000C180C18180C180C380E30063006700701
:1026200060036003C001C001000000000000000062
:102630000000000000000360C361C361C361663332
:10264000663366336633663366336C1B6C1B6C1BF8
:102650002C1A3C1E380E380E00000000000000004E
:102660000000000000000FE00C7018303018700CF3
:10267000600EC00780038003C003E006700C301CAE
:1026800018180C300E6007E0000000000000000089
:1026900000000000000003C006600C301C38381831
:1026A000300C6006E007C0038001800180018001DA
:1026B0008001800180018001000000000000000016
:1026C000000000000000FC7FFC7F0060003000186C
:1026D000000C000600038001C000600030001800FC
:1026E0000C000600FE7FFE7F0000000000000000DE
:1026F000000000000000E003E003600060006000F4
:1027000060006000600060006000600060006000C9
:102710006000600060006000600060006000E00336
:10272000E003000000003000300060006000600046
:10273000C000C000C000C001800180018001000312
:102740000003000300060006000000000000000077
:10275000000000000000E003E003000300030003AA
:102760000003000300030003000300030003000351
:102770000003000300030003000300030003E00361
:10278000E003000000000000C001C001600360031E
:10279000600330063006180C180C00000000000022
:1027A0000000000000000000000000000000000029
:1027B0000000000000000000000000000000000019
:1027C0000000000000000000000000000000000009
:1027D000000000000000FFFFFFFF000000000000FD
:1027E0000000000000000C000C000C000C000C00AD
:1027F0000C000000000000000000000000000000CD
:1028000000000000000000000000000000000000C8
:1028100000000000000000000000000000000000B8
:10282000F003F8071C0C0C0C000FF00FF80C0C0C4C
:102830000C0C1C0FF80FF018000000000000000046
:102840000000000000001800180018001800180010
:10285000D803F80F380C1818181818181818181862
:102860001818380CF80FD803000000000000000012
:102870000000000000000000000000000000000058
:10288000C003F007300E180C1800180018001800CC
:10289000180C300EF007C00300000000000000001C
:1028A00000000000000000180018001800180018B0
:1028B000C01BF01F301C18181818181818181818F2
:1028C0001818301CF01FC01B0000000000000000A2
:1028D00000000000000000000000000000000000F8
:1028E000C003F00F300C1818F81FF81F180018005C
:1028F0003818301CF00FC007000000000000000076
:10290000000000000000800FC00FC000C000C00029
:10291000F007F007C000C000C000C000C000C00049
:10292000C000C000C000C0000000000000000000A7
:102930000000000000000000000000000000000097
:10294000E00DF80F180E0C0C0C0C0C0C0C0C0C0CF5
:102950000C0C180EF80FE00D000C0C0C1C06F80700
:10296000F0010000000018001800180018001800FE
:10297000D807F80F381C181818181818181818182D
:102980001818181818181818000000000000000087
:10299000000000000000C000C000000000000000B7
:1029A000C000C000C000C000C000C000C000C00027
:1029B000C000C000C000C000000000000000000017
:1029C000000000000000C000C00000000000000087
:1029D000C000C000C000C000C000C000C000C000F7
:1029E000C000C000C000C000C000C000C000F800AF
:1029F0007800000000000C000C000C000C000C0023
:102A00000C0C0C060C038C01CC006C00FC009C012F
:102A10008C030C030C060C0C0000000000000000EE
:102A2000000000000000C000C000C000C000C000E6
:102A3000C000C000C000C000C000C000C000C00096
:102A4000C000C000C000C000000000000000000086
:102A50000000000000000000000000000000000076
:102A60007C3CFF7EC7E383C183C183C183C183C133
:102A700083C183C183C183C1000000000000000046
:102A80000000000000000000000000000000000046
:102A90009807F80F381C181818181818181818184C
:102AA0001818181818181818000000000000000066
:102AB0000000000000000000000000000000000016
:102AC000C003F00F300C1818181818181818181818
:102AD0001818300CF00FC0030000000000000000C8
:102AE00000000000000000000000000000000000E6
:102AF000D803F80F380C18181818181818181818C0
:102B00001818380CF80FD80318001800180018000F
:102B1000180000000000000000000000000000009D
:102B2000C01BF01F301C181818181818181818187F
:102B30001818301CF01FC01B0018001800180018CF
:102B4000001800000000000000000000000000006D
:102B5000B007F0037000300030003000300030006B
:102B600030003000300030000000000000000000A5
:102B70000000000000000000000000000000000055
:102B8000E003F003380E180C3800F003C007000C07
:102B9000180C380EF007E0030000000000000000F1
:102BA00000000000000000008000C000C000C00065
:102BB000F007F007C000C000C000C000C000C000A7
:102BC000C000C000C0078007000000000000000037
:102BD00000000000000000000000000000000000F5
:102BE0001818181818181818181818181818181865
:102BF0001818381CF01FE019000000000000000049
:102C000000000000000000000000000000000000C4
:102C10000C18180C180C180C30063006300660031F
:102C200060036003C001C00100000000000000005C
:102C30000000000000000000000000000000000094
:102C4000C141C141C3616363636363633636363632
:102C500036361C1C1C1C1C1C000000000000000060
:102C60000000000000000000000000000000000064
:102C70001C38381C300C600660036003600360037E
:102C80006006300C381C1C380000000000000000FA
:102C90000000000000000000000000000000000034
:102CA0001830301830187018600C600CE00CC0063A
:102CB000C00680038003800380018001C001F00012
:102CC0007000000000000000000000000000000094
:102CD000FC1FFC1F000C000600038001C000600008
:102CE00030001800FC1FFC1F000000000000000066
:102CF00000000000000000038001C000C000C00010
:102D0000C000C000C00060006000300060004000F3
:102D1000C000C000C000C000C000C00080010003AF
:102D2000000000000000800180018001800180011E
:102D3000800180018001800180018001800180018B
:102D4000800180018001800180018001800180017B
:102D50008001000000006000C000C001800180010F
:102D600080018001800100030003000600030001D0
:102D7000800180018001800180018001C00060002D
:102D80000000000000000000000000000000000043
:102D900000000000F010F81F080F00000000000005
:102DA0000000000000000000000000000000000023
:042DB000000000001F
:102DB40005EEFFC00000000000000000000000005D
:102DC40000000000000000000000000000000000FF
:102DD40000000000000000000000000000000000EF
:102DE40000000000000000000000000000000000DF
:042DF40000000000DB
:0C2DF8000100000001000000FFFF0000CF
:04000005080000C52A
:00000001FF
