:020000040800F2
:1000000000580020C5000008C1000008C100000819
:10001000C1000008C1000008C10000080000000085
:10002000000000000000000000000000C100000807
:10003000C100000800000000C1000008B501000870
:1000400000000000000000000000000000000000B0
:1000500000000000000000000000000000000000A0
:100060000000000000000000000000000000000090
:100070000000000000000000000000000000000080
:100080000000000000000000210300080000000044
:100090000000000000000000000000000000000060
:1000A00000000000790200080000000000000000CD
:1000B000D5010008C5010008000000000000000094
:1000C000FEE700BF1A4A1B498A4208B50CD2013923
:1000D000891A194B21F003010431194453F8040B18
:1000E00042F8040B8B42F9D1144A15498A420CD2CA
:1000F0000139891A134B21F003010431194453F8D3
:10010000040B42F8040B8B42F9D10F4B0F4A934278
:100110000AD2013AD21A22F0030204321A44002110
:1001200043F8041B9342FBD100F0FCF8FEE700BF4C
:100130000000002044000020442400084400002067
:10014000480000208824000848000020800000208B
:10015000F0B5864685B0A9B930238DF8043001206A
:1001600001AE824203DD30238DF8053002203318C2
:100170000EF1FF3213F8011D02F8011F9E42F9D162
:1001800005B0F0BD01AE0A4F34460020A7FB015375
:10019000DB0803EB830CA1EB4C0C0D460CF1300C8F
:1001A000092D04F801CB00F101001946EED8D8E77B
:1001B000CDCCCCCC024A136801331360704700BF2A
:1001C000780000204FF080436FF00102C3F8102444
:1001D000704700BF4FF080431B69D90705D49A07C9
:1001E00025D51E4A6FF0020108E01C4A11689B07E2
:1001F00001F10101116014D56FF003014FF080434C
:100200001748F0B45E6B036893B9164C164D2E6018
:1002100012682260012303604FF08043F0BC196133
:1002200070474FF080436FF00101196170477047CC
:100230000C4C13680C4D2768A3EB070C2B680B4F75
:10024000F31A03EB0C433B60002BE0D0DFF824C033
:10025000074FB7FBF3F3CCF80030D8E76C00002071
:100260006000002064000020680000207000002072
:1002700040420F0074000020214BD3F81034D907FE
:1002800005D49A0725D51F4A6FF0020108E01D4AE0
:1002900011689B0701F10101116014D56FF0030192
:1002A000174B1948F0B4D3F83464036893B9174C6A
:1002B000174D2E601268226001230360104BF0BCC2
:1002C000C3F8101470470E4B6FF00101C3F81014FF
:1002D000704770470D4C13680D4D2768A3EB070C52
:1002E0002B680C4FF31A03EB0C433B60002BE0D060
:1002F000DFF828C0084FB7FBF3F3CCF80030D8E79D
:100300000040014054000020480000204C00002024
:10031000500000205800002040420F005C000020E8
:10032000704700BF2DE9F04F4FF0E0234FF470020B
:1003300091B0C3F8882DBFF34F8FBFF36F8FB74ACB
:10034000136843F48033136013689B03FCD5B44BEC
:10035000D3601368B14943F0807313600B689F0149
:10036000FCD5B04B02221A608B68AC4A43F0030301
:100370008B60936803F00C030C2BFAD14FF0E02351
:100380000024A948586107219C611961D16CA74BD1
:10039000A74841F00801D164D16CD26C1A6822F0F0
:1003A00030024FF4802142F010021A6099614269D4
:1003B000D2B242F47F42426104229A61996100F014
:1003C00013FF204600F058FE204600F0EFFB4FF4EC
:1003D000FC6000F0DFFB9749204600F097FE4FF6E7
:1003E000FF7000F0D7FB944B196841F0434119604E
:1003F000D9684FF0A042012021F04341D9609060BC
:100400001368DE07FCD54FF0104393604FF0A04215
:100410009368002BFCDB012393604FF0A04213682C
:10042000DD07FCD5072100244FF430700123D46090
:10043000516110634FF0A041C2F80831D1F800318A
:10044000DC07FBD54FF01043C1F808314FF0A04254
:10045000D2F80831002BFBDB0123C2F808314FF042
:10046000A042D2F8003113F0010CFAD0002107238A
:10047000C2F80C11694CC2F814314FF47073C2F811
:100480003031A36DDFF8D491DFF8D481DFF8D4A147
:100490004FF0904243F00203A365136823F44043F6
:1004A00043F400431360136A23F0704343F0005396
:1004B00013624FF080434F264FF4FA7740F2E73E45
:1004C000C3F80014C3F82864C3F82CE4C3F83874E4
:1004D00005974FF4D047C3F818744FF0E025102764
:1004E000C3F8207401204FF00057C3F81404C3F878
:1004F0001014C3F80C04C5F80071C3F80004A76D0C
:100500000743A765176827F0404747F00047176083
:10051000576A27F0704747F080575762474A19607B
:1005200003274FF6FF7E9E62C3F82CE098611862A5
:10053000DF6058611961C9F80010C8F80010116037
:100540004FF08052CAF80010C5F800211860236EE1
:1005500043F480332366384C394B226822F44072CE
:1005600042F400722260226A22F4702242F4803245
:100570002262344AC3F80014C3F82864C3F82CE498
:10058000C3F81804C3F82004C3F80C74C3F81404A7
:10059000C3F8101411602C4A2C4C11602C4A2D4FBA
:1005A00011602D4A4FF000761160C5F80061C3F864
:1005B0000004CDE90111A16003910091CDE907117B
:1005C0004FF47A7B8A460691CDF824C0636B0133E1
:1005D00063636568A94219D0022D00F03382032DB0
:1005E00000F01882012D40F006824FF090414FF04C
:1005F00080420B6823F440430B6040F2E733C2F8BB
:100600002C344FF4FA73C2F83834A5603B68009A72
:100610009B1A092B00F2038126E000BF0010024064
:1006200023140001002002407F380100000C004824
:100630000008004844120008000400486C00002034
:1006400000400140500000204C000020000000202D
:10065000540000207800002048000020680000209E
:1006600064000020600000203B68A3EB0A03B3F5A0
:10067000FA7F01D22946A9E7D7F800A072B6B04B9D
:100680000A93B049029BDFF81C93A1FB0336AE4BE3
:10069000B6094FF020081B680493314601220DF182
:1006A0002D008DF82C80FFF753FD029A4FF47A73DA
:1006B00003FB162100F14003861D0DEB0300A9FB8F
:1006C000012106F128034FF02E0200F8132CC9086F
:1006D0000DEB03000222FFF73BFD0AAB06449B4AE9
:1006E0009A51059A06F12C03A9FB02210DEB030098
:1006F000C9080222FFF72CFD04360AAB0644252266
:100700009A531946302000F001FD914A8D4B0A9210
:10071000019A8DF82C80A3FB0226B60931460122EE
:100720000DF12D00FFF714FD019A4FF47A7303FBCE
:10073000162100F14003861D0DEB0300A9FB01917A
:1007400006F128034FF02E0200F8132CC9080DEB18
:1007500003000222FFF7FCFC0AAA06447D4B9351DA
:1007600006F12C0359460DEB03000122FFF7F0FCC4
:1007700006F1040981440AA909F140036B4447F6D4
:10078000482221F809206020002203F8162C00F0EE
:10079000BDFC714B04990A93012242F23A030DF118
:1007A0002E00ADF82C30FFF7D3FC0AAB06306B4EB1
:1007B0001E501946902000F0A9FC694B06990A9337
:1007C00001220DF12D008DF82C80FFF7C1FC0AAB42
:1007D000053019461E50A82000F098FC5946614B80
:1007E0000A9301220DF12D008DF82C80FFF7B0FC4B
:1007F0000AAB0530012D08BF5B491E5018BF0AA97E
:10080000C02000F083FC594B039A5949D820002A94
:1008100018BF194600F07AFC62B62946D6E64FF0BA
:10082000A0413A6800920523C1F80831514B01E01C
:10083000013B03D0D1F800215007F9D54FF0A0417A
:100840000523D1F840018B604A4B01E0013B02D007
:100850000A685207FAD54FF0A04340F6E4461B6CF5
:100860004549E06006FB00F2236106FB03F3A1FBB0
:100870000260A1FB0361121A5B1A00EB520201EB4A
:100880005303D20ADB0A022D626102920193A36133
:1008900000F0F180032D00F0F98038494FF47A73AD
:1008A00003FB02F28A4204D89308354AA2FB0323D1
:1008B0005B09012D40F000814FF080434FF47A70C6
:1008C000D3F82C14D3F83824D3F82C340131013365
:1008D00000FB02F2B2FBF3F22A4B0592B3FBF1FBF1
:1008E000294BC4F820B06262174A19681368E361A3
:1008F000264B06911B68E362254B1B682363254B3F
:10090000A1631B68E363244B1B68236413685B4586
:100910006CD91368A3EB0B03012D45D0B3F57A7F97
:1009200042D91E4A0123A3625369DBB253611C4BB7
:1009300004229A614FF480229A61099B039393E603
:100940005233373AD34D6210740000205620443A97
:100950005233383A5620463A5041313520487A00D1
:100960005042343A5041373A5812000824120008D5
:1009700034120008A18601000101100083673200D3
:100980009F00EE0940420F005C0000207000002034
:100990006C0000205800002054000020000800488F
:1009A000000C0048CDCCCCCC0023A362039B002BD1
:1009B00070D13B68079A9B1AB3F5FA7FFFF454AEE7
:1009C00008994D4B4D4A83EA012381F001010891BA
:1009D0003968079151699BB2C9B20B435361484BC7
:1009E00004229A614FF480229A613DE6454B1B68D0
:1009F000ABEB030390E74FF09042136823F44043BE
:100A000043F400431360136A23F0704343F0005330
:100A10001362FAE54FF090424FF08041136823F4DF
:100A2000404343F400431360136A23F0704343F0E0
:100A30000053136240F2F313C1F82C347D23C1F844
:100A40003834E2E54FF090424FF08041136823F4D0
:100A5000404343F400431360136A23F0704343F0B0
:100A60000053136240F2E733C1F82C344FF4FA73A9
:100A7000C1F83834C9E54FF4FA7340F2E7314FF06A
:100A80008042C2F82C14C2F8383415E77D2340F2B6
:100A9000F311F4E7194A3B6807935369DBB243F457
:100AA0007F435361164B04229A614FF480229A616E
:100AB000002303930893D7E501994FF47A6201FB71
:100AC00002F211499208A1FB0212520902F57A7250
:100AD0000E49B1FBF2F1022938BF022101FB03F3F9
:100AE0000B4A03F5FA73A2FB032301399B098B42DE
:100AF00028BF0B46C3E700BF00FEFFFF0008004809
:100B0000000C0048740000209F00EE0940420F00D6
:100B1000D34D62102DE9F0410C6800224FF0010E18
:100B20004FF0030C0EFA02F8560014EA080F0CFA04
:100B300006F502F101021FD04B680768003B18BFA1
:100B4000012327EA0507B3403B43036047688B68EE
:100B500027EA08074760876803F0030327EA0507C9
:100B6000B3403B438360CB68C76803F00303B340E3
:100B700027EA05052B43C360102AD3D1BDE8F081D5
:100B8000034A116813685B1A8342FBD3704700BFA6
:100B90007800002082B0044AADF80600BDF80630A7
:100BA0009BB2138002B070477E00002082B0044ADE
:100BB000ADF80600BDF806309BB2138002B0704756
:100BC00044000020184B9A6A42F4007210B49A62F2
:100BD0009A6A164C42F480729A629A6942F0200234
:100BE0009A6160619A6A42F020029A6200BF00BF77
:100BF00000BF9A6942F020029A619A6942F48072B9
:100C00009A6161619A6A42F020029A6200BF00BF55
:100C100000BF9A695DF8044B42F020029A619A691C
:100C200042F480729A61704700040048000800484E
:100C300008B500200121FFF7C5FF01460120FFF79D
:100C4000C1FF41F290711020FFF7BCFF4FF41C511F
:100C50006020FFF7B7FF01216120FFF7B3FF0221FA
:100C60004620FFF7AFFF48F210011320FFF7AAFF5D
:100C700048F2FE011220FFF7A5FF4FF4A061022009
:100C8000FFF7A0FF41F230010320FFF79BFF40F286
:100C900003313020FFF796FF3120FFF793FF32201A
:100CA000FFF790FF4FF440713320FFF78BFF0321D4
:100CB0003420FFF787FF40F203313520FFF782FF32
:100CC00014213620FFF77EFF40F203313720FFF773
:100CD00079FF3820FFF776FF3920FFF773FF4FF4D5
:100CE00040713A20FFF76EFF03213B20FFF76AFFB8
:100CF00040F203313C20FFF765FF4FF4A0513D2047
:100D0000FFF760FF4FF400719220FFF75BFF40F2A6
:100D100003319320FFF756FF40F60D019020FFF7B7
:100D200051FF41F218010320FFF74CFFBDE80840D6
:100D300040F273110720FFF745BF00BF08B543F22B
:100D40000801E320FFF73EFF1221E720FFF73AFFFB
:100D500041F23121EF20FFF735FF00210120FFF79D
:100D600031FF4FF4E0610220FFF72CFF41F2300128
:100D70000320FFF727FF00210420FFF723FF40F2A5
:100D800007210820FFF71EFF00210920FFF71AFFA7
:100D90000A20FFF717FF0C20FFF714FF0D20FFF7C5
:100DA00011FF0F20FFF70EFF1020FFF70BFF0721A9
:100DB0001120FFF707FF00211220FFF703FF132088
:100DC000FFF700FFC820FFF7DBFE41F29061102023
:100DD000FFF7F8FE40F227211120FFF7F3FE322043
:100DE000FFF7CEFE1D211220FFF7ECFE3220FFF7A9
:100DF000C7FE4FF400611320FFF7E4FE1421292001
:100E0000FFF7E0FE0B212B20FFF7DCFE3220FFF77F
:100E1000B7FE00212020FFF7D5FE2120FFF7D2FEEC
:100E200007213020FFF7CEFE40F207713120FFF797
:100E3000C9FE06213220FFF7C5FE40F204713520BD
:100E4000FFF7C0FE41F604713620FFF7BBFE042118
:100E50003720FFF7B7FE00213820FFF7B3FE40F23E
:100E600006713920FFF7AEFE40F201713C20FFF71A
:100E7000A9FE0F213D20FFF7A5FE00215020FFF71E
:100E8000A1FEEF215120FFF79DFE00215220FFF728
:100E900099FE40F23F115320FFF794FE4FF41C518E
:100EA0006020FFF78FFE01216120FFF78BFE0021FC
:100EB0006A20FFF787FE8020FFF784FE8120FFF77E
:100EC00081FE8220FFF77EFE8320FFF77BFE8420D9
:100ED000FFF778FE8520FFF775FE10219020FFF7C1
:100EE00071FE00219220FFF76DFE03219320FFF792
:100EF00069FE4FF488719520FFF764FE002197206A
:100F0000FFF760FE9820FFF75DFE41F21801032015
:100F1000FFF758FEBDE8084040F273110720FFF7C5
:100F200051BE00BF2DE9F041264C274DA36A43F482
:100F3000007384B0A362A36A43F48073A362A369BD
:100F400043F02003A3616861A36A43F02003A36216
:100F500000BF00BF00BFA36943F02003A361A369E2
:100F600043F48073A36100264FF6FF73032769469D
:100F700028460093019603960297FFF7CBFD4FF0AA
:100F800090439A6A42F480729A6200BF00BF00BF29
:100F9000D5F810809A6942F480729A6128464FF61B
:100FA000FF7201236946CDE90023CDE90276FFF700
:100FB000B1FDA3691FFA88F043F40073A36104B084
:100FC000BDE8F0810004004800080048134B1449B4
:100FD0009A6A42F400729A629A6A42F480729A6241
:100FE0009A69222042F020029A6148619A6A42F08E
:100FF00020029A6200BF00BF00BF9A6942F020023F
:101000009A619A6942F480729A6100BF00BF00BF82
:101010009A6942F400729A61704700BF0004004868
:1010200000080048124B13499A6A42F400729A620F
:101030009A6942F480729A619A6942F020029A6138
:1010400048619A6A42F020029A6200BF00BF00BF66
:101050009A6942F020029A619A6942F480729A6118
:1010600000BF00BF00BF9A6942F400729A617047E6
:10107000000400480008004838B50021054620203B
:10108000FFF7A0FD2120FFF79DFDFFF79FFF4FF425
:1010900096342846FFF7C6FF013CFAD138BD00BFA1
:1010A0002DE9F04789468046014620201546FFF786
:1010B00089FD49462120FFF785FD124F124E05F1AB
:1010C000300AFFF783FF00242B882341DB0754BF3E
:1010D00030883888013480B2FFF7A4FF102CF3D198
:1010E00008F101085FFA88F841462020FFF76AFD01
:1010F000023549462120FFF765FD5545E1D1BDE8A0
:10110000F08700BF7E000020440000200A78EAB18A
:101110002DE9F0410E4E8846054640F23F144FF649
:10112000FF7701E0BC420FD0203AD2B202EB42027C
:1011300006EB021221462846FFF7B2FF18F8012FEE
:10114000103CA4B2002AEDD1BDE8F081704700BF89
:1011500074120008F0B5002489B0CDE90444CDE94B
:1011600006441E4B1E4DDA6C42F00402DA64DA6C5F
:1011700042F00102DA64DA6C4FF4487142F0020284
:10118000DA64032601270491284604A9CDE90576EF
:101190000794FFF7BFFC04A94FF480734FF0904011
:1011A0000493CDE906640597FFF7B4FC4FF6FF7290
:1011B00001230C486946CDE90023CDE90264FFF71D
:1011C000A9FC4FF09042936943F480739361AB693B
:1011D00043F40873AB6109B0F0BD00BF00100240DA
:1011E000000400480008004810B5FFF7B3FF0020D6
:1011F000FFF798FE0A4C2080238848F230229BB2E9
:10120000934206D0FFF79AFD0020FFF78BFE208067
:1012100010BDFFF70DFD0020FFF784FE208010BDFC
:101220007C0000205354415455533A20414C4152C4
:101230004D0000005354415455533A204F4B202049
:10124000000000004144432F50574D20434C4F5362
:101250004544204C4F4F50005041373A204E4F20CC
:1012600041462028696E7465726E616C206F6E6CE9
:1012700079290000000000000000000000000000CC
:10128000000000000000000000000000000000005E
:10129000000000000000000000000000000000004E
:1012A00000000000000080018001800180018001B9
:1012B0008001800180018001800180018001800126
:1012C000000000008001800100000000000000001C
:1012D0000000000000000000CC00CC00CC00CC00DE
:1012E000CC00CC0000000000000000000000000066
:1012F00000000000000000000000000000000000EE
:1013000000000000000000000000000000000000DD
:10131000600C600C600C30063006FE1FFE1F3006AD
:1013200038071803FE1FFE1F180318038C018C01D9
:101330008C01000000008000E003F80F9C0E8C1C64
:101340008C188C009800F801E007800E801C8C1827
:101350008C189C18B80CF00FE0038000800000008F
:10136000000000000000000000000E181B0C110C13
:1013700011061106110311039B018E01C038C06CC8
:1013800060446044304430441844186C0C38000009
:10139000000000000000E001F003380718061806FE
:1013A0003003F001F000F8009C310E33061E061CDD
:1013B000061C063FFC73F021000000000000000046
:1013C00000000000000000000C000C000C000C00ED
:1013D0000C000C00000000000000000000000000F5
:1013E00000000000000000000000000000000000FD
:1013F000000000000000000200038001C000C000E7
:1014000060006000300030003000300030003000FC
:101410003000300060006000C000C00080010003A8
:1014200000020000000020006000C0008001800178
:101430000003000300060006000600060006000682
:10144000000600060003000380018001C000600068
:10145000200000000000000000000000000000006C
:10146000C000C000D806F807E001300338070000CC
:10147000000000000000000000000000000000006C
:10148000000000000000000000000000000000005C
:1014900080018001800180018001FC3FFC3F8001D0
:1014A0008001800180018001000000000000000038
:1014B000000000000000000000000000000000002C
:1014C000000000000000000000000000000000001C
:1014D0000000000000008001800100010001800088
:1014E00000000000000000000000000000000000FC
:1014F000000000000000000000000000E007E0071E
:1015000000000000000000000000000000000000DB
:1015100000000000000000000000000000000000CB
:1015200000000000000000000000000000000000BB
:10153000000000000000C000C0000000000000002B
:10154000000000000000000C000C00060006000671
:101550000003000300038003800180018001C000BC
:10156000C000C0006000600000000000000000003B
:10157000000000000000E003F007380E180C0C1803
:101580000C180C180C180C180C180C180C180C183B
:10159000180C380EF007E003000000000000000007
:1015A00000000000000000018001C001F00198016E
:1015B000880180018001800180018001800180011B
:1015C0008001800180018001000000000000000017
:1015D000000000000000E003F80F180C0C180C18B5
:1015E00000180018000C000600038001C000600015
:1015F00030001800FC1FFC1F00000000000000006D
:10160000000000000000E001F807180E0C0C0C0CA4
:10161000000C0006C003C007000C001800180C18CE
:101620000C18180CF807E003000000000000000090
:10163000000000000000000C000E000F000F800DE5
:10164000C00C600C600C300C180C0C0CFC3FFC3F08
:10165000000C000C000C000C00000000000000005A
:10166000000000000000F80FF80F180018000C0030
:10167000EC03FC071C0E001C0018001800180C18C6
:101680001C0C180EF807E00300000000000000002A
:10169000000000000000C007F00F381C18181800E8
:1016A0000C00CC03EC0F3C0E1C1C0C180C180C1876
:1016B000181C380EF007E0030000000000000000D6
:1016C000000000000000FC1FFC1F000C00060006CC
:1016D000000380038001C001C000E00060006000E2
:1016E00070003000300030000000000000000000FA
:1016F000000000000000E003F007380E180C180C82
:10170000180C3806F007F007180C0C180C180C18F9
:101710000C18380CF80FE003000000000000000077
:10172000000000000000E003F007380E1C0C0C184D
:101730000C180C181C1C381EF81BE0190018000CA3
:10174000000C1C0EF807F001000000000000000073
:101750000000000000000000000000000000000089
:101760008001800100000000000000000000000077
:101770000000000080018001000000000000000067
:101780000000000000000000000000000000000059
:101790008001800100000000000000000000000047
:1017A00000000000800180010001000180000000B5
:1017B0000000000000000000000000000000000029
:1017C000000000000010001C800FE003F80018006B
:1017D000F800E003800F001C001000000000000073
:1017E00000000000000000000000000000000000F9
:1017F00000000000F81F000000000000F81F0000BB
:1018000000000000000000000000000000000000D8
:1018100000000000000000000000000000000000C8
:101820000000000008003800F001C007001F001889
:10183000001FC007F0013800080000000000000091
:10184000000000000000E003F80F180C0C180C1842
:101850000018000C000600038001C000C000C0009A
:1018600000000000C000C0000000000000000000F8
:101870000000000000000000E00718180420C22942
:10188000224A114409440944094409221113E20C73
:10189000024004201818E0070000000000000000CB
:1018A00000000000000080038003C006C006C006E0
:1018B000600C600C301830183018F83FF83F1C707E
:1018C0000C600C6006C006C00000000000000000B4
:1018D000000000000000FC03FC0F0C0C0C180C189E
:1018E0000C180C0CFC07FC0F0C180C300C300C30D6
:1018F0000C300C18FC1FFC0700000000000000006A
:10190000000000000000C007F01F38381C300C70C9
:1019100006600600060006000600060006000660D7
:101920000C701C30F01FE0070000000000000000F9
:10193000000000000000FE03FE0F060E0618061849
:1019400006300630063006300630063006300618FF
:101950000618060EFE0FFE03000000000000000047
:10196000000000000000FC3FFC3F0C000C000C00DD
:101970000C000C00FC1FFC1F0C000C000C000C00E9
:101980000C000C00FC3FFC3F0000000000000000C9
:10199000000000000000F83FF83F18001800180091
:1019A00018001800F81FF81F180018001800180079
:1019B00018001800180018000000000000000000C7
:1019C000000000000000E00FF83F3C780E6006E0E9
:1019D00007C00300030003FE03FE03C007C006C0E8
:1019E0000EC03CF0F83FE00F0000000000000000D7
:1019F0000000000000000C300C300C300C300C30BB
:101A00000C300C30FC3FFC3F0C300C300C300C30F8
:101A10000C300C300C300C300000000000000000D6
:101A20000000000000008001800180018001800131
:101A3000800180018001800180018001800180019E
:101A40008001800180018001000000000000000092
:101A50000000000000000006000600060006000668
:101A6000000600060006000600060006000618062E
:101A700018063807F003E001000000000000000035
:101A800000000000000006300618060C06060603DB
:101A90008601C60066007600DE008E01060306069B
:101AA000060C06180630066000000000000000006A
:101AB00000000000000018001800180018001800AE
:101AC0001800180018001800180018001800180056
:101AD00018001800F81FF81F0000000000000000A8
:101AE0000000000000000EE01EF01EF01EF036D8D0
:101AF00036D836D836D866CC66CC66CCC6C6C6C60E
:101B0000C6C6C6C686C386C300000000000000002B
:101B10000000000000000C301C303C303C306C30C9
:101B20006C30CC30CC308C310C330C330C360C3662
:101B30000C3C0C3C0C380C30000000000000000095
:101B4000000000000000E007F81F1C380E7006605F
:101B500003C003C003C003C003C003C003C00660CA
:101B60000E701C38F81FE0070000000000000000A5
:101B7000000000000000FC0FFC1F0C380C300C3083
:101B80000C300C300C18FC1FFC070C000C000C0077
:101B90000C000C000C000C00000000000000000015
:101BA000000000000000E007F81F1C380E700660FF
:101BB00003E003C003C003C003C003C007E0066323
:101BC0000E3F1C3CF83FE0F700C0000000000000A2
:101BD000000000000000FE0FFE1F06380630063031
:101BE00006300638FE1FFE0706030606060C06181A
:101BF00006180630063006600000000000000000F5
:101C0000000000000000E003F80F1C0C0C180C187A
:101C10000C001C00F803E00F001E003806300630F0
:101C20000E301C1CF80FE007000000000000000050
:101C3000000000000000FE7FFE7F80018001800127
:101C4000800180018001800180018001800180018C
:101C50008001800180018001000000000000000080
:101C60000000000000000C300C300C300C300C3048
:101C70000C300C300C300C300C300C300C300C3084
:101C80000C301818F81FE0070000000000000000EA
:101C900000000000000003600630063006300C181B
:101CA0000C180C18180C180C380E3006300670077B
:101CB00060036003C001C0010000000000000000DC
:101CC0000000000000000360C361C361C3616633AC
:101CD000663366336633663366336C1B6C1B6C1B72
:101CE0002C1A3C1E380E380E0000000000000000C8
:101CF0000000000000000FE00C7018303018700C6D
:101D0000600EC00780038003C003E006700C301C27
:101D100018180C300E6007E0000000000000000002
:101D200000000000000003C006600C301C383818AA
:101D3000300C6006E007C003800180018001800153
:101D4000800180018001800100000000000000008F
:101D5000000000000000FC7FFC7F006000300018E5
:101D6000000C000600038001C00060003000180075
:101D70000C000600FE7FFE7F000000000000000057
:101D8000000000000000E003E0036000600060006D
:101D90006000600060006000600060006000600043
:101DA0006000600060006000600060006000E003B0
:101DB000E0030000000030003000600060006000C0
:101DC000C000C000C000C00180018001800100038C
:101DD00000030003000600060000000000000000F1
:101DE000000000000000E003E00300030003000324
:101DF00000030003000300030003000300030003CB
:101E00000003000300030003000300030003E003DA
:101E1000E003000000000000C001C0016003600397
:101E2000600330063006180C180C0000000000009B
:101E300000000000000000000000000000000000A2
:101E40000000000000000000000000000000000092
:101E50000000000000000000000000000000000082
:101E6000000000000000FFFFFFFF00000000000076
:101E70000000000000000C000C000C000C000C0026
:101E80000C00000000000000000000000000000046
:101E90000000000000000000000000000000000042
:101EA0000000000000000000000000000000000032
:101EB000F003F8071C0C0C0C000FF00FF80C0C0CC6
:101EC0000C0C1C0FF80FF0180000000000000000C0
:101ED000000000000000180018001800180018008A
:101EE000D803F80F380C18181818181818181818DC
:101EF0001818380CF80FD80300000000000000008C
:101F000000000000000000000000000000000000D1
:101F1000C003F007300E180C180018001800180045
:101F2000180C300EF007C003000000000000000095
:101F30000000000000000018001800180018001829
:101F4000C01BF01F301C181818181818181818186B
:101F50001818301CF01FC01B00000000000000001B
:101F60000000000000000000000000000000000071
:101F7000C003F00F300C1818F81FF81F18001800D5
:101F80003818301CF00FC0070000000000000000EF
:101F9000000000000000800FC00FC000C000C000A3
:101FA000F007F007C000C000C000C000C000C000C3
:101FB000C000C000C000C000000000000000000021
:101FC0000000000000000000000000000000000011
:101FD000E00DF80F180E0C0C0C0C0C0C0C0C0C0C6F
:101FE0000C0C180EF80FE00D000C0C0C1C06F8077A
:101FF000F001000000001800180018001800180078
:10200000D807F80F381C18181818181818181818A6
:102010001818181818181818000000000000000000
:10202000000000000000C000C00000000000000030
:10203000C000C000C000C000C000C000C000C000A0
:10204000C000C000C000C000000000000000000090
:10205000000000000000C000C00000000000000000
:10206000C000C000C000C000C000C000C000C00070
:10207000C000C000C000C000C000C000C000F80028
:102080007800000000000C000C000C000C000C009C
:102090000C0C0C060C038C01CC006C00FC009C01A9
:1020A0008C030C030C060C0C000000000000000068
:1020B000000000000000C000C000C000C000C00060
:1020C000C000C000C000C000C000C000C000C00010
:1020D000C000C000C000C000000000000000000000
:1020E00000000000000000000000000000000000F0
:1020F0007C3CFF7EC7E383C183C183C183C183C1AD
:1021000083C183C183C183C10000000000000000BF
:1021100000000000000000000000000000000000BF
:102120009807F80F381C18181818181818181818C5
:1021300018181818181818180000000000000000DF
:10214000000000000000000000000000000000008F
:10215000C003F00F300C1818181818181818181891
:102160001818300CF00FC003000000000000000041
:10217000000000000000000000000000000000005F
:10218000D803F80F380C1818181818181818181839
:102190001818380CF80FD803180018001800180089
:1021A0001800000000000000000000000000000017
:1021B000C01BF01F301C18181818181818181818F9
:1021C0001818301CF01FC01B001800180018001849
:1021D00000180000000000000000000000000000E7
:1021E000B007F003700030003000300030003000E5
:1021F000300030003000300000000000000000001F
:1022000000000000000000000000000000000000CE
:10221000E003F003380E180C3800F003C007000C80
:10222000180C380EF007E00300000000000000006A
:1022300000000000000000008000C000C000C000DE
:10224000F007F007C000C000C000C000C000C00020
:10225000C000C000C00780070000000000000000B0
:10226000000000000000000000000000000000006E
:1022700018181818181818181818181818181818DE
:102280001818381CF01FE0190000000000000000C2
:10229000000000000000000000000000000000003E
:1022A0000C18180C180C180C300630063006600399
:1022B00060036003C001C0010000000000000000D6
:1022C000000000000000000000000000000000000E
:1022D000C141C141C36163636363636336363636AC
:1022E00036361C1C1C1C1C1C0000000000000000DA
:1022F00000000000000000000000000000000000DE
:102300001C38381C300C60066003600360036003F7
:102310006006300C381C1C38000000000000000073
:1023200000000000000000000000000000000000AD
:102330001830301830187018600C600CE00CC006B3
:10234000C00680038003800380018001C001F0008B
:10235000700000000000000000000000000000000D
:10236000FC1FFC1F000C000600038001C000600081
:1023700030001800FC1FFC1F0000000000000000DF
:1023800000000000000000038001C000C000C00089
:10239000C000C000C000600060003000600040006D
:1023A000C000C000C000C000C000C0008001000329
:1023B0000000000000008001800180018001800198
:1023C0008001800180018001800180018001800105
:1023D00080018001800180018001800180018001F5
:1023E0008001000000006000C000C0018001800189
:1023F000800180018001000300030006000300014A
:10240000800180018001800180018001C0006000A6
:1024100000000000000000000000000000000000BC
:1024200000000000F010F81F080F0000000000007E
:10243000000000000000000000000000000000009C
:042440000000000098
:1024440004EEFFC0000000000000000000000000D7
:102454000000000000000000000000000000000078
:102464000000000000000000000000000000000068
:102474000000000000000000000000000000000058
:042484000000000054
:04248800FFFF000052
:04000005080000C52A
:00000001FF
