:020000040800F2
:10000000900C0020ED010008F14A0008FD3C0008BA
:10001000ED4A000819090008A9770008000000004F
:10002000000000000000000000000000016B00085C
:100030005909000800000000F54A0008056B000897
:10004000070200080702000807020008070200086C
:10005000070200080702000807020008070200085C
:100060000702000807020008070200081D0900082F
:100070002909000835090008410900084D09000850
:10008000070200080000000007020008070200083D
:10009000070200080702000807020008070200081C
:1000A000070200080702000807020008070200080C
:1000B00007020008070200080702000807020008FC
:1000C00007020008070200080702000807020008EC
:1000D000070200089D7700080702000807020008D1
:1000E00007020008070200080702000807020008CC
:1000F00007020008070200080702000800000000CD
:1001000000000000070200080000000007020008CD
:1001100007020008000000000702000807020008AC
:10012000070200080702000807020008070200088B
:10013000070200080000000000000000070200089D
:10014000070200080702000800000000000000008D
:10015000000000000000000000000000000000009F
:10016000000000000000000000000000070200087E
:10017000070200080000000000000000000000006E
:10018000000000000702000800000000000000005E
:10019000000000000000000000000000000000005F
:1001A000000000000000000007020008070200082D
:1001B000070200080702000807020008000000000C
:1001C000000000000702000800000000000000001E
:1001D0000702000807020008DFF80CD000F056FA0A
:1001E00000480047FD7B0008900C0020064880472F
:1001F00006480047FEE7FEE7FEE7FEE7FEE7FEE70C
:10020000FEE7FEE7FEE7FEE7096B0008D9010008FC
:100210002DE9F05F0546002092469B46884606463B
:10022000814640241BE0284641464746224600F0CE
:1002300065F853465A46C01A914110D311461846E4
:10024000224600F04CF82D1A67EB01084F46224673
:100250000120002100F043F817EB00094E41201E59
:10026000A4F10104DFDC484631462A464346BDE896
:10027000F09FD2B201E000F8012B491EFBD270477B
:100280000022F6E710B513460A4604461946FFF762
:10029000F0FF204610BD10B5002200E0521C835C28
:1002A0008C5CA34201D1002BF8D1D8B2E1B2401A44
:1002B00010BD30B50B46014600202022012409E084
:1002C00021FA02F59D4205D303FA02F5491B04FA0F
:1002D00002F52844151EA2F10102F1DC30BD202AEE
:1002E00004DB203A00FA02F1002070479140C2F18D
:1002F000200320FA03F3194390407047202A04DBBF
:10030000203A21FA02F00021704721FA02F3D0408E
:10031000C2F1200291400843194670472DE9FE4F73
:10032000804681EA0300C00F0C46009021F0004196
:1003300023F00045B8EB0200A94105D24046214612
:1003400090461C460B46024623F00040104347D01F
:10035000270DC7F30A00C3F30A510290401A019017
:1003600040286BDAC3F3130040F4801B00989246D8
:1003700020B10023D2EB030A63EB0B0B0198594623
:10038000C0F140025046FFF7AAFF06460D46504610
:100390005946019A00F092F910EB080061410024DF
:1003A00087EA115284EAE7731A4340D0009A62B395
:1003B000019A012A4FEA075215DC001B61EB02018A
:1003C0004FF0004202EA0752CDE90042001C41F51D
:1003D000801132462B4600F092F903B0BDE8F08F51
:1003E00040462146F9E7001B61EB0201001C41F584
:1003F000801300185B412018A2F5001747EB03019A
:1004000040EAD570B6196D4111E06D084FEA360625
:1004100045EAC0754FEA0752001B61EB0201001C60
:1004200041F5801149084FEA300000195141324628
:100430002B4603B0BDE8F04F00F052B900980122FE
:1004400040000023D0EB020263EBE07300982146EA
:100450004FEAE074B8EB000061EB0401E9E783F0D8
:1004600000435BE781F0004158E72DE9FE4F81EA48
:10047000030404F0004421F0004100944FF0000B0D
:1004800023F0004350EA01045ED052EA03045BD03B
:10049000C3F30A54C1F30A552C44A4F2F334019473
:1004A000A0FB0254C1F3130141F48011C3F3130301
:1004B00043F4801301FB024400FB034E840A970AB5
:1004C00044EA815447EA8357A4FB076802958D0AE2
:1004D00005FB07854FEA932C04FB0C542705029D6E
:1004E0004FEA065847EA1637B5EB08056EEB070CDE
:1004F000870E920E47EA811742EA8312A7FB020198
:10050000B6EB0B0164EB00042B0D43EA0C335E18D1
:1005100044EB1C50DA465146E7FB0201C5F31304D5
:100520004FEA0B3343EA14534FEA0432019C43EA87
:100530000603A4F10C040294009CCDE900B400F081
:10054000DEF803B0BDE8F08F00200146F9E72DE9A1
:10055000F04D81EA030404F0004B21F000451446FD
:100560004FF0000A23F0004150EA050220D054EA7F
:1005700001021DD0C5F30A570246C5F31303C1F3A8
:100580001300C1F30A5640F4801543F48013A7EB1F
:100590000608101BD64608F2FD3873EB050002D39F
:1005A00008F1010801E092185B41B8F1000F03DA8D
:1005B00000200146BDE8F08D00204FF48011064672
:1005C00084460EE0171B73EB050705D3121B63EB84
:1005D000050306434CEA010C49084FEA3000921823
:1005E0005B4150EA0107EDD152EA030012D082EAE2
:1005F000040083EA0501084305D0101BAB4106D275
:100600000122002306E000224FF0004302E06FF0D9
:10061000010253101AEB06004CEB085110EB0A00D4
:1006200041EB0B01BDE8F04D00F05AB8C1F30A529E
:10063000C1F3130140F2FF3341F480119A4202DA10
:1006400000200146704740F233439A42A2F23342FF
:1006500002DC5242FFF752BEFFF741BE30B5041E26
:1006600071F1000404DB4FF00044404264EB0101EF
:10067000141E73F1000405DB1C464FF00043524288
:1006800063EB0403994208BF904230BD1CB5094892
:100690000090094801900546009C06E0E06840F0A3
:1006A000010394E8070098471034AC42F6D3FFF7F3
:1006B00097FD0000049C0008249C0008202A06DB0B
:1006C000CB17203A41FA02F043EAE07306E041FA20
:1006D00002F3D040C2F1200291400843194670470E
:1006E00010B5141E73F1000408DA401C41F100013A
:1006F00092185B411A4301D120F0010010BD2DE991
:10070000F04D92469B4611B1B1FA81F202E0B0FA87
:1007100080F220329046FFF7E2FD04460F4640EAA1
:100720000A0041EA0B0153465A46084313D01146CA
:1007300053EA010019D0C8F140025046FFF7DEFD30
:1007400005460E46504659464246FFF7C8FD084347
:1007500005D0012004E020463946BDE8F08D002098
:10076000054346EAE0762C4337430A986305E40ADA
:10077000A0EB08000022FD0A44EA47540A3002D5E3
:1007800000200146E9E7010510196941DDE9084546
:1007900000196941BDE8F04DA2E700000146806AFA
:1007A000C36DC26D13F0500F07D0D20648BF00F0E2
:1007B00025BB406D426B0846104742F40071C1658D
:1007C00001680B68CA681B0703D4910707D500F0BE
:1007D00011BB12F4406FFAD1C9688904F7D4C16D16
:1007E00021F48071C165C16DC90448BF00F002BB2E
:1007F000C16D41F00101C16500F0FCBA806AC16DB4
:1008000041F04001C165016E41F00401016600F054
:10081000F5BA0000806A00F0EFBA0000B0B50168D8
:1008200004468A688868C0074FF0000032D012F092
:10083000020218BFB0BD886800F00D00012820D169
:1008400088684FF6C072C7F6FF72104002308860A9
:100850000320086000F0D8FF21688968C90704BF39
:100860000020B0BD054603E020688068C00712D0B4
:1008700000F0CAFF401B0328F6D320688068C00739
:10088000F2D0E06D40F01000E065206E40F0010015
:1008900020660120B0BD0020B0BD000070B5044648
:1008A00000688168C90735D14FF6C076C7F6FF7674
:1008B000816806F17F02114209D0E06D40F010001E
:1008C000E065206E40F001002066012070BD816867
:1008D000314041F00101816000F096FF21680A6813
:1008E000D20717D1054603E021680868C00711D177
:1008F0008868C00704D18868304040F001008860F3
:1009000000F082FF401B0328EED320680068C00778
:10091000EAD1D2E7002070BDFEE7000040F20C30C3
:10092000C2F2000000F02ABD40F26C30C2F20000BA
:1009300000F024BD40F2CC30C2F2000000F01EBD39
:1009400040F24C20C2F2000000F018BD40F2AC2092
:10095000C2F2000000F012BD70470000EFF31080FB
:1009600072B600BFFEE70000B0B582B004460020BA
:10097000019094F85800012802D1022002B0B0BDC5
:10098000012084F8580020460D46FFF747FFE16D2F
:1009900010B141F010012AE041F2021291430231FC
:1009A000E16521684FF6C0738A68C3F6FF731A4089
:1009B00005F080431A4402F100428A604DF602625B
:1009C000C0F204028B68B3F1FF3F0CDC019B0133E2
:1009D0000193019B9342F5D3E06D40F0100020F0AD
:1009E0000201012003E0E16D012262F30101E165F2
:1009F000002184F8581002B0B0BD000090F85820D3
:100A0000012A04BF02207047B0B582B0012280F8ED
:100A100058200022019200920368B3F1A04F2FD119
:100A200040F208344FF6006EC5F20004CFF6FF7EA8
:100A300054F80E209B681A43520721D4D1F800C005
:100A40002268BCF1000F22F4604326D04A6890F877
:100A5000385042EA45321A4322604FF60052CFF630
:100A6000FF72A25854F80E301A43D20725D12268DB
:100A700040F61F7389689A43114341EA0C011BE059
:100A8000C16D41F02001C1650121002280F858208C
:100A900002B0BDE8B040084670474FF600512360F1
:100AA000CFF6FF71615854F80E201143C90704D1E5
:100AB000216840F61F72914321600021E5E70000A4
:100AC000F0B581B00022009290F85820012A01D19F
:100AD00002218CE10123076880F85830BB685B076E
:100AE00034D4D1E900351F26C5F3012407EB840473
:100AF000226B05F01F05AE40C3F38463B243AB40E5
:100B00001A432263BA68BB6802F0040203F00803C8
:100B1000D21840F0AD800A6807F114030426C2F32E
:100B20004064D1F808E006EAD25C53F82450C2F3DE
:100B300004540722A240BEF1004F25EA02050BD162
:100B400043F80C501A6842F000430DE0C16D41F0CB
:100B50002001C165012147E10EFA04F22A4343F85E
:100B60000C201A6822F000437B61D1E90434FD684F
:100B7000042B50D13A6E3A6E0B68C2F3846293FA3A
:100B8000A3F6B6FA86F65D0308BFC3F384664FF694
:100B9000FF73B242C0F2070303D13A6E22F0004263
:100BA0003A667A6E7A6E0E68C2F3846296FAA6F599
:100BB000B5FA85F51E4208BFC6F38465AA4203D183
:100BC0007A6E22F000427A66BA6EBA6E0E68C2F38E
:100BD000846296FAA6F5B5FA85F51E4208BFC6F3FB
:100BE0008465AA4203D1BA6E22F00042BA66FA6E58
:100BF000FA6E0E68C2F3846296FAA6F5B5FA85F528
:100C00001E4208BFC6F38465AA4231D1FA6E22F0B3
:100C10000042FA662CE0062202EA95020E6807F10D
:100C2000600504FA02FC55F823404FF20002C0F2BE
:100C3000FF3206F0F846224046EA0C06324342F004
:100C4000004245F823200A698B6955F8226026F096
:100C50008076334345F822300A690B7F55F82260CD
:100C6000012B26F0007608BF06F1007645F82260D9
:100C7000BA68D20743D10C68CA68D7F8B060234677
:100C80006FF3DF4326EA030C4FF6FF7602F01805F8
:100C9000C0F20706EE4000252640C4F27F0546EA72
:100CA0000C06AA42C7F8B06029D194FAA4F2B2FAAD
:100CB00082F2002B08BFA20E013202F01E0302F0E6
:100CC0001F0201260025964002EB4202CFF6206566
:100CD00005EB0255354345F000750A2B38BF46EA4F
:100CE0000255C5F3406307EB83038A685E69C5F369
:100CF00004550724AC40A643AA4032435A610B680E
:100D00000021C8F208010B426DD040F2083CC5F248
:100D1000000CDCF800400021CCF221318B4204F0C1
:100D2000E07E04D01021C9F2C0018B422DD12102F6
:100D30002BD4B7F1A04F56D1DCF8001042F6635225
:100D400021F0E07141EA0E0141F40001CCF80010FD
:100D500040F20801C2F200010968C0F23E5289095E
:100D6000A1FB0212910901EB41010C2202EB81016E
:100D700000910099B9B300BF009901390091009921
:100D800000294FF00001F7D12EE00021CCF2527182
:100D90008B4210D10021B1EB1E6F0CD1ACF502716A
:100DA0008F4220D0DCF8001021F0E07141EA0E0102
:100DB00041F0807115E0ACF502718F424FF00001F7
:100DC00012D00022CCF68432934208BF14F4800281
:100DD0000AD1DCF8001021F0E07141EA0E0141F483
:100DE0008001CCF800100021002280F8582008462D
:100DF00001B0F0BD70470000704700007047000070
:100E0000B0B582B000210028019143D0C16D39B93D
:100E1000044600F0F5F820460021216684F85810B9
:100E20000268916889004FF6C071C5F6FF7102D55E
:100E300093680B4093609368DB001DD4936801F1C5
:100E40008051194041F08051916040F20801C2F296
:100E50000001096842F663538909C0F23E53A1FBC1
:100E600003139909022303EB410100BF019101998A
:100E700011B101990139F9E79168C9000DD4C16D2B
:100E80004FF0010E41F01001C165016E41F001010A
:100E9000016604E04FF0010EAFE04FF0000E9368E2
:100EA000C46D03F0040304F010041B19C36D6DD16D
:100EB00023F481730233C3659368DB071AD140F2D0
:100EC000083C4FF600544FF60063C5F2000CCFF615
:100ED000FF74CFF6FF735CF804405CF803302343E3
:100EE000DB0707D14368DCF8004024F47C1423437B
:100EF000CCF80030437FC46BD0E902C144EA4333ED
:100F0000194390F8243041EA0C01012B41EA0343D4
:100F100006D1816A0024CFF6FE7404EB41410B43F5
:100F2000C46A24B1016B04F4787421430B43D16883
:100F300044F20704CFF6F07421401943D1601169DF
:100F4000436B21F04061194311619168936801F08E
:100F5000040103F00803C91840D190F83810037F4A
:100F6000490041EA8331D36844F20204A3431943A0
:100F7000D1600369146973B144F480311161D2F80E
:100F8000C01043F6FF74A1430B430DE043F0100281
:100F90004FF0010E30E024F480311161D2F8C0101E
:100FA00043F6FF7321EA0303C2F8C03090F8401003
:100FB000136901290FD140F2FD7123EA010CD0E938
:100FC0001134D0E9131543EA0C0323431943294391
:100FD00041F0010301E023F0010313614169136B48
:100FE000012923F00F0302D1016A01390B43136376
:100FF000C26D012161F30102C265704602B0B0BD4D
:101000002DE9F04198B0044600201790CDE9150075
:10101000CDE9130002A84421FFF732F9206840F21D
:101020000011C5F20001884257D0B0F1A04F40F046
:10103000B1804FF4004002904FF00050119002A890
:1010400000F020FD002818BFFFF788FC40F2700177
:10105000C2F200010A6841F24C00C4F20200531CC3
:101060000B6042B9016841F400510160016801F46C
:1010700000510191019901684FF4805841F002013B
:1010800001600068002700F0020001900198032031
:10109000149040F20040C4F6000013A9CDF84C8033
:1010A000159700F0D1FA40F24C254420C2F2000519
:1010B000C4F20200052180224FF4007385E883000A
:1010C00005F114004FF400664FF0200CC5E90372DF
:1010D00080E84810C5F8208053E04FF400400290AB
:1010E0004FF00050119002A800F0CCFC002818BF6F
:1010F000FFF734FC40F27001C2F200010A6841F2CD
:101100004C00C4F20200531C0B6042B9016841F468
:1011100000510160016801F40051019101990168D9
:10112000002641F002010160006813A900F00200EE
:10113000019001984FF4004013900320149040F266
:101140000040C4F60000159600F07EFA4420C4F278
:10115000020040F2AC251430C2F2000524214FF405
:10116000007385E8430005F1140080224FF4006706
:101170004FF0200C80E888104FF48050C5E90362DE
:101180002862284600F048F9002818BFFFF7E6FB60
:101190006565AC6218B0BDE8F08100002DE9F04152
:1011A00040F20016C5F20006D6F808320768BF689C
:1011B0007F0703D490F85870012F02D10220BDE8B8
:1011C000F08103F01F070123092F80F8583056D80B
:1011D000BB4040F221252B4251D00D46904604469B
:1011E000FFF75CFB20B1002184F85810BDE8F081C6
:1011F0002168E06D40F601739843224600F5807047
:10120000E0650FB1B14203D0D06D20F48010D065FD
:10121000D06D40F29D77C0044FF0000044BF106EC7
:1012200020F006001066506D40F61506C0F6000767
:10123000C0F6000640F2FD740023C0F60004C0E9C9
:101240000B761C2744630F6082F858304B681446B5
:1012500043F010034B60CB682A4643F00103CB6098
:101260004031434600F06AF921684FF6C0738A683E
:10127000C7F6FF731A4004328A60BDE8F08100218E
:1012800080F858100120BDE8F0810000014690F878
:101290002500022827D180B50868D1E910CE8A6CD4
:1012A000036823F00E030360136823F48073136054
:1012B000026822F0010202600EF01F00012202FA11
:1012C00000F0CCF80400D1E913205060486D30B133
:1012D000026822F480720260D1E9160242600020A6
:1012E000BDE8804002E00420C8630120012281F8AB
:1012F0002520002281F824207047000090F8251056
:10130000022930D180B50168D0E910CE826C0B681B
:1013100023F00E030B600B6823F001030B601168D0
:1013200021F4807111600EF01F02012101FA02F216
:10133000CCF80420D0E913325A60426D32B1136800
:1013400023F480731360D0E91623536080F82510CE
:10135000826B002180F824100AB190470021BDE87B
:101360008040084670470421C1630121002280F8B3
:10137000251080F82420084670470000B0B5D0E959
:1013800010C30268DCF8001003F01F030424D2F835
:1013900000E09C400C4218BF1EF004051BD1022443
:1013A0009C400C4218BF1EF0020520D1D94009070D
:1013B0001CD51EF0080108BFB0BD116821F00E0158
:1013C0001160012101FA03F2CCF80420C16380F816
:1013D0002510416B18E01168890603D4116821F0CB
:1013E00004011160CCF80440016B91B9B0BD1168E3
:1013F000890606D4116821F00A011160012180F8E4
:101400002510CCF80440C16A0022002980F824206D
:10141000ECD0BDE8B040084700284FF0010C00F0C8
:101420008A802DE9F04F0021C4F2020103684FF6D3
:10143000F83201F5816ECBF6FD72734538BF02F5C7
:1014400080624CF6CD441A44CCF6CC44A2FB04296D
:1014500003F0FC02A2F10802A2FB042800F1080B31
:1014600001F580646FF003069BE8040C3CBF002488
:10147000C4F2020401F5026506EA9906734538BF15
:1014800001F50065C0E91046022480F825401C687B
:1014900047F6F07724EA0707D0E9054147EA0A074B
:1014A00047EA0B07D0E907E93C43214341EA0E0133
:1014B00041EA0901114319600021C4F2020101F55A
:1014C0000861C164C8F3041173190CFA01F583644F
:1014D000B2F5804F056504BF00214160476840F6C2
:1014E0008401FAB21A607B1EC4F20201032B0D6064
:1014F00012D8013A01EB8203002702F01F020126F5
:1015000043F87C7F01F1BC0706FA02F2C0E9153707
:10151000C265C1F8C02003E00021C0E91511C16512
:101520004FF0000C0121C0F83CC080F8251080F875
:1015300024C0BDE8F04F60467047000090F824C01A
:10154000BCF1010F43D04FF0010C80F824C090F89B
:1015500025C0BCF1010F37D12DE9F0414FF0020C4D
:1015600080F825C04FF0000CC0F83CC0D0F800C097
:1015700000F14C0E9EE83040DCF80060BEF1000F38
:1015800026F00106CCF8006065601CBFD0E9164566
:101590006560D0E91056846806F01F060127D0F870
:1015A000308007FA06F66E60CCF80430102C0B463B
:1015B00004BF13460A46B8F1000FCCF80830CCF847
:1015C0000C2006D00E210BE0002180F82410022010
:1015D0007047DCF8001021F00401CCF800100A215B
:1015E000DCF800201143CCF80010806C0168C903BE
:1015F00003D5016841F480710160BEF1000F05D090
:10160000DEF8000040F48070CEF80000DCF8000046
:1016100040F00100CCF800000020BDE8F08100009F
:10162000B0B5044600F0F0F8054640F26400C2F29E
:1016300000000068611C18BF044400BF00F0E4F81B
:10164000401BA042FAD3B0BD2DE9F04F83B00F6824
:10165000002F00F0CA8000F1200241F2004540F264
:10166000004A019200F13842C4F600050623C4F294
:10167000010A4FEAB226A84208BF052300254FF011
:10168000010E4FF0030B00244FF00008052E38BF69
:101690004FEAB22300930AE00F6808F1010837FA15
:1016A00008F204F1020405F1040500F09E800EFA30
:1016B00008F217EA020CEFD04F68122F17D80EFA73
:1016C00007F616F0061F12D0D0F80890CE680BFA75
:1016D00004F329EA0303A64033438360436823EA03
:1016E0000202C7F3001303FA08F31A434260C26808
:1016F0008B680BFA04F922EA0902A3401A4347F067
:101700001003122BC26017D16FF00302DDF804B092
:1017100002EA58025BF8023005F01C060F27D1F8E8
:1017200010E0B740BB430EFA06F73B434FF0010E03
:101730004BF802304FF0030B03684F686FEA090261
:101740001A4007F00303A3401A43FB000260A3D52D
:1017500041F26003C4F202031A684FF6084942F0EE
:1017600001021A601A68CFF6FF7902F001020292B4
:10177000029A28F00302524452F8093005F00C078F
:101780000F26BE40B343009E06FA07F73B4342F8DC
:101790000930DAF800204B6842EA0C07DE0358BF34
:1017A00022EA0C07CAF80070DAF804209E0342EA25
:1017B0000C0758BF22EA0C07CAF80470DAF80820B0
:1017C000DE0242EA0C0740F20C4658BF22EA0C0740
:1017D000CAF80870C4F2010632689B0242EA0C079C
:1017E00058BF22EA0C07376056E703B0BDE8F08F18
:1017F0000069084018BF0120704700001823002A24
:1018000008BF2823C150704740F68C00C2F2000088
:101810000068704740F2640040F68C01C2F200009C
:10182000C2F2000100680A681044086070470000B6
:1018300080B5032000F092F8002000F009F800289D
:101840001CBF012080BD00F031F8002080BD0000E9
:1018500040F26401C2F200010968002904BF0120BE
:10186000704710B5044640F20800C2F200004FF481
:101870007A720068B2FBF1F1B0FBF1F000F09EFE6D
:1018800001460F2C4FF001000ED8002918BF10BDE3
:101890004FF0FF302146002200F034F840F268019A
:1018A0000020C2F200010C6010BD000082B041F2C5
:1018B0005800C4F20200816841F001018160816832
:1018C00001F0010101910199016841F0805101602D
:1018D000006800F080500090009802B000F0C8B896
:1018E000002848BF704700F01F01012202FA01F1F1
:1018F0001C2202EAD0004EF20012CEF20002815009
:101900007047000010B54EF60C5CCEF2000CDCF80F
:101910000030C3F3022E8EF00704042C28BF0424E9
:10192000BEF103034FF0FF3E0EFA04F438BF00236C
:10193000A14399400EFA03F39A43114300F1604228
:1019400000F00F03090102F56442043B63440028E0
:1019500048BF03F10C02117010BD00004EF60C518F
:10196000CEF200010A684FF6FF031A4060F30A2224
:1019700042F0806040F0FD700860704747F2000C54
:10198000C4F2000CDCF80020B0F5007F35D0002850
:1019900066D1DCF8800002F4C06220F48070B2F5F9
:1019A000806FCCF8800026D1DCF80000012262F3C1
:1019B0004A20CCF8000040F20800C2F200000068A3
:1019C000322358434DF68363C4F21B33A0FB030359
:1019D00002EB9340002200BFDCF81410013842F102
:1019E0000003490501D5002BF6D1DCF814004005B1
:1019F00044BF0320704700207047DCF8800002F4E9
:101A0000C06140F48070B1F5806FCCF88000F2D1F5
:101A1000DCF80000012161F34A20CCF8000040F21C
:101A20000800C2F200000068322250434DF6836283
:101A3000C4F21B32A0FB020201EB9240002200BF65
:101A4000DCF81410013842F10003490501D5002BE0
:101A5000F6D1DCF81400400544BF03207047CAE704
:101A6000022060F34A22CCF80020002070470000DA
:101A700047F20800C4F20000016841F480410160AF
:101A8000704700002DE9F04381B08146807841F233
:101A900088060007C4F2020601D400204AE056F886
:101AA000300C5FEAC0080BD456F8300C40F0805080
:101AB00046F8300C56F8300C00F08050009000983A
:101AC00047F20004C4F20004206840F480702060F3
:101AD000FFF79AFE054600BF2068C70508D4FFF748
:101AE00093FE401B0328F7D30320002F03D418E0F4
:101AF0000020002F15D5B16811F4407100F0EF807F
:101B0000D9F84020914240F0EF80C90740F0FB80B7
:101B100038B9B068D9F8401020F440700843B0607C
:101B20000020B8F1000F05D456F8301C21F0805188
:101B300046F8301CD9F80010CA0712D18A0719D408
:101B40004A0720D40A0727D48A062ED44A0635D459
:101B50000A063CD4CA0543D48A054AD44A0551D45E
:101B600060E03268D9F8043022F003021A43326090
:101B70008A07E5D53268D9F8083022F00C021A43FA
:101B800032604A07DED53268D9F80C3022F03002D4
:101B90001A4332600A07D7D53268D9F8103022F0DC
:101BA000C0021A4332608A06D0D53268D9F81430A0
:101BB00022F440621A4332604A06C9D53268D9F825
:101BC000183022F440521A4332600A06C2D53268F5
:101BD000D9F81C3022F440421A433260CA05BBD502
:101BE0003268D9F8203022F440321A4332608A0534
:101BF000B4D53268D9F8243022F440221A43326036
:101C00004A050FD53268D9F8283022F440121A4319
:101C1000B3F5801F326005D156F87C2C42F4801257
:101C200046F87C2C0A050FD53268D9F82C3022F4FE
:101C300040021A43B3F5800F326005D156F87C2C70
:101C400042F4801246F87C2CCA040FD53268D9F8C9
:101C5000303022F040721A43B3F1807F326005D1F8
:101C600056F87C2C42F4801246F87C2C8A040FD55E
:101C70003268D9F8343022F040621A43B3F1006F71
:101C8000326005D156F87C2C42F4801246F87C2C48
:101C90004A040FD53268D9F8383022F040621A432E
:101CA000B3F1006F326005D156F87C2C42F48012FB
:101CB00046F87C2C09040FD53168D9F83C2021F076
:101CC00040511143B2F1805F316005D156F87C1C60
:101CD00041F4803146F87C1C01B0BDE8F08300215E
:101CE000C9073FF415AF0EE0B168B26821F4407146
:101CF00042F48032B260B26822F48032B260B160E5
:101D0000C9073FF405AF0446FFF77EFD054641F2E3
:101D1000893700BFB068800709D4FFF775FD401B05
:101D2000B842F7D3032000287FF4FBAEF1E620464B
:101D300000287FF4F6AEECE62DE9F047002800F02D
:101D4000FE8042F2000AC4F2020A0446DAF80000F9
:101D50000D4600F00F0081420DD9DAF8000020F0A6
:101D60000F002843CAF80000DAF8000000F00F0066
:101D7000A84240F0E480216841F20808C807C4F294
:101D800002080CD14FF00009206881074BD4B9F14B
:101D9000000F61D0D8F8000020F0F0005AE0606831
:101DA00058F8082C022800F0C880032840F0CA80A8
:101DB000920140F1C480D8F80420D8F8043042F2EF
:101DC0000046C3F3031302F00302D8F80470013392
:101DD000C0F2F406032A04BF43F20066C0F26E1696
:101DE000B6FBF3F2D8F80430C7F306277A43C3F3FF
:101DF0004163022707EB4303B2FBF3F24BF20043CC
:101E0000C0F2C4439A4240F2E480D8F8002012F0B5
:101E1000F00F00F0D480890740F1DB80A168002931
:101E200040F0D780CBE0410705D5D8F8001041F449
:101E3000E061C8F80010000706D5D8F800000721B7
:101E400061F30D20C8F80000D8F80000A16820F068
:101E5000F0000843C8F80000DAF8000000F00F00B6
:101E6000854219D2DAF8000020F00F002843CAF8A2
:101E70000000FFF7C9FC064641F28837DAF8000097
:101E800000F00F00A84207D0FFF7BEFC801BB8424D
:101E9000F4D90320BDE8F0872068410707D5D8F8BA
:101EA0000010E26821F4E0611143C8F80010000757
:101EB00008D5D8F80000216920F4605040EAC1003C
:101EC000C8F80000D8F8000042F20041C0F2F40166
:101ED00000F00C000428084600F09C80D8F80000B0
:101EE00000F00C00082843F20060C0F26E1000F011
:101EF0009180D8F8002002F00C020C2A40F0898072
:101F0000D8F80420D8F8043002F00302C3F3031316
:101F1000D8F804700133032A08BF0146B1FBF3F07F
:101F2000D8F80410C7F30627C1F3416102227843B1
:101F300002EB4101B0FBF1F06CE0910304D401200D
:101F4000BDE8F0875105FAD5D8F8001001F00C0172
:101F500004293ED0D8F8001001F00C01082938D02F
:101F6000D8F8001001F00C010C2932D1D8F8041077
:101F7000D8F8042042F20047C2F3031201F0030133
:101F8000D8F804300132C0F2F407032904BF43F249
:101F90000067C0F26E17B7FBF2F1D8F80420C3F364
:101FA00006235943C2F34162022303EB4202B1FB11
:101FB000F2F14BF20042C0F2C442914209D9D8F882
:101FC0000010082262F307114FF00109C8F8001051
:101FD00001E04FF00009D8F8001021F00301084398
:101FE000C8F80000FFF710FC064641F2883700BF32
:101FF000D8F80000616800F00C00B0EB810F3FF4EE
:10200000C3AEFFF701FC801BB842F1D90320BDE845
:10201000F0870020D8F8001048F69012C1F30311A1
:10202000C0F60002515C40F2080201F01F0120FAE4
:1020300001F140F26800C2F200000068C2F2000242
:102040001160BDE8F047FFF703BC000040F2080054
:1020500041F20801C2F20000C4F2020100680968FE
:1020600048F6A012C1F30221C0F60002515C01F053
:102070001F01C8407047000040F2080041F208010B
:10208000C2F20000C4F202010068096848F6A0121A
:10209000C1F3C221C0F60002515C01F01F01C8402B
:1020A0007047000041F20C01C4F2020151F8040C27
:1020B00042F20042C0F2F40200F00C000428104684
:1020C00008BF704751F8040C00F00C00082843F2D8
:1020D0000060C0F26E1025D051F8043C03F00C03F0
:1020E0000C2B1CBF0020704780B5D1F800C00B68D6
:1020F0000CF0030CC3F3031E0B680EF1010EBCF1D0
:10210000030F08BF02460968B2FBFEF0C3F30623C3
:10211000C1F341610222584302EB4101B0FBF1F0EF
:10212000BDE8804070470000002804BF01207047D0
:102130002DE9F04182B00446007841F20006C00764
:10214000C4F202061DD12078800737D4207800071A
:102150005AD42078400778D42078800600F1BF80D8
:10216000E069002800F0CD81B16801F00C010C2974
:1021700040F01E81012840F08C81012002B0BDE8B2
:10218000F081B06800F00C01F068082954D00322F7
:1021900081F00C0122EA00000844B0FA80F0400906
:1021A0004AD165683068B5F5A02F00F0C680B5F556
:1021B000803F40F0C98040F48030CBE0B068F168E7
:1021C00000F00C00042864D001F0030180F00C0042
:1021D00081F002010844B0FA80F0400959D1E16869
:1021E0003068002900F0D18040F480703060FFF743
:1021F0000BFB05463068400500F1F080FFF704FB5B
:10220000401B0228F6D92AE16169D6F8940000291A
:1022100000F0818040F00100C6F89400FFF7F4FA66
:10222000054600BFD6F89400800792D4FFF7ECFA79
:10223000401B0228F6D912E1306880037FF583AF96
:10224000606800287FF47FAF39E0B06D5FEAC008B6
:1022500008D4B06D40F08050B065B06D00F0805093
:102260000190019847F20007C4F200073868C005E2
:1022700029D4386840F480703860FFF7C5FA054605
:102280003868C0051FD4FFF7BFFA401B0228F7D9F2
:10229000E5E03068400501D5E06880B170682169EB
:1022A00020F0FE4040EA0160706040F26800C2F237
:1022B00000000068FFF7CCFA00283FF447AF012088
:1022C00002B0BDE8F081A568D6F89000052D00F0B9
:1022D000A280012D40F0A88040F00100ACE0A1698F
:1022E000D6F89800002900F0818040F00100C6F87F
:1022F0009800FFF789FA0546D6F8980080073FF561
:102300002FAFFFF781FA401B02284FF00300F3D9EB
:1023100002B0BDE8F08120F00100C6F89400FFF79C
:1023200073FA0546D6F8940080077FF512AFFFF7E1
:102330006BFA401B0228F5D991E040F48020306010
:10234000306840F4803005E020F480303060306840
:1023500020F480203060FFF757FA002D054610D09A
:10236000306880033FF5EFAEFFF74EFA401B64285C
:10237000F6D974E0FFF748FA401B64284FF00300D9
:10238000C6D830688003F5D4DDE620F48070306074
:10239000FFF73AFA054600BF306840057FF5D6AE34
:1023A000FFF732FA401B02284FF00300F4D9AFE7E1
:1023B0003168022821F08071316040F0A680FFF77B
:1023C00023FA05463068800140F1B980FFF71CFA16
:1023D000401B02284FF00300F4D999E77068216987
:1023E00020F0FE4040EA01607060AFE620F001009E
:1023F000C6F89800FFF708FA054600BFD6F898001F
:1024000080077FF5ADAEFFF7FFF9401B02284FF0C4
:102410000300F3D97CE740F00400C6F89000D6F83A
:10242000900040F0010007E020F00100C6F89000A5
:10243000D6F8900020F00400C6F89000FFF7E4F909
:10244000002D054641F2883716D000BFD6F890001F
:10245000800715D4FFF7D8F9401BB842F6D90320FE
:1024600002B0BDE8F08100BFFFF7CEF9401BB842D3
:102470004FF003003FF64CAFD6F890008007F3D43E
:10248000B8F1000F3FF568AEB06D20F08050B06538
:1024900062E6F068216A00F003028A427FF40FAF1F
:1024A000626A6FF00F0300F0F00103EB0212914239
:1024B0007FF405AFA16A00F4FE42B2EB012F7FF476
:1024C000FEAEE16A00F07842B2EBC16F7FF4F7AE86
:1024D000226B0023CFF6E07303EA025200F4C0013E
:1024E000A2F5001291427FF4EAAE616B4FF07E429A
:1024F00002EA016100F0C06001F17E4188427FF490
:10250000DEAE002002B0BDE8F081F0684FF6FF714A
:1025100020F00300F060F068CFF6EE610840F06054
:10252000FFF772F9044600BF30688001E9D5FFF774
:102530006BF9001B02284FF00300F5D9E8E6F068BC
:1025400048F20C01C0F29F1104F1200700EA010CCF
:102550008ECF6FF00F00D4E90C5400EB0210002274
:10256000CFF6E07241EA0C0102EA05520843A2F5F7
:1025700000124FF07E4540EA032005EA046510434F
:1025800005F17E4540EAC7602843F060306840F0BE
:1025900080703060F06840F08070F060FFF734F9D0
:1025A000044600BF30688001ABD4FFF72DF9001B53
:1025B00002284FF00300F5D9AAE60000411E0020D2
:1025C000B0EB116F1CBF012070474EF21002CEF22B
:1025D000000251604EF62351CEF20001F0230B7041
:1025E000072190601160704790F83C20012A04BFD9
:1025F00002207047F0B5012280F83C20D1E9023278
:10260000D1E900CE22F47C5223F470531A4348F2ED
:10261000FF73CFF6F07303EA0E0342EA030E0A6972
:102620002CF477234EEA030C22F476224B6942EA1B
:102630000C021A430B6B22F4742C23F470238A6966
:1026400043EA0C0343EA0243026843F2004EC4F239
:10265000010E42F6004C7245C4F2010C01D06245F5
:1026600003D1CC6923F080532343724501D06245E6
:1026700017D101F12006002770CECFF6F04723F0E6
:102680007C7307EA0656334324F0007423437245F3
:1026900043EA050301D0624503D1C96A23F0005320
:1026A0000B430021536480F83C100020F0BD000073
:1026B00090F83C20012A4FF002024DD070B5012362
:1026C00080F83C3080F83D20026843F2004C5468AA
:1026D0009368C4F2010C42F6004E6245C4F2010E4A
:1026E00001D0724503D14D6824F470042C434FF699
:1026F0008F75CFF6FF550E682C4042F6FF35C4F2B9
:1027000001053443AA4254600FDCB2F1804F16D069
:1027100040F20046C4F20006B24210D040F6000675
:10272000C4F20006B2420AD00EE0724507D044F26D
:102730000006C4F20106B24201D0624504D18968A4
:1027400023F08003194391600121002280F83D109D
:1027500080F83C20BDE8704010467047002804BF58
:102760000120704710B5044690F83D0028B90020BC
:1027700084F83C00204600F023F8022084F83D0055
:102780002068211D04F0CAF9012084F8480084F86B
:102790003E0084F83F0084F8400084F8410084F84B
:1027A000420084F8430084F8440084F8450084F82B
:1027B000460084F8470084F83D00002010BD00006A
:1027C00070B586B00446006844F2FF31C4F20101DE
:1027D00088424FF000010591CDE90311CDE90111C7
:1027E00038DCB0F1804F4DD040F20041C4F200011E
:1027F000884240F09E8041F24C00C4F20200C16861
:10280000002641F00201C160C16801F0020100919F
:102810000099016841F002010160006801A900F01F
:102820000200009000981020019002200290059074
:1028300040F20040C4F60000CDE90366FEF704FF55
:102840000820C4F2020040F26C351430C2F20005D8
:102850003D2144E044F20041C4F2010188425BD0D2
:1028600044F60001C4F20101884262D141F24C00F9
:10287000C4F20200416941F480214161406900F4E1
:10288000802054E041F24C00C4F20200C1680026EE
:1028900041F00101C160C16801F00101009100999E
:1028A000016841F001010160006801A900F0010028
:1028B000009000984FF40040019002200290012007
:1028C00005904FF09040CDE90366FEF7BDFE40F263
:1028D0000C350820C2F20005C4F202003821802223
:1028E0004FF400734FF4006C4FF0200E2860284620
:1028F0006960AE60EE602A616B61C5F818C0C5F80A
:102900001CE02E62FEF788FD002818BFFEF726F8AF
:102910006562AC6206B070BD41F24C00C4F20200C8
:10292000416941F400314161406900F40030009098
:10293000009806B070BD000090F83C20012A4FF0CE
:10294000020200F0A18080B5012380F83C3080F8BD
:102950003D20D0F800C08822DCF80830CFF6CE72D7
:102960001A40CCF808200B686F2B29DC2F2B38DDA0
:102970004F2B45DC302B73D0402B7DD1D1F804E0B8
:10298000C968DCF82030DCF8202022F00102CCF805
:102990002020DCF8182022F0F00242EA011123F096
:1029A0000A0242EA0E02CCF81810CCF82020DCF81B
:1029B00008104FF68872CFF6CF721140473159E0B8
:1029C0001F22C0F21002934211DD3F21C0F210011C
:1029D0008B423BDC2021C0F210018B4240D03021E1
:1029E0003AE0EBB3102B3BD0202B39D044E0702BD6
:1029F0006ED0B3F5005F7ED0B3F1101F30D03BE056
:102A0000502B43D0602B37D1D1F804E0C968DCF8F3
:102A1000203023F01003CCF82030DCF81830DCF83C
:102A2000202023F4704322F0A00243EA013142EA5D
:102A30000E12CCF81810CCF82020DCF808104FF655
:102A40008872CFF6CF721140673113E04021C0F297
:102A500010018B4204D07021C0F210018B420BD1C7
:102A6000DCF808104FF68872CFF6CF721140194388
:102A700041F00701CCF808100121002280F83D1038
:102A800080F83C20BDE8804010467047D1F804E053
:102A9000C968DCF82030DCF8202022F00102CCF8F4
:102AA0002020DCF8182022F0F00242EA011123F085
:102AB0000A0242EA0E02CCF81810CCF82020DCF80A
:102AC00008104FF68872CFF6CF7211405731D1E718
:102AD000D1E901E3C968DCF8082043EA0E0322F4D7
:102AE0007F4243EA01211143CCF80810DCF80810BA
:102AF00041F07701BEE7D1E901E3C968DCF80820BD
:102B000043EA0E0322F47F4243EA01211143CCF849
:102B10000810DCF8081041F48041ABE77047000072
:102B2000704700007047000090F83C30012B04BF54
:102B300002207047F0B5012380F83C300368D1E9EA
:102B400000C4D1F80CE01D6A082A38D0042A1ED02F
:102B5000002A4ED125F001021A621A4642F6FF37CA
:102B600052F8186F1D6AC4F20107BB4261DCB3F171
:102B7000804F70D040F20047C4F20007BB426AD0D9
:102B800040F60007C4F20007BB4264D07CE025F0A9
:102B900010021A621A4652F8185F24024FF2FF0719
:102BA0001E6ABC4325F473456EF30F3444EA0507EF
:102BB00026F0A0060CF00A0546EA051630E025F4DA
:102BC00080721A621A4652F81C5F1E6A25F0F305DD
:102BD0006EF3071444EA050726F420660CF00A0594
:102BE00046EA052617601E62136823F00C03136083
:102BF00041E025F480521A621A4652F81C5F240202
:102C00004FF2FF071E6ABC4325F473456EF30F3481
:102C100044EA050726F420460CF00A0546EA053684
:102C200017601E62136823F4406313608968090209
:102C300022E042F60047C4F20107BB420BD044F247
:102C40000007C4F20107BB4205D043F20047C4F2BB
:102C50000107BB4218D126F00306344325F00A07CA
:102C60000CF00A066EF3071437449C611F629F69DB
:102C700027F00C079F6189681368194311600021D0
:102C800080F83C100020F0BD46F00104E6E70000AB
:102C9000002804BF0120704710B5044690F83D009D
:102CA00028B9002084F83C00204600F023F80220D8
:102CB00084F83D002068211D03F030FF012084F8D6
:102CC000480084F83E0084F83F0084F8400084F80F
:102CD000410084F8420084F8430084F8440084F8FA
:102CE000450084F8460084F8470084F83D00002041
:102CF00010BD00007047000070B559B10C1F4FEABD
:102D0000B40C43254FF03F0EBCF1040F38BF0EEB5F
:102D1000B40500E03E254724455D082908BF462448
:102D2000042908BF4524002908BF4424045D022D5E
:102D30004FF0020C18BF022C01D1604670BD012D6E
:102D40004FF0010C08BF012CF7D10AB9002BF4D1C8
:102D500061B10D1F4FEAB505032D17D8DFE805F067
:102D600002120A0E022580F83F5012E0022580F878
:102D70003E500EE0022580F841500AE0022580F81E
:102D8000425006E0022580F8405002E0022580F81B
:102D9000435041B1082909D0042914BF80F8475095
:102DA00080F8455004E080F8445001E080F8465037
:102DB0004FEAB105032D00F27D800E46DFE805F0F5
:102DC00002571F3B456A46F62544C0F60004EC62F4
:102DD000456A46F69944C0F600042C63456A46F6F7
:102DE000D144C0F6000401686C630546406A343182
:102DF000FEF7A4FB002853D14FF4007254E0C56ADB
:102E000046F62544C0F60004EC62C56A46F69944CD
:102E1000C0F600042C63C56A46F6D144C0F600042F
:102E200001686C630546C06A3C31FEF787FBB8BB9E
:102E30004FF4006238E0056B46F62544C0F6000406
:102E4000EC62056B46F69944C0F600042C63056BF2
:102E500046F6D144C0F6000401686C630546006B79
:102E60004031FEF76BFBD8B94FF480521CE0856A05
:102E700046F62544C0F60004EC62856A46F699449D
:102E8000C0F600042C63856A46F6D144C0F60004FF
:102E900001686C630546806A3831FEF74FFB08B164
:102EA000012070BD4FF480622B683146DE682846F1
:102EB0003243DA60006801F01F010122036A02FA5E
:102EC00001F123EA01020262026A114342F6FF3273
:102ED000C4F20102904201620DDCB0F1804F1CD0BF
:102EE00040F20041C4F20001884216D040F60001D1
:102EF000C4F200010FE042F60041C4F20101884231
:102F00000BD044F20001C4F20101884205D043F223
:102F10000041C4F2010188420DD181680722C0F24C
:102F20000102114006294FF0000C3FF406AFB1F545
:102F3000803F3FF402AF01684FF0000C41F0010107
:102F40000160604670BD0000B0B5044600680D46E3
:102F500001F01F010122036A02FA01F123EA0101D3
:102F60000162026A4FEAB501032902620DD849F6EF
:102F7000B032C0F6000252F82120C3681A40C26085
:102F800004EB8100406AFEF7B9F9206841F21112A2
:102F9000016A114204D1016A44F2444211420ED046
:102FA0009DB1281F4FEAB00003282FD8DFE800F0BA
:102FB000021C1217012084F83F00CDB92BE00168F4
:102FC00021F001010160002DEBD1012084F83E00C9
:102FD00075B920E0012084F841004DB91BE00120C3
:102FE00084F8420025B916E0012084F8400095B12C
:102FF000082D07D0042D14BF84F8470084F845003D
:103000000020B0BD84F846000020B0BD012084F847
:103010004300002DECD184F844000020B0BD000036
:1030200090F83C30012B04BF022070474FEAB202F7
:103030000123052A80F83C3000F2C8812DE9F041D7
:10304000DFE812F0060031018B00DE004F00820144
:1030500003681A6AA3F1804622F001021A621D6A0F
:103060001A465C6852F818CF8F68A6F59636D1F8E4
:1030700000E025F002054FEAB626072E45EA0705CF
:103080000AD80127B74017F0E50F1FBFCF6825F01A
:103090000C0527F004073D43072E0BD8012707FA3C
:1030A00006F616F0E50F1FBFD1E9056724F440745A
:1030B00034433C434FF68C76CFF6FE760CEA060797
:1030C00047EA0E075C609F614F6809695F631D6294
:1030D0009F6947F008079F619F6927F004079F6178
:1030E0006FE103681A6AA3F1804722F480321A6202
:1030F0001A46A7F59637D3F820805D6852F850EF4E
:10310000D1F800C08E684FEAB727072F09D80124ED
:10311000BC4014F0E50F1EBF4C6925F4803545EA2C
:10312000042528F4003444EA06444FF68C76CFF6A2
:10313000FE7603360EEA060747EA0C075D601F6558
:103140004F6809699F641C621F6D47F008071F657F
:103150001F6D27F004071F6533E1036843F2004643
:103160001A6AC4F2010622F480721A621D6A1A46B3
:10317000D3F804C052F81CEFB3428E68D1F8008037
:1031800025F4007545EA062505D042F60046C4F24E
:103190000106B34207D1CE6840F2FF47360225F45C
:1031A0004065BE433543A3F18046A6F596364FEA07
:1031B000B626072E0CD8012707FA06F616F0E50FFB
:1031C0001FBFD1E905672CF44054374344EA071C7C
:1031D0004FF68C74CFF6FE740EEA040747EA080730
:1031E000C3F804C0DF614F680969DF631D62DF69EE
:1031F00047F00807DF61DF6927F00407DF61E0E0DF
:10320000036843F200461A6AC4F2010622F48052AF
:103210001A621D6A1A46D3F804C052F81C8FB342D2
:103220008E68D1F800E025F4005545EA063505D052
:1032300042F60046C4F20106B34207D1CE6844F616
:10324000FF77360325F44045BE433543A3F180465E
:10325000A6F596364FEAB626072E0CD8012707FAB0
:1032600006F616F0E50F1FBFD1E905672CF44044C0
:10327000374344EA871C48F6FF44CFF6FF6404EA6C
:10328000080444EA0E27C3F804C0DF614F680969E7
:103290001F641D62DF6947F40067DF61DF6927F49F
:1032A0008067DF618CE0036843F200461A6AC4F26B
:1032B000010622F010021A621D6A1A465C6852F872
:1032C00018CFB3428E68D1F800E025F0200545EA1A
:1032D000061505D042F60046C4F20106B34207D1F6
:1032E000CE686FF0400725F0C00507EA06163543A3
:1032F000A3F18046A6F596364FEAB626072E0CD8DF
:10330000012707FA06F616F0E50F1FBFD1E905679A
:1033100024F440643E4344EA860448F6FF46CFF670
:10332000FF660CEA060747EA0E275C609F614F685C
:1033300009699F631D629F6947F400679F619F69E8
:1033400027F480679F613BE003681A6AA3F1804716
:1033500022F480121A621A46A7F59637D3F8208015
:103360005D6852F850EFD1F800C08E684FEAB72779
:10337000072F09D80124BC4014F0E50F1EBF4C698B
:1033800025F4802545EA842528F4001444EA0654EF
:1033900048F6FF46CFF6FF6606F540760EEA0607CA
:1033A00047EA0C275D601F654F680969DF641C628E
:1033B0001F6D47F400671F651F6D27F480671F6549
:1033C0000902136819431160BDE8F041002180F83B
:1033D0003C10002070470000002804BF0120704707
:1033E00010B5044690F83D0028B9002084F83C0050
:1033F000204600F023F8022084F83D002068211DBB
:1034000003F08CFB012084F8480084F83E0084F827
:103410003F0084F8400084F8410084F8420084F8BA
:10342000430084F8440084F8450084F8460084F89A
:10343000470084F83D00002010BD000070470000E8
:1034400080B559B10B1F4FEAB30C43224FF03F0E2A
:10345000BCF1040F38BF0EEBB30200E03E22825CE9
:10346000012A1CBF012080BD61B10A1F4FEAB202D0
:10347000032A17D8DFE802F002120A0E022280F8AF
:103480003F2012E0022280F83E200EE0022280F867
:1034900041200AE0022280F8422006E0022280F861
:1034A000402002E0022280F84320026801F01F0061
:1034B0000121136A01FA00F083431362136A18436F
:1034C0001062A2F18040A0F596304FEAB02342F698
:1034D000FF30062BC4F201003ED8994011F0650F71
:1034E0003AD0516C824241F4004151640FDCB2F198
:1034F000804F1ED040F20040C4F20000824218D03B
:1035000040F60000C4F20000824212D01EE042F6F3
:103510000040C4F2010082420BD044F20000C4F229
:103520000100824205D043F20040C4F20100824211
:103530000CD190680721C0F20101014006294FF02B
:10354000000008D0B1F5803F08BF80BD106840F092
:1035500001001060002080BD8242C8DD43F6FF718B
:10356000C4F201018A4202DC42F60040D7E744F28D
:103570000001C4F201018A42DBD044F60001C4F22A
:1035800001018A42ADD0E1E7B0B5044690F83C00B5
:1035900001284FF0020008BFB0BD012584F83C505F
:1035A00084F83D00204603F0C1FB00284FF00100E5
:1035B00009D12068C16821F04001C160C16821F4CF
:1035C0008041C1600020002184F83D5084F83C1007
:1035D000B0BD000090F88010012904BF02207047A0
:1035E0002421C0F8841001680A680B6822F0005298
:1035F00023F001030B60002343660A602021C0F81A
:10360000841080F880300020704700007047000070
:103610007047000090F88020012A04BF0220704704
:10362000B0B50123242280F88030C0F884200268DD
:10363000D0F864E0D2F800C01468BEF1000F24F0A6
:1036400001041460946824F0606441EA040191600C
:103650001BD09168936849F6D03E5B0FC0F6000E10
:1036600049F6D8351EF80340C0F60005EB5CE400CF
:10367000B4FBF3F3C1F34261A0F86A301EF80130E5
:10368000695CDB00B3FBF1F301E0A0F86A302021B4
:10369000A0F86830C2F800C0C0F88410002180F89B
:1036A00080100020B0BD000090F88020012A04BFE7
:1036B00002207047B0B50123242280F88030C0F882
:1036C00084200268D0F864E0D2F800C01468BEF12B
:1036D000000F24F001041460946824F0604441EA6F
:1036E000040191601BD09168936849F6D03E5B0F4E
:1036F000C0F6000E49F6D8351EF80340C0F60005A6
:10370000EB5CE400B4FBF3F3C1F34261A0F86A3070
:103710001EF80130695CDB00B3FBF1F301E0A0F8B7
:103720006A302021A0F86830C2F800C0C0F88410C8
:10373000002180F880100020B0BD0000704700001C
:10374000704700007047000070B5026840F62F0413
:10375000D369116896681C40202C05D101F0200423
:1037600006F080552D1936D140F60F051D400CD0BE
:103770000125C1F2000506EA050C40F22015C0F251
:1037800000450D4015EB0C052BD1C46EDD0616D59A
:10379000012C14D111F0100511D010211162916883
:1037A000490600F1A180B0F85C10B0F85E30B0F8C6
:1037B0005E60002E18BF994240F00C8170BDDD02A2
:1037C00077D516F4800574D04FF480111162BDE8EE
:1037D0007040FFF7B5BF016F0029EFD0BDE8704022
:1037E0000847DD0718BF11F4807507D00125156261
:1037F000D0F88C5045F00105C0F88C509D0706F0BC
:10380000010E0AD5BEF1000F07D002241462D0F8D1
:103810008C4044F00404C0F88C405C070AD5BEF12B
:10382000000F07D004251562D0F88C5045F0020532
:10383000C0F88C501D070CD501F0200555EA0C0589
:1038400007D008251562D0F88C5045F00805C0F85F
:103850008C501D050BD511F0806508D04FF4006524
:103860001562D0F88C2042F02002C0F88C20D0F8ED
:103870008C20002AA2D09A060AD501F0200106F079
:103880008052891804D0016F11B104468847204640
:103890000168D0F88C208B6802F0280203F0400306
:1038A000D21858D10446FFF74DFF0020C4F88C0011
:1038B00070BD1D0606D501F0800506F400067619D8
:1038C00040F0A3805E067CD511F0400679D01168E7
:1038D00021F0400111602021C0F8841000214167CF
:1038E000BDE8704000F008BAD0F87CC0DCF80030C9
:1038F0005C68A1B200293FF461AFB0F85C60B142EE
:10390000BFF45CAFA0F85E401968890619D411684D
:10391000044621F480711160916821F001019160E9
:10392000916821F0400191602021C0F888100021A9
:10393000C1661168604621F010011160FDF7A6FC18
:103940002046B0F85C10B0F85E20891A89B2BDE854
:103950007040FFF75BBE0A684FF6FE7322F4907268
:103960000A608A68CEF6FF731A408A60C26E012A26
:1039700003D10A6822F010020A602022C0F88820D1
:103980000022C26602678A68520616D58A6822F04B
:1039900040028A60C16F81B146F6C972C0F600026A
:1039A000044608468A63FDF7A9FC00283FF406AFE9
:1039B000E06F816BBDE870400847BDE87040FFF7DD
:1039C000C1BE1A0228D511F0804225D0BDE8704052
:1039D000FFF7B4BE16684FF6FE7526F490761660B3
:1039E0009668CEF6FF752E4096602026C0F8886057
:1039F0000026C66606671668C91A26F0100389B243
:103A00001360BDE87040FFF701BE416F00293FF42D
:103A1000D5AEBDE870400847DA017FF5CFAEB1F111
:103A2000FF3FC8BF70BDBDE87040FFF7F1BD0000AB
:103A300010B5A8B10446D0F8840028B9002084F855
:103A40008000204600F026F82420C4F88400206876
:103A5000016821F001010160204603F08DFC08B1EE
:103A6000012010BDA06A10B1204603F0D5F92168ED
:103A7000486820F490404860886820F02A008860F8
:103A8000086840F0010220460A60BDE8104003F0DB
:103A900037BA000070B598B00446002502A844214A
:103AA0001795CDE91555CDE91355FCF7E9FB2068CD
:103AB00043F60001C4F20101884201D018B070BD84
:103AC0000120CDE9020502A8FDF7DCFF002818BFA0
:103AD000FCF744FF41F24C00C4F2020041690026A9
:103AE00041F480414161416901F4804101910199B2
:103AF000016841F001010160006813A900F00100B4
:103B0000019001984FF4C060139002201490072098
:103B100017904FF09040CDE91566FDF795FD40F206
:103B2000CC353020C2F20005C4F20200182185E82D
:103B300043004FF40050802228622846C5E9036202
:103B4000C5E90566EE61FDF767FC002818BFFCF7C4
:103B500005FF252000210022E567AC62FDF7D2FEBB
:103B60002520FDF7BDFE18B070BD0000D0F88830EC
:103B7000202B0BD100294FF0010318BF002A01D1DF
:103B80001846704790F88030012B01D10220704711
:103B9000012380F880300023C366D0F800C048F2CB
:103BA0000003C4F200039C4509D0DCF804301B027A
:103BB00005D5DCF8003043F08063CCF8003080B5E8
:103BC00003F024FD0023BDE8804018467047000044
:103BD000006843F60001C4F20101884218BF704733
:103BE00040F68C00C2F2000040F6840C006840F6FB
:103BF0008801C2F2000CC2F20001BCF8002008608B
:103C000040F60400531CC2F2000010FA83F140F2A7
:103C10005C50C2F200000122ACF80030FFF7A6BFF2
:103C20002DE9F04182B00446D0F8840020280DD15F
:103C30000F4600294FF0010018BF002A02D102B040
:103C4000BDE8F08194F88000012803D1022002B081
:103C5000BDE8F081012084F880000020C4F88C00C9
:103C600021201D46C4F884001646FDF7CDFDA4F8BA
:103C70005460A4F85660A1688046B1F5805F01D118
:103C80002069B0B33E460027002084F8800008E099
:103C900016F8010B21688862B4F856000138A4F8C0
:103CA0005600B4F8560088B12046802100224346D1
:103CB000009503F019FD88B9002EE9D137F8020B01
:103CC00021686FF35F2088620026E5E720464021E7
:103CD00000224346009503F007FD18B1032002B00F
:103CE000BDE8F0812020C4F88400002002B0BDE8C7
:103CF000F0810026C8E7000070470000FEE70000E2
:103D000040F21841C4F600010A6942F400720A61E7
:103D10000A6942F480720A610A6842F020020A606D
:103D20002022C1F8FC230A6942F020020A6100BF88
:103D300000BF00BF0A6842F020020A600A6842F42D
:103D400080720A600022C1F8FC230B6943F0200353
:103D50000B6100BF00BF00BF0B6843F020030B6086
:103D60000B6843F480730B600B6943F400730B61C1
:103D70000B6943F480730B610B6843F020030B6005
:103D80002123C1F8FC330B6943F020030B6100BF12
:103D900000BF00BF0B6843F020030B600B6843F4C7
:103DA00080730B60C1F8FC230A6942F020020A61AB
:103DB00000BF00BF00BF0A6842F020020A600A6824
:103DC00042F480720A600A6942F400720A610A6968
:103DD00042F480720A610A6842F020020A602222DC
:103DE000C1F8FC230A6942F020020A6100BF00BF4B
:103DF00000BF0A6842F020020A600A6842F480723A
:103E00000A6000BF00BF00BF0A6842F400720A6087
:103E10004FF496320B69013A43F400730B610B685F
:103E200043F480730B600B6843F020030B60C1F810
:103E3000FC030B6943F020030B6100BF00BF00BF10
:103E40000B6843F020030B600B6843F480730B6036
:103E500000BF00BF00BF0B6843F400730B60D9D1F3
:103E6000704700000A78002A08BF70472DE9F0412A
:103E700048F6A81804464D1C002740F23F16C0F62D
:103E8000000800BFA2F12000C1B2490051FA80F041
:103E900008EB0012B1B2204600F00AF8EA5D22B148
:103EA000103E132F07F10107ECD3BDE8F041704736
:103EB0002DE9F04740F21843C4F600031F694FF0A4
:103EC000200C47F400771F611F694FF0210E47F463
:103ED00080771F611F6840F2040947F020071F60C8
:103EE000C3F8FCC31F6940F2740A47F020071F6142
:103EF00000BF00BF00BF1F684FF0220847F0200737
:103F00001F601F68C2F2000947F480771F60C3F882
:103F1000FC031F69C2F2000A47F020071F6100BFBF
:103F200000BF00BF1F6847F020071F601F6847F4ED
:103F300080771F601F6947F400771F611F6947F48E
:103F400080771F611F6847F020071F60C3F8FCE3FC
:103F50001C6944F020041C6100BF00BF00BF1C6846
:103F600044F020041C601C6844F480741C60C3F896
:103F7000FC131C6944F020041C6100BF00BF00BF9B
:103F80001C6844F020041C601C6844F480741C60AD
:103F9000002400BF1D6945F400751D611D6945F4CD
:103FA00080751D611D6845F020051D60C3F8FC8308
:103FB0001D6945F020051D6100BF00BF00BF1D68E1
:103FC00045F020051D601D6845F480751D6000BF2B
:103FD00000BF00BF1D6845F400751D60002500BFCF
:103FE00032F81460EE40F607564608BF4E46368853
:103FF0001F69013547F400771F611F68102D47F4D2
:1040000080771F601F6847F020071F60C3F8FC63BC
:104010001E6946F020061E6100BF00BF00BF1E687B
:1040200046F020061E601E6846F480761E6000BFC3
:1040300000BF00BF1E6846F400761E60D0D11D6927
:10404000013045F400751D611D69013445F480752A
:104050001D611D68182C45F020051D60C3F8FCC3C8
:104060001D6945F020051D6100BF00BF00BF1D6830
:1040700045F020051D601D6845F480751D60C5B2C2
:10408000C3F8FC531D6945F020051D6100BF00BF4A
:1040900000BF1D6845F020051D601D6845F4807552
:1040A0001D601D6945F400751D611D6945F480752D
:1040B0001D611D6845F020051D60C3F8FCE31D6906
:1040C00045F020051D6100BF00BF00BF1D6845F021
:1040D00020051D601D6845F480751D60C3F8FC1344
:1040E0001D6945F020051D6100BF00BF00BF1D68B0
:1040F00045F020051D601D6845F480751D6008BFF2
:10410000BDE8F08746E700002DE9F04F8BB00026B0
:1041100041F24C000596CDE90366CDE90166C4F293
:104120000200016840F2184541F004010160016895
:10413000C4F6000501F0040106910699016801AC7E
:1041400041F001010160016840F6140901F001012C
:104150000691069901684FF0030841F002010160E1
:104160000068214600F00200069006984FF448705F
:10417000019001200290A5F11800C4F60009012762
:10418000CDE90368FDF760FA4FF48070CDE90107CF
:104190004FF090402146CDE90368FDF755FA4FF600
:1041A000FF7005F57A74069006A920460A960896CF
:1041B0004FF6FF7B0797CDF82480FDF745FA4FF6C1
:1041C000004ACFF6FF7A55F80A0006A940F480703D
:1041D00045F80A0028684FF6FF7740F40870286019
:1041E000286940F400702861286940F480702861D3
:1041F000286840F020002860C9F80060286940F075
:104200002000286100BF00BF00BF286840F02000E8
:104210002860286840F48070286020460A96089636
:10422000CDE906B6CDF82480FDF70EFA4FF6104B17
:10423000CFF6FF7B55F80B0006A940F4807045F8D7
:104240000B0000BF00BF00BFD5F8F89355F80A0077
:1042500040F4807045F80A0001200A9608960790FD
:1042600020460697CDF82480FDF7EEF9286848F23D
:10427000302140F40070286040F27010C2F200005B
:10428000A0F800900088884202D100F035FC01E0DF
:1042900001F0A6F92869002740F400702861286918
:1042A0004FF6FF7840F48070286128684FF00309CA
:1042B00040F02000286040F61400C4F600000760BB
:1042C000286906A940F02000286100BF00BF00BF98
:1042D000286840F020002860286840F4807028603A
:1042E00020460A97CDE90777CDF81880CDF82490BD
:1042F000FDF7AAF955F80B0006A940F4807045F8BF
:104300000B0000BF00BF00BFD5F8F86355F80A00E6
:1043100040F4807045F80A0001200A97089707903A
:104320002046CDF81880CDF82490FDF78DF9286847
:1043300040F40070286040F27010C2F20000068065
:104340000BB0BDE8F08F000081B0ADF80200BDF801
:10435000020040F20401C2F20001088001B070477F
:1043600081B0ADF80200BDF8020040F27401C2F263
:104370000001088001B0704710B58CB040F2741095
:10438000C2F200004FF0A04100244FF4403280E818
:1043900016004FF480710423818301210B94CDE931
:1043A0000944CDE90744CDE90544CDE90344CDE90D
:1043B0000144C0E90344C0E90543016280F8244098
:1043C000C0E90B4480F83810C46380F84040FCF723
:1043D00017FD002818BFFCF7C1FA40F27410C2F2B2
:1043E000000009A90994FCF709FB002818BFFCF795
:1043F000B5FA40F60000C2F63060019006207F2139
:1044000002900020049104210390CDE9051040F2B0
:104410007410C2F2000001A9FCF752FB002818BF7B
:10442000FCF79CFA0CB010BDB0B588B040F2E010BB
:1044300040F20011C2F20000C5F2000100244FF466
:10444000403280E816004FF48071042581830121F9
:10445000CDE90644CDE90444CDE90244CDE9004468
:10446000C0E90344C0E90545016280F82440C0E981
:104470000B4480F83810C46380F84040FCF7C0FC5F
:10448000002818BFFCF76AFA48F20000C3F6F06093
:1044900000900620CDE901047F20CDE9030540F21C
:1044A000E010C2F2000069460594FCF709FB002801
:1044B00018BFFCF753FA08B0B0BD000080B582B059
:1044C00041F24800C4F202000168002241F00401F8
:1044D0000160016801F0040101910199016841F056
:1044E000010101600068002100F0010000900098C7
:1044F0000B20FDF707FA0B20FDF7F2F90C20002145
:104500000022FDF7FFF90C20FDF7EAF90D2000214C
:104510000022FDF7F7F90D20FDF7E2F90E2000214A
:104520000022FDF7EFF90E20FDF7DAF90F20002148
:104530000022FDF7E7F90F2002B0BDE88040FDF74B
:10454000CFB900002DE9F04387B0002741F24C00BD
:104550000697CDE90477CDE90277C4F2020001683D
:1045600040F6000841F0040101600168C4F600084B
:1045700001F00401019101990168012241F020013B
:10458000016001684FF47F4601F02001019101991B
:104590000168012541F001010160016801F001019C
:1045A00001910199016841F002010160016801F087
:1045B000020101910199016841F008010160006860
:1045C0004FF47F4100F00800019001984046FDF74C
:1045D00015F908F580642046042100224FF00409F3
:1045E000FDF70CF9CDE9026502AE40463146CDE952
:1045F0000477FDF729F84FF090403146CDE9025796
:104600000495FDF721F80720CDE90207A8F58060A1
:1046100031460495FDF718F820463146CDE902955C
:10462000CDE90477FDF710F807B0BDE8F08300008E
:10463000B0B59AB00024684634211394CDE91144F2
:10464000CDE90F44CDE90D44FBF71AFE40F22C40B2
:1046500044F20045C2F20000C4F201054F2140F2CD
:10466000E732C0E90051C0E90242C0E90444846174
:10467000FEF774F8002818BFFCF770F940F22C40E0
:10468000C2F20000FEF7A8FE002818BFFCF766F98A
:1046900060200D904FF4FA700E9040F22C400024F0
:1046A000C2F200000DA90022CDE90F44CDE911446A
:1046B0001394FEF7B5FC002818BFFCF74FF94FF430
:1046C00000500494CDE90244CDE90044CDE905044D
:1046D0000C9440F22C44C2F2000469462046FDF7D7
:1046E00083FF002818BFFCF739F9206844F6000161
:1046F000C4F2010188424FF000011991CDE9171170
:10470000CDE9151110D0A84229D141F24C00C4F2D4
:104710000200016841F001010160006800F0010041
:104720001490149840200DE041F24C00C4F20200B5
:10473000016841F001010160006800F0010014907F
:10474000149880201590022016900020CDE91700C3
:104750000120199015A94FF09040FCF775FF1AB091
:10476000B0BD0000B0B59AB000246846342113945F
:10477000CDE91144CDE90F44CDE90D44FBF780FDAF
:1047800040F2784044F60005C2F20000C4F2010590
:104790004F2140F2E732C0E90051C0E90242C0E9CE
:1047A00004448461FDF7DAFF002818BFFCF7D6F84F
:1047B00040F27840C2F20000FEF70EFE002818BF5B
:1047C000FCF7CCF860200D904FF4FA700E9040F298
:1047D00078400024C2F200000DA90022CDE90F4468
:1047E000CDE911441394FEF71BFC002818BFFCF719
:1047F000B5F84FF400500494CDE90244CDE90044EB
:10480000CDE905040C9440F27844C2F200046946F4
:104810002046FDF7E9FE002818BFFCF79FF8206846
:104820000021A8421991CDE917111691159114D0C4
:1048300044F20041C4F20101884229D141F24C0006
:10484000C4F20200016841F001010160006800F05B
:1048500001001490149840200DE041F24C00C4F285
:104860000200016841F001010160006800F00100F0
:104870001490149880201590022016900020CDE905
:1048800017000120199015A94FF09040FCF7DCFEAD
:104890001AB0B0BD10B590B040F2C4400021C2F2D1
:1048A00000004FF080424F234FF6FF74CDE90E1108
:1048B000CDE90C11CDE90A11CDE90811CDE90611B8
:1048C000CDE90411CDE90211CDE90011C0E90023C1
:1048D000C0E9021401618161FDF740FF002818BFA3
:1048E000FCF73CF84FF480500C9040F2C440C2F208
:1048F00000000CA9FEF720F8002818BFFCF72EF8DE
:1049000040F2C440C2F20000FEF7C2F9002818BF0E
:10491000FCF724F8042007905020089040F2C4408F
:104920000024C2F2000007A909940B94FEF72CFEA4
:10493000002818BFFCF712F840F2C440C2F2000091
:1049400004A904940694FDF7B3FE002818BFFCF7F1
:1049500005F8002001210090CDE90110039040F2FC
:10496000C440C2F2000069460022FEF7DDF80028CC
:1049700018BFFBF7F3FF10B010BD000010B590B0EA
:1049800040F2105040F200420021C2F20000C4F296
:1049900000024F234FF6FF74CDE90E11CDE90C1143
:1049A000CDE90A11CDE90811CDE90611CDE90411CF
:1049B000CDE90211CDE90011C0E90023C0E90214DC
:1049C00001618161FDF7CAFE002818BFFBF7C6FF31
:1049D0004FF480500C9040F21050C2F200000CA92D
:1049E000FDF7AAFF002818BFFBF7B8FF40F21050F0
:1049F000C2F20000FEF74CF9002818BFFBF7AEFF2B
:104A0000042007905020089040F210500024C2F279
:104A1000000007A909940B94FEF7B6FD002818BF03
:104A2000FBF79CFF40F21050C2F2000004A904946E
:104A30000694FDF73DFE002818BFFBF78FFF00200E
:104A400001210090CDE90110039040F21050C2F214
:104A5000000069460022FEF767F8002818BFFBF740
:104A60007DFF10B010BD000080B540F25C5043F6F1
:104A70000001C2F20000C4F2010100234FF00C0C4F
:104A80004FF4165280E80E00C0E90333C0E905C3B5
:104A9000C0E90733C0E90933FEF7CAFF002818BF91
:104AA000FBF75CFF40F25C50C2F200000021FEF711
:104AB000FBFD002818BFFBF751FF40F25C50C2F22B
:104AC00000000021FEF7A6FD002818BFFBF746FFF7
:104AD00040F25C50C2F20000FEF77CFD002808BFE7
:104AE00080BDBDE88040FBF739BF0000FEE7000055
:104AF000FEE700007047000040F21840C4F60000D6
:104B00000169002241F40071016101694FF0030C59
:104B100041F480710161016841F020010160C0F839
:104B2000FC23016941F02001016100BF00BF00BF0B
:104B3000016841F020010160016841F48071016069
:104B40000121C0F8FC13036943F02003036100BF97
:104B500000BF00BF036843F020030360036843F411
:104B600080730360036943F400730361036943F4D2
:104B700080730361036843F020030360C0F8FC13F3
:104B8000036943F02003036100BF00BF00BF036857
:104B900043F020030360036843F480730360C0F8AC
:104BA000FC23026942F02002026100BF00BF00BF87
:104BB000026842F020020260026842F480720260E1
:104BC000026942F400720261026942F48072026179
:104BD000026842F0200202601022C0F8FC23026941
:104BE00042F02002026100BF00BF00BF026842F035
:104BF00020020260026842F48072026041F2907208
:104C0000C0F8FC23026942F02002026100BF00BF2D
:104C100000BF026842F020020260026842F4807223
:104C20000260026942F400720261026942F4807219
:104C30000261026842F0200202606022C0F8FC2398
:104C4000026942F02002026100BF00BF00BF02689B
:104C500042F020020260026842F4807202604FF467
:104C60001C52C0F8FC23026942F02002026100BF1E
:104C700000BF00BF026842F020020260026842F4F6
:104C800080720260026942F400720261026942F4B9
:104C900080720261026842F0200202606122C0F864
:104CA000FC23026942F02002026100BF00BF00BF86
:104CB000026842F020020260026842F480720260E0
:104CC000C0F8FC13016941F02001016100BF00BF81
:104CD00000BF016841F020010160016841F480716A
:104CE0000160016941F400710161016941F4807161
:104CF0000161016841F0200101604621C0F8FC1308
:104D0000016941F02001016100BF00BF00BF0168DF
:104D100041F020010160016841F4807101600221CD
:104D2000C0F8FC13026942F02002026100BF00BF1C
:104D300000BF026842F020020260026842F4807202
:104D40000260026942F400720261026942F48072F8
:104D50000261026842F0200202601322C0F8FC23C4
:104D6000026942F02002026100BF00BF00BF02687A
:104D700042F020020260026842F48072026048F24F
:104D80001002C0F8FC23026942F02002026100BF59
:104D900000BF00BF026842F020020260026842F4D5
:104DA00080720260026942F400720261026942F498
:104DB00080720261026842F0200202601222C0F892
:104DC000FC23026942F02002026100BF00BF00BF65
:104DD000026842F020020260026842F480720260BF
:104DE00048F2FE02C0F8FC23026942F02002026190
:104DF00000BF00BF00BF026842F0200202600268EC
:104E000042F480720260026942F400720261026937
:104E100042F480720261026842F020020260C0F82F
:104E2000FC13016941F02001016100BF00BF00BF18
:104E3000016841F020010160016841F48071016066
:104E40004FF4A061C0F8FC13016941F02001016139
:104E500000BF00BF00BF016841F020010160016890
:104E600041F480710160016941F4007101610169DF
:104E700041F480710161016841F020010160C0F8D6
:104E8000FCC3026942F02002026100BF00BF00BF04
:104E9000026842F020020260026842F480720260FE
:104EA00041F23002C0F8FC23026942F020020261A4
:104EB00000BF00BF00BF026842F02002026002682B
:104EC00042F480720260026942F400720261026977
:104ED00042F480720261026842F0200202603022D5
:104EE000C0F8FC23026942F02002026100BF00BF4B
:104EF00000BF026842F020020260026842F4807241
:104F0000026040F20332C0F8FC23036943F020033F
:104F1000036100BF00BF00BF036843F020030360CC
:104F2000036843F480730360036943F4007303610F
:104F3000036943F480730361036843F02003036053
:104F40003123C0F8FC33036943F02003036100BF41
:104F500000BF00BF036843F020030360036843F40D
:104F600080730360C0F8FC23036943F020030361EE
:104F700000BF00BF00BF036843F020030360036865
:104F800043F480730360036943F4007303610369AE
:104F900043F480730361036843F02003036032230A
:104FA000C0F8FC33036943F02003036100BF00BF76
:104FB00000BF036843F020030360036843F4807379
:104FC0000360C0F8FC23036943F02003036100BFC2
:104FD00000BF00BF036843F020030360036843F48D
:104FE00080730360036943F400730361036943F44E
:104FF00080730361036843F0200303603323C0F828
:10500000FC33036943F02003036100BF00BF00BF0E
:10501000036843F020030360036843F48073036074
:105020004FF44073C0F8FC33016941F02001016185
:1050300000BF00BF00BF016841F0200101600168AE
:1050400041F480710160016941F4007101610169FD
:1050500041F480710161016841F020010160342157
:10506000C0F8FC13016941F02001016100BF00BFDD
:1050700000BF016841F020010160016841F48071C6
:105080000160C0F8FCC3016941F02001016100BF6B
:1050900000BF00BF016841F020010160016841F4D8
:1050A00080710160016941F400710161016941F49D
:1050B00080710161016841F0200101603521C0F873
:1050C000FC13016941F02001016100BF00BF00BF76
:1050D000016841F020010160016841F480710160C4
:1050E000C0F8FC23016941F02001016100BF00BF4D
:1050F00000BF016841F020010160016841F4807146
:105100000160016941F400710161016941F480713C
:105110000161016841F0200101603621C0F8FC13F3
:10512000016941F02001016100BF00BF00BF0168BB
:1051300041F020010160016841F480710160142197
:10514000C0F8FC13016941F02001016100BF00BFFC
:1051500000BF016841F020010160016841F48071E5
:105160000160016941F400710161016941F48071DC
:105170000161016841F0200101603721C0F8FC1392
:10518000016941F02001016100BF00BF00BF01685B
:1051900041F020010160016841F480710160C0F8B4
:1051A000FC23016941F02001016100BF00BF00BF85
:1051B000016841F020010160016841F480710160E3
:1051C000016941F400710161016941F4807101617B
:1051D000016841F0200101603821C0F8FC13016929
:1051E00041F02001016100BF00BF00BF016841F034
:1051F00020010160016841F480710160C0F8FC2366
:10520000016941F02001016100BF00BF00BF0168DA
:1052100041F020010160016841F480710160016981
:1052200041F400710161016941F48071016101681B
:1052300041F0200101603921C0F8FC13016941F0FF
:105240002001016100BF00BF00BF016841F02001E3
:105250000160016841F480710160C0F8FC230169BC
:1052600041F02001016100BF00BF00BF016841F0B3
:1052700020010160016841F480710160016941F41D
:1052800000710161016941F480710161016841F0BF
:10529000200101603A21C0F8FC13016941F02001AE
:1052A000016100BF00BF00BF016841F02001016043
:1052B000016841F480710160C0F8FC33016941F07C
:1052C0002001016100BF00BF00BF016841F0200163
:1052D0000160016841F480710160016941F400716D
:1052E0000161016941F480710161016841F02001AF
:1052F00001603B21C0F8FC13016941F0200101610C
:1053000000BF00BF00BF016841F0200101600168DB
:1053100041F480710160C0F8FCC3016941F02001D3
:10532000016100BF00BF00BF016841F020010160C2
:10533000016841F480710160016941F4007101610B
:10534000016941F480710161016841F0200101604F
:105350003C21C0F8FC13016941F02001016100BF4C
:1053600000BF00BF016841F020010160016841F405
:1053700080710160C0F8FC23016941F020010161E6
:1053800000BF00BF00BF016841F02001016001685B
:1053900041F480710160016941F4007101610169AA
:1053A00041F480710161016841F0200101603D21FB
:1053B000C0F8FC13016941F02001016100BF00BF8A
:1053C00000BF016841F020010160016841F4807173
:1053D00001604FF4A051C0F8FC13016941F02001B5
:1053E000016100BF00BF00BF016841F02001016002
:1053F000016841F480710160016941F4007101614B
:10540000016941F480710161016841F0200101608E
:105410009221C0F8FC13016941F02001016100BF35
:1054200000BF00BF016841F020010160016841F444
:10543000807101604FF40071C0F8FC13016941F004
:105440002001016100BF00BF00BF016841F02001E1
:105450000160016841F480710160016941F40071EB
:105460000161016941F480710161016841F020012D
:1054700001609321C0F8FC13016941F02001016132
:1054800000BF00BF00BF016841F02001016001685A
:1054900041F480710160C0F8FC23016941F02001F2
:1054A000016100BF00BF00BF016841F02001016041
:1054B000016841F480710160016941F4007101618A
:1054C000016941F480710161016841F020010160CE
:1054D0009021C0F8FC13016941F02001016100BF77
:1054E00000BF00BF016841F020010160016841F484
:1054F0008071016040F60D01C0F8FC13016941F0B4
:105500002001016100BF00BF00BF016841F0200120
:105510000160016841F480710160016941F400712A
:105520000161016941F480710161016841F020016C
:105530000160C0F8FCC3016941F02001016100BFB6
:1055400000BF00BF016841F020010160016841F423
:105550008071016041F21801C0F8FC13016941F04B
:105560002001016100BF00BF00BF016841F02001C0
:105570000160016841F480710160016941F40071CA
:105580000161016941F480710161016841F020010C
:1055900001600721C0F8FC13016941F0200101619D
:1055A00000BF00BF00BF016841F020010160016839
:1055B00041F48071016040F27311C0F8FC1301697D
:1055C00041F02001016100BF00BF00BF016841F050
:1055D00020010160016841F48071016070470000A2
:1055E0002DE9F04F81B040F21844C4F60004206960
:1055F0004FF0120940F4007020612069002540F44A
:10560000807020612068112640F020002060E32097
:10561000C4F8FC0320694FF0130B40F02000206118
:1056200000BF00BF00BF2068102740F020002060AE
:1056300020684FF0070840F48070206043F20800B3
:10564000C4F8FC03206940F02000206100BF00BFC7
:1056500000BF206840F020002060206840F4807087
:105660002060206940F400702061206940F480705F
:105670002061206840F020002060E720C4F8FC038F
:10568000206940F02000206100BF00BF00BF2068FB
:1056900040F020002060206840F480702060C4F852
:1056A000FC93206940F02000206100BF00BF00BFD4
:1056B000206840F020002060206840F48070206066
:1056C000206940F400702061206940F480702061FE
:1056D000206840F020002060EF20C4F8FC0320691F
:1056E00040F02000206100BF00BF00BF206840F0F4
:1056F00020002060206840F48070206041F231205A
:10570000C4F8FC03206940F02000206100BF00BF06
:1057100000BF206840F020002060206840F48070C6
:105720002060206940F400702061206940F480709E
:105730002061206840F0200020600120C4F8FC03B4
:10574000206940F02000206100BF00BF00BF20683A
:1057500040F020002060206840F480702060C4F891
:10576000FC53206940F02000206100BF00BF00BF53
:10577000206840F020002060206840F480702060A5
:10578000206940F400702061206940F4807020613D
:10579000206840F0200020600220C4F8FC0320694B
:1057A00040F02000206100BF00BF00BF206840F033
:1057B00020002060206840F4807020604FF4E0609A
:1057C000C4F8FC03206940F02000206100BF00BF46
:1057D00000BF206840F020002060206840F4807006
:1057E0002060206940F400702061206940F48070DE
:1057F0002061206840F0200020600320C4F8FC03F2
:10580000206940F02000206100BF00BF00BF206879
:1058100040F020002060206840F48070206041F259
:105820003000C4F8FC03206940F02000206100BF74
:1058300000BF00BF206840F020002060206840F4D6
:1058400080702060206940F400702061206940F47D
:1058500080702061206840F0200020600420C4F89F
:10586000FC03206940F02000206100BF00BF00BFA2
:10587000206840F020002060206840F480702060A4
:10588000C4F8FC53206940F02000206100BF00BF35
:1058900000BF206840F020002060206840F4807045
:1058A0002060206940F400702061206940F480701D
:1058B0002061206840F0200020600820C4F8FC032C
:1058C000206940F02000206100BF00BF00BF2068B9
:1058D00040F020002060206840F48070206040F29A
:1058E0000720C4F8FC03206940F02000206100BFBD
:1058F00000BF00BF206840F020002060206840F416
:1059000080702060206940F400702061206940F4BC
:1059100080702061206840F0200020600920C4F8D9
:10592000FC03206940F02000206100BF00BF00BFE1
:10593000206840F020002060206840F480702060E3
:10594000C4F8FC53206940F02000206100BF00BF74
:1059500000BF206840F020002060206840F4807084
:105960002060206940F400702061206940F480705C
:105970002061206840F0200020600A20C4F8FC0369
:10598000206940F02000206100BF00BF00BF2068F8
:1059900040F020002060206840F480702060C4F84F
:1059A000FC53206940F02000206100BF00BF00BF11
:1059B000206840F020002060206840F48070206063
:1059C000206940F400702061206940F480702061FB
:1059D000206840F0200020600C20C4F8FC032069FF
:1059E00040F02000206100BF00BF00BF206840F0F1
:1059F00020002060206840F480702060C4F8FC53D0
:105A0000206940F02000206100BF00BF00BF206877
:105A100040F020002060206840F480702060206901
:105A200040F400702061206940F48070206120689B
:105A300040F0200020600D20C4F8FC03206940F0F5
:105A40002000206100BF00BF00BF206840F02000A0
:105A50002060206840F480702060C4F8FC53206906
:105A600040F02000206100BF00BF00BF206840F070
:105A700020002060206840F480702060206940F49D
:105A800000702061206940F480702061206840F03F
:105A9000200020600F20C4F8FC03206940F02000A3
:105AA000206100BF00BF00BF206840F020002060E0
:105AB000206840F480702060C4F8FC53206940F0F6
:105AC0002000206100BF00BF00BF206840F0200020
:105AD0002060206840F480702060206940F40070ED
