:020000040800F2
:100000000080002041000008510000085100000855
:10001000510000085100000851000008510000087C
:10002000510000085100000851000008510000086C
:10003000510000085100000851000008510000085C
:10004000044911204FF0A1320A604860FFF7FEBF5B
:08005000FEE700BF00020020E2
:10020000474F525041000008430000080002002000
:1002100004020020A1A1A1A1110000000080002083
:100220004D00000800000000000000000000000079
:10023000000000000000000000000000474F525086
:0400000508000041AE
:00000001FF
