:020000040800F2
:100000000058002065000008610000086100000839
:1000100061000008610000086100000800000000A5
:100020000000000000000000000000006100000867
:10003000610000080000000061000008F1000008F5
:1000400000000000000000000000000000000000B0
:1000500000000000000000000000000000000000A0
:10006000FEE700BF1A4A1B498A4208B50CD2013983
:10007000891A194B21F003010431194453F8040B78
:1000800042F8040B8B42F9D1144A15498A420CD22A
:100090000139891A134B21F003010431194453F833
:1000A000040B42F8040B8B42F9D10F4B0F4A9342D9
:1000B0000AD2013AD21A22F0030204321A44002171
:1000C00043F8041B9342FBD100F01AF8FEE700BF8F
:1000D0000000002014000020B802000814000020D6
:1000E00014000020CC02000814000020140000209E
:1000F000024A536801335360704700BF000000207C
:100100004FF0E0234FF470022DE9F047C3F8882D3B
:10011000BFF34F8FBFF36F8F614A136843F480338F
:10012000136013689903FCD55E4BD36013685C4978
:1001300043F0807313600B689B01FCD55A4B02227D
:100140001A608B68564A43F003038B60936803F090
:100150000C030C2BFAD1D16C54489FED557A4FF01B
:10016000904341F01F01D164D16CD26CD3F80028C8
:1001700092B242F0AA4242F4AA02C3F80028D3F88D
:10018000142842F47F42C3F81428D3F8002C22F03C
:10019000300242F01002C3F8002CD3F8142C22F0E5
:1001A0000402C3F8142CD3F8002422F03F02C3F851
:1001B0000024D3F80C2422F03F0242F01502C3F8C9
:1001C0000C241A6822F003021A60DA6822F0030293
:1001D0004FF0E02142F00102DA600024072248617A
:1001E0008C610A61D3F81428D2B242F47F42C3F87A
:1001F000142804264FF480252E4AC3F8186CF6EE16
:10020000006AC3F8185CA446A64601274FF002080E
:100210009168013191605168D3F81004D3F810A0AF
:1002200010F0010FA1EB0C090CD1C2F80C80D3F82F
:100230001408C0B2C3F814088C46C3F8186CC3F88D
:10024000185CE5E71AF0010F14BFFA203C20814545
:10025000D760DDD307EE904A0EF1010E77EEA67A55
:100260000EF0070E07FA0EF0D3F814C8F4EEC77AB2
:10027000C0430002F1EE10FA5FFA8CF4C8BF77EECB
:10028000C77A80B22043C3F8140817EE904AC3F827
:10029000186C8C46C3F8185CC2ED047AB8E700BF4E
:1002A0000010024023140001002002407F380100AA
:0802B000000080420000002064
:1002B80001EEFFC000000000000000000000000088
:0402C8000000000032
:04000005080000658A
:00000001FF
