:020000040800F2
:1000000000580020C5000008C1000008C100000819
:10001000C1000008C1000008C10000080000000085
:10002000000000000000000000000000C100000807
:10003000C100000800000000C1000008C100000865
:1000400000000000000000000000000000000000B0
:1000500000000000000000000000000000000000A0
:100060000000000000000000000000000000000090
:100070000000000000000000000000000000000080
:100080000000000000000000000000000000000070
:100090000000000000000000000000000000000060
:1000A0000000000000000000000000000000000050
:1000B000290400080D0400080000000000000000F2
:1000C000FEE700BF1A4A1B498A4208B50CD2013923
:1000D000891A194B21F003010431194453F8040B18
:1000E00042F8040B8B42F9D1144A15498A420CD2CA
:1000F0000139891A134B21F003010431194453F8D3
:10010000040B42F8040B8B42F9D10F4B0F4A934278
:100110000AD2013AD21A22F0030204321A44002110
:1001200043F8041B9342FBD100F0C8F9FEE700BF7F
:10013000000000203400002080050008340000206A
:1001400034000020B40500083400002044000020E2
:100150004FF0804C30B40024CCF80044CCF80C4470
:10016000CCF82044CCF81844CCF81044CCF8244403
:100170004FF090442BBB236823F4404323604FF09F
:1001800080434FF4D045C3F82804C3F82C14C3F8B7
:100190001854C3F838241022C3F820244FF0E02468
:1001A00001200022C3F80C04C3F81404C3F810247F
:1001B0004FF00052C4F80021029AC3F8002430BC6A
:1001C0007047236823F4404343F400432360236AC9
:1001D00023F0704343F000532362D0E730B5431E51
:1001E00083B00446092B00F2F080DFE813F017001B
:1001F000460053005D006800AA00D500D900E30066
:100200000A00012300934FF4FA6240F69F71002028
:10021000FFF79EFF784B9C6003B030BD4FF08042EB
:1002200000234F211360D360136293611361536203
:10023000C2F80034C2F80C34C2F82034C2F81834C2
:10024000C2F81034C2F82434C2F8281440F2E7315E
:10025000C2F82C144FF0E0200121C2F80C14C2F8AF
:100260001414C2F810344FF00053C0F80031624B40
:10027000C2F800149C6003B030BD012300934FF41A
:10028000FA7240F2E7314F20FFF762FF5A4B9C6051
:1002900003B030BD01230093FA2240F2E7314F2032
:1002A000FFF756FF544BB6E70123009340F2EE22CE
:1002B00040F2E7314F20FFF74BFF4F4BABE74FF0DA
:1002C000804200214FF09040C2F80014C2F80C1494
:1002D000C2F82014C2F81814C2F81014C2F824147A
:1002E0001160D1601162916111615162036823F064
:1002F000404343F000430360436A23F0704343F0FC
:10030000805343624F2393624FF6FF73D362012001
:10031000032390611062D360384B50611161196002
:10032000374B1960374B1960374B1960324B996165
:1003300019634FF0E0214FF08055C1F80051106073
:1003400069E74FF0804200234FF09040C2F800343C
:10035000C2F80C34C2F82034C2F81834C2F8103491
:10036000C2F8243401684F2521F440410160C2F8ED
:10037000285440F2E735C2F82C544FF4D045C2F867
:1003800018544FF4FA75C2F8385410254FF0E02095
:100390000121C2F8205460E70023009301236EE797
:1003A00001230093FA2240F2F3114F20FFF7D0FE11
:1003B000114B30E7012300934FF47A6241F63F710D
:1003C0000020FFF7C5FE0C4B25E74FF080420021CF
:1003D000C2F80014084BC2F80C14C2F82014C2F87A
:1003E0001814C2F81014C2F824141160D1601162FC
:1003F0009161116151620EE7000000204000002071
:100400003C00002034000020380000204FF08043E2
:10041000044A6FF00101C3F81014D3680133D360AC
:10042000704700BF000000204FF080431969CB07E0
:1004300006D4880736D51C4A1C4B6FF002000AE030
:10044000194A1A4B10680130106010681863890748
:1004500022D56FF003004FF08041F0B4496B144C8B
:1004600059612568134E144F4DB11568D6F800C078
:10047000A5EB0C0C3D684D1B05EB0C459D613960EF
:1004800012683260012222601A6901321A614FF04B
:100490008043F0BC186170474FF080436FF001005B
:1004A00018617047704700BF340000200000002032
:1004B000380000203C0000204000002038B54FF0FC
:1004C000E0234FF47002C3F8882DBFF34F8FBFF3C2
:1004D0006F8F274A136843F48033136013689903BE
:1004E000FCD5244BD3601368214943F0807313601B
:1004F0000B689B01FCD5204B02221A608B681C4ABA
:1005000043F003038B60936803F00C030C2BFAD1C8
:10051000D16C1A4C4FF0904341F01F01D164D16C63
:10052000D16C196821F0C0211960D96821F0C0216F
:10053000D960936D43F0030393650020936DFFF73B
:100540004DFE4FF08045E36A0133E3626068A368C3
:10055000834201D0FFF742FED5F83834E361D5F885
:1005600024342362D5F8103463626B6AA362EAE72D
:10057000001002402314000100200240000000206F
:1005800003EEFFC0000000000000000000000000BB
:10059000000000000000000000000000000000005B
:1005A000000000000000000000000000000000004B
:0405B0000000000047
:04000005080000C52A
:00000001FF
